:100000000C9426020C9443020C9443020C94430279
:100010000C9443020C9443020C9443020C9443024C
:100020000C9443020C9443020C9443020C9443023C
:100030000C9443020C9443020C94C9160C94430292
:100040000C9443020C9443020C9443020C9443021C
:100050000C9443020C9443020C9443020C9443020C
:100060000C9460170C9443029C0387038A038D034E
:1000700090039303960346064C065506550655060F
:1000800055065506550655065506550655064F069E
:1000900049064F0655065806AA05AD05B005B30535
:1000A000B605B905BC05BF05C2055506550655067A
:1000B0005506550655065506C505C805CE05D10594
:1000C000D705DA05E005E605EC05F205F505FB05C3
:1000D000010607065806100616061C061F0625060A
:1000E0002B06310637063A064006430655065506E6
:1000F0005506550655065506C505C805CB05D10557
:10010000D405DA05DD05E305E905EF05F505F80594
:10011000FE0504060D061006130619061F06220624
:1001200028062E0634063A063D06430655065506B1
:1001300055065506550655065506550655065506E7
:1001400055065506550655065506550655065506D7
:1001500055065506550655065506550655065506C7
:1001600055065506550655065506550655065506B7
:1001700055065506550655065506550655060A06F2
:100180000A065506550655065506550655065506E2
:100190005506550655065506550655065506550687
:1001A0005506550655065506550652061D072607DF
:1001B0005307650765075F07650750072F07320775
:1001C000350738072C07200729073E07680766060A
:1001D00069066C066F067206750678067B067E0653
:1001E000650765074A074D07470723076207840627
:1001F0008A06900696069C06A206A806AE06B406D7
:10020000BA06C006C606CC06D2066807E106E706AF
:10021000ED06F306F906FF0605070B070E071407A0
:100220001A072F0741073207650765075907810637
:1002300087068D06930699069F06A506AB06B106AE
:10024000B706BD06C306C906CF06DB06DE06E40612
:10025000EA06F006F606FC06020708070E07110775
:1002600017076507440765072007650765076507E2
:10027000650765076507650765076507650765071E
:10028000650765076507650765076507650765070E
:1002900065076507650765076507650765076507FE
:1002A00065076507650765076507650765076507EE
:1002B00065076507D506D8066507650765076507FD
:1002C000650765075C0765076507650765076507D7
:1002D0006507650756076507650729076507650709
:1002E00065076507650765076507650765076507AE
:1002F000650765076507650765076507650765079E
:10030000650765076507650765076507650765078D
:10031000650765076507650765076507650765077D
:10032000650765076507650765076507650765076D
:10033000650765076507650765076507650765075D
:1003400065076507650765076507650765073B0777
:100350007B17CD17CD17CD17CD17CD17CD17CD17CF
:100360007B17CD17CD17CD17CD17CD17CD17CD17BF
:100370007D17CD17CD17CD17CD17CD17CD17CD17AD
:10038000CD17CD17CD17CD17CD17CD17CD17CD174D
:100390007D17CD17CD17CD17CD17CD17CD17CD178D
:1003A000CD17CD17CD17CD17CD17CD17CD17CD172D
:1003B000C917CD17CD17CD17CD17CD17CD17CD1721
:1003C000A617CD17CD17CD17CD17CD17CD17CD1734
:1003D000CD17CD17CD17CD17CD17CD17CD17CD17FD
:1003E0009A17CD17CD17CD17CD17CD17CD17CD1720
:1003F000B81708000000BE922449123EABAAAA2AF0
:10040000BECDCCCC4C3E00000080BEABAAAAAA3E1A
:1004100000000000BF000000803F00000000000856
:100420004178D3BB4387D1133D190E3CC3BD4282F3
:10043000AD2B3E68EC8276BED98FE1A93E4C80EFB1
:10044000FFBE01C4FF7F3F000000000011241FBE5B
:10045000CFEFD8E0DEBFCDBF13E0A0E0B1E0E4E233
:10046000F6E302C005900D92A634B107D9F723E058
:10047000A6E4B3E001C01D92AB39B207E1F70E94D8
:10048000A3080C94101B0C94000021E030E002C083
:10049000220F331F6A95E2F7206420937C00877057
:1004A000806880937A000895ECE7F0E09081907F77
:1004B0008F70892B8083EAE7F0E0808180648083FD
:1004C000808186FDFDCF80917C0085FF04C08091F6
:1004D000790090E00895209178008091790090E073
:1004E000982F882788279370822B08958F70805DBE
:1004F0000895282F207F30E035952795359527954D
:1005000035952795922F990F990F290F8F70820F8C
:1005100008959DEC899F912D112496959695969519
:1005200020E1929FA0011124990F292F220F220F61
:10053000920F891B8F70842B0895CF93DF93CDB7D3
:10054000DEB728970FB6F894DEBF0FBECDBF8F83FE
:1005500098874F8158859A01329522952F702327CD
:100560003F702327AEE3BAE00E94ED1A20E931E0A4
:10057000BC01629FC001639F900D729F900D11247A
:1005800048175907D9F09A0136952795369527953A
:10059000ABE7B4E10E94ED1A9695879564E6689FF3
:1005A0009001699F300D11244217530749F04370A1
:1005B000552781E0452B29F080E003C081E001C090
:1005C00080E028960FB6F894DEBF0FBECDBFDF9156
:1005D000CF9108951F93CF93DF93CDB7DEB76C977C
:1005E0000FB6F894DEBF0FBECDBF2D8B3E8B4F8B69
:1005F000588F462F698F172F7A8F8B8F9C8F2B8D5B
:100600003C8D8CE0E9E2F1E0DE01199601900D925B
:100610008A95E1F781E090E0733010F080E090E09F
:10062000281B390B50E041505109420F531FF9016B
:10063000F695E795F695E7954E0F5F1F3295229553
:100640002F7023273F702327AEE3BAE00E94ED1AF4
:10065000480F591FDE01A10FB11D18968C91480F4C
:10066000511D9F01ABE7B4E10E94ED1A9695879565
:10067000481B590B9A01A3E9B4E20E94ED1A281B0A
:10068000390B36952795820F931F969587959695EA
:1006900087959C01220F331F220F331F220F331F18
:1006A000B901681B790B461B570B4F5F488F88E0D9
:1006B000FE017596DE01119601900D928A95E1F783
:1006C00029813A814B815C816D817E818F81988502
:1006D0006C960FB6F894DEBF0FBECDBFDF91CF9101
:1006E0001F910895CF93DF93CDB7DEB728970FB64C
:1006F000F894DEBF0FBECDBF852F90E0FC0131978F
:10070000E730F105B0F4EC5CFF4F0C94E71A86EC8F
:1007100092E014C08FEC92E011C088ED92E00EC020
:1007200081EE92E00BC08AEE92E008C083EF92E087
:1007300005C08CEF92E002C08DEB92E028960FB6D8
:10074000F894DEBF0FBECDBFDF91CF9108954F92D9
:100750005F926F927F928F929F92AF92BF92CF9251
:10076000DF92EF92FF920F931F93CF93DF93E22ECE
:10077000E5E6F3E080831182613031F088F0623089
:1007800009F1633029F18DC060E187E693E00E94B2
:100790000A08402F6EE087E693E00E945408E0C00C
:1007A00060E187E693E00E940A084E2D6EE087E63E
:1007B00093E00E945408402F6FE087E693E00E9488
:1007C0005408CEC060E187E693E00E941608C8C0D6
:1007D000FA0180819281908391819283818380E26A
:1007E000878360E187E693E00E940A0887E693E04A
:1007F0000E9422080F2EFDE1CF2EF3E0DF2EF02D18
:10080000C0E010E05801F601C801019002C09595C2
:1008100087950A94E2F76F0180FF07C041E06C2FD3
:1008200087E693E00E94370806C041E06C2F87E618
:1008300093E00E944508CE5FCE3021F7AA0CAB2C86
:10084000AA1CBB08B194AB2839F040E06CE087E605
:1008500093E00E94370806C040E06CE087E693E032
:100860000E944508E0FE07C041E063E087E693E0B0
:100870000E94370806C041E063E087E693E00E94EB
:100880004508E1FE07C041E065E087E693E00E948D
:10089000370866C041E065E087E693E00E944508BE
:1008A0005FC04A010F2EF5E6CF2EF3E0DF2EF02DCC
:1008B0003601EA01A12CB12CE22EF12C89910E9483
:1008C0009F05F3018283270197010A2C02C0359509
:1008D00027950A94E2F720FF03C08068828303C053
:1008E0008F77F3018283FFEFAF1ABF0A82E0680EB1
:1008F000711C94E0A916B10409F70230B9F5E5E6D8
:10090000F3E08481806884838681806886832EC03A
:10091000F40181914F010E949F05F60182879201A7
:100920000C2E02C0359527950A94E2F720FF04C0EB
:100930008068F601828703C08F77F601828721964F
:10094000F2E0CF0ED11CC430D10511F7023041F4D2
:10095000E5E6F3E0848580688487868580688687FD
:1009600062E185E693E00E94151703C0C0E0D0E085
:10097000CFCFDF91CF911F910F91FF90EF90DF903C
:10098000CF90BF90AF909F908F907F906F905F902F
:100990004F900895FC019C01285F3F4F80E28193B6
:1009A000E217F307E1F708951F93CF93DF93182F12
:1009B000C5E6D3E0888381E2898362E0CE010E94AC
:1009C0001517188381E8898362E0CE010E9415170C
:1009D000DF91CF911F910895623829F0643819F0A2
:1009E000663809F060E8E5E6F3E0808361686183DA
:1009F00062E0CF010E94151708956F3008F06FE094
:100A0000E5E6F3E08083606E618362E0CF010E94DF
:100A10001517089590937A038093790310927803C1
:100A20001092770381E080937B03089510927B03FB
:100A3000089580917B03882379F0F894409177039F
:100A40005091780381E02091790330917A03421725
:100A5000530708F480E07894089580917B038823FD
:100A600081F08091770390917803019671F08091E5
:100A7000770390917803019690937803809377039E
:100A8000089510927803109277030895FC01718302
:100A90006083538342833583248308950F931F9388
:100AA000CF93DF938C01FC01C281D381888199812E
:100AB0009923ECF0F801208131812817390791F44E
:100AC000EA81FB81C8010995882361F08C819D81B1
:100AD000F80191838083EE81FF81309741F0C80156
:100AE000099505C028968881998199231CF7DF9183
:100AF000CF911F910F91089510927D0310927C0366
:100B000085B78F7E85BF84B184B987B187B98AB133
:100B1000836F8AB985B1836385B988B188B98BB190
:100B2000836F8BB9089586B189B190E080959095D7
:100B3000837F992790937D0380937C03089590E0B1
:100B4000FC01B097EB39F10508F0AFC0E55CFF4F51
:100B50000C94E71A86E090E008958BE590E0089504
:100B60008FE490E0089586E690E008958DE690E0A9
:100B700008958DE790E0089587E090E008958FE76D
:100B800090E008958FE690E0089587E790E008955B
:100B90008CE790E0089588E590E0089589E390E07F
:100BA00008958EE590E008958BE790E0089589E739
:100BB00090E0089581E790E008958FE690E0089531
:100BC0008DE390E0089584E790E0089586E790E053
:100BD000089580E190E0089580E390E008958EE12B
:100BE00090E008958FE190E0089580E790E0089507
:100BF00080E390E0089588E390E0089584E590E034
:100C0000089587E390E0089584E590E0089587E3F0
:100C100090E0089585E590E008958CE590E00895D2
:100C200083E790E008958CED90E008958FEB90E0DD
:100C3000089580E590E0089581E390E008958DE6C1
:100C400090E0089588E790E0089581E390E00895AA
:100C50008CE190E008958EE390E008958CE190E0BF
:100C600008958EE390E008958CE990E008958EEB6E
:100C700090E0089586E790E008958EE690E008956C
:100C80008EE690E008958DE690E0089580E090E093
:100C9000089580E490E0089582E890E0089580E867
:100CA00090E0089583E690E0089588E090E008954C
:100CB0008FE390E0089590E0FC01B097E23DF105EC
:100CC00008F003C1EA52FF4F0C94E71A86E091E066
:100CD00008958BE192E208958FE092E0089586E214
:100CE00092E208958DE292E208958DE392E20895F2
:100CF00087E090E008958FE392E208958FE292E218
:100D000008958FE192E2089587E392E208958CE3DB
:100D100092E208958FE89AE0089588E192E20895BA
:100D200089E390E008958EE092E208958FE898E0DC
:100D300008958BE392E2089589E390E2089581E3B8
:100D400090E2089581E392E2089587E296E20895A1
:100D50008DE392E0089584E392E2089586E392E2BF
:100D6000089580E898E0089589E898E0089586E07D
:100D700094E008958FE190E0089580E89DE0089563
:100D800080E395E2089580E898E0089588E390E094
:100D9000089584E19AE2089586E791E0089584E158
:100DA00092E2089586E794E0089584E192E208953E
:100DB00087E794E008958CE192E2089583E89AE051
:100DC000089583E392E2089587E292E208958FE323
:100DD00094E0089580E190E2089583E396E2089517
:100DE0008DE492E008958DE292E2089588E390E226
:100DF000089581E898E008958CE190E008958EE3ED
:100E000090E0089580E190E1089580E391E10895F4
:100E100084E194E1089586E394E1089580E495E106
:100E200008958EE892E0089580E499E0089589E0BD
:100E300093E1089589E091E1089580E090E00895BC
:100E400080E092E2089583E09AE8089582E090E8D5
:100E5000089580E090E8089580E090E1089589E3A6
:100E600090E008958FE090E0089580EC9DE1089572
:100E700080E89AE2089588E89AE2089580E091E196
:100E8000089580E494E0089580E898E0089580E46F
:100E900090E1089580E095E0089588E092E2089559
:100EA00080E890E0089582E890E0089580E091E085
:100EB000089580E490E0089584E092E2089580E649
:100EC00097E308958FE198E2089588E090E008950F
:100ED0008FE390E008952F923F924F925F926F922E
:100EE0007F928F929F92AF92BF92CF92DF92EF92BA
:100EF000FF920F931F93CF93DF93CDB7DEB7699720
:100F00000FB6F894DEBF0FBECDBF8E8B9F8B6B8B61
:100F1000398F288F0C8B1D8B662309F460C0482EF7
:100F2000592E498B5A8B312C5201F2011082E989DA
:100F3000FA892190FA8BE98B88248394912C022CD6
:100F400002C0880C991C0A94E2F7CE0101967C013C
:100F5000CC88DD8800E010E0622C712C311008C0D4
:100F6000F6018081E88DF98D0995F70191838083E1
:100F7000021590F4F70180819181882199219301D4
:100F8000201B310B02C0969587952A95E2F7F50153
:100F90009081892B808311C0F70180819181882104
:100FA000992198012619370902C0880F991F2A959F
:100FB000E2F7F5019081892B80830F5F1F4FF2E0EC
:100FC000EF0EF11C8FEFC81AD80A0830110531F660
:100FD00033949FEF491A590AEB89E311A5CF8E8903
:100FE0009F8969960FB6F894DEBF0FBECDBFDF9123
:100FF000CF911F910F91FF90EF90DF90CF90BF9016
:10100000AF909F908F907F906F905F904F903F90A8
:101010002F9008950F931F938A012FE935E045E340
:1010200053E00E946B071F910F9108950F931F9338
:101030008A012BE536E045E253E00E946B071F91E1
:101040000F910895BC01FC01AC01405F5F4F90819E
:10105000292F22952695269523702183990F990F84
:1010600090833296E417F50791F7CB010895FC01C0
:10107000E60FF11D21E030E002C0220F331F4A9538
:10108000E2F73081232B20830895FC01E60FF11D48
:1010900021E030E002C0220F331F4A95E2F720958D
:1010A0003081232320830895FC01E60FF11D208168
:1010B000422B4083089520917C0330917D0381E091
:1010C000232B09F080E0089580917C0390917D03AB
:1010D000089520917C0330917D032F7781E0232BAD
:1010E00009F080E0089580917C0390917D038074E5
:1010F000089520917C0330917D0381E0232B09F436
:1011000080E0089580919203089581E09091920388
:10111000911180E0089580917C0390917D03892B4B
:1011200041F00E94190591E0811101C090E0892FE2
:10113000089580E00895809180038093910381E079
:10114000809388030895CF93DF93CDB7DEB7CE5851
:10115000D1400FB6F894DEBF0FBECDBF88E891E056
:10116000E5E3F1E0DE01179601900D920197E1F7BA
:1011700020E030E0AE01495F5F4F61E070E0CE01FA
:1011800001960E9446050E947C050E940B17109252
:10119000900360E087E00E944502789480EE0E9410
:1011A000D40488EE0E94D40484EE0E94D40486EE17
:1011B0000E94D40400914C0320914D0348E151E07A
:1011C00060E080EE0E94A70300914A0320914B0348
:1011D00040E151E064E088EE0E94A70300914803DB
:1011E0002091490348E051E062E084EE0E94A703A9
:1011F000009146032091470340E051E063E086EE12
:101200000E94A70380E00E9454020024880F991FC7
:10121000001C880F991F001C892F902D8F708093C0
:1012200090036091900380EE0E94FD0480919003F2
:1012300090E00296409724F4609190036E5F02C0A4
:101240006091900388EE0E94FD046091900384EE0B
:101250000E94FD046091900386EE0E94FD0441E02F
:1012600050E06EE484E00E94AB160E949B0800E808
:1012700013E060E080ED0E943815F801208331838F
:1012800042835383648375838683978380ED0E94B2
:101290004916809392030E942D050E94930580E0D9
:1012A0000E9454020024880F991F001C880F991F68
:1012B000001C892F902D8F70809390036091900374
:1012C00080EE0E94FD048091900390E0029640978A
:1012D00024F4609190036E5F02C06091900388EEE9
:1012E0000E94FD046091900384EE0E94FD046091D1
:1012F000900386EE0E94FD04CE0101960E944E05E9
:101300000E94C216B6CF80918003909191038917F5
:1013100069F08093910380918803882324F481E00D
:101320008093880303C0880F80938803809188038B
:1013300008950F931F93CF93DF9309E813E023E9F8
:1013400033E04BE853E068EC70E081E00E942B153D
:101350000E943D1A0E94C01870937F0360937E0321
:10136000772384F16436710574F0CB01992764E624
:1013700070E00E94B11A862F0E9489020E947602B4
:101380008093200103C080E28093200180917E033E
:1013900090917F038A3091054CF00E9489028295DA
:1013A0008F700E9476028093210103C080E28093B7
:1013B000210180917E030E9489020E94760280931F
:1013C000220124C022273327261B370B2A30310560
:1013D00074F0C0E2D1E02DE22883862F81950E942F
:1013E000890282958F700E947602898306C0E0E2AE
:1013F000F1E080E280838DE2818380917E0381959C
:101400000E9489020E94760280932201E0E2F1E0CC
:101410008AEB838383E4848380E285838683878366
:10142000CF01DF91CF911F910F9108950F931F93DB
:10143000CF93DF93FC0130812091180132130FC04C
:10144000DC011196E9E1F1E0C0E2D1E05D9131917A
:10145000531307C0EC17FD07C9F710E003C01FEFD7
:1014600001C01FEF20914D03261307C020914C03AC
:10147000241305C01123D1F003C01FEF01C01FEFDB
:10148000DC01E8E1F1E0C0E2D1E08D918193EC175D
:10149000FD07D9F7042F262F60934D0340934C038B
:1014A00048E151E060E080EE0E94A703812FDF91C8
:1014B000CF911F910F9108950F931F93CF93DF93B7
:1014C000FC0130812091100132130FC0DC01119614
:1014D000E1E1F1E0C8E1D1E05D913191531307C042
:1014E000EC17FD07C9F710E003C01FEF01C01FEFA5
:1014F00020914B03261307C020914A03241305C0F3
:101500001123D1F003C01FEF01C01FEFDC01E0E1A8
:10151000F1E0C8E1D1E08D918193EC17FD07D9F797
:10152000042F262F60934B0340934A0340E151E080
:1015300064E088EE0E94A703812FDF91CF911F9175
:101540000F9108950F931F93CF93DF930E94160579
:101550008091800380FF15C000E813E0F8018281CC
:101560000E94890282958F700E947602C0E2D1E0CB
:101570008883F80182810E9489020E947602898311
:1015800005C0E0E2F1E080E280838183C0E8D3E03F
:1015900089810E94890282958F700E94760200E202
:1015A00011E0F801828389810E9489020E947602FB
:1015B000F801838348814170440F60E0C8010E94B4
:1015C0005C0A8C810E94890282958F700E9476024B
:1015D000F80180838C810E9489020E947602F801C2
:1015E00081838D810E94890282958F700E9476028C
:1015F000F80182838D810E9489020E947602F8019F
:1016000083832E813F81369527953695279536958C
:101610002795A5ECB0E20E94ED1A929582958F7005
:1016200089279F7089270E947602F80184834E8162
:101630005F819A013695279536952795369527959A
:10164000A5ECB0E20E94ED1A929582958F708927E1
:101650009F70892768EE73E0869F9001879F300D09
:10166000969F300D1124CA01821B930B9C01369565
:10167000279536952795ABE7B4E10E94ED1A96952C
:1016800087950E947602F80185834E815F819A01D9
:101690003695279536952795ABE7B4E10E94ED1A6C
:1016A0009695879564E6689F9001699F300D112497
:1016B000CA01821B930B9C01ADECBCEC0E94ED1A9D
:1016C0009695879596958795969587950E9476022B
:1016D000F80186834E815F819A01ADECBCEC0E94DB
:1016E000ED1A9695879596958795969587959C0181
:1016F000220F331F880F991F880F991F880F991F7A
:10170000820F931FF42FF81B8F2F0E947602F8018F
:10171000878340E06AE0C8010E94160ADF91CF91FA
:101720001F910F9108950F931F93CF93DF930E9402
:1017300016058091800380FF15C000E813E0F801D2
:1017400081810E94890282958F700E947602C0E298
:10175000D1E08A83F80181810E9489020E94760289
:101760008B8305C0E0E2F1E080E282838383C0E8FE
:10177000D3E08A810E94890282958F700E9476024E
:1017800000E211E0F80180838A810E9489020E94B0
:101790007602F801818348814170440F60E0C801FE
:1017A0000E945C0A8C810E94890282958F700E943F
:1017B0007602F80180838C810E9489020E94760261
:1017C000F80181838D810E94890282958F700E9429
:1017D0007602F80182838D810E9489020E9476023E
:1017E000F80183832E813F8136952795369527957D
:1017F00036952795A5ECB0E20E94ED1A9295829558
:101800008F7089279F7089270E947602F801848350
:101810004E815F819A0136952795369527953695A5
:101820002795A5ECB0E20E94ED1A929582958F70F3
:1018300089279F70892768EE73E0869F9001879FB4
:10184000300D969F300D1124CA01821B930B9C0111
:101850003695279536952795ABE7B4E10E94ED1AAA
:10186000969587950E947602F80185834E815F8167
:101870009A013695279536952795ABE7B4E10E94F6
:10188000ED1A9695879564E6689F9001699F300DE3
:101890001124CA01821B930B9C01ADECBCEC0E948D
:1018A000ED1A9695879596958795969587950E94BA
:1018B0007602F80186834E815F819A01ADECBCEC23
:1018C0000E94ED1A9695879596958795969587959A
:1018D0009C01220F331F880F991F880F991F880FB3
:1018E000991F820F931FF42FF81B8F2F0E947602EF
:1018F000F801878340E06AE0C8010E94160ADF9180
:10190000CF911F910F9108950F931F93CF93DF9362
:101910000E9416058091800380FF15C000E813E047
:10192000F80184810E94890282958F700E9476025C
:10193000C0E2D1E08883F80184810E9489020E947C
:101940007602898305C0E0E2F1E080E28083818352
:10195000C0E8D3E08D810E94890282958F700E9439
:10196000760200E211E0F80182838D810E948902F3
:101970000E947602F80183832E813F813695279558
:101980003695279536952795A5ECB0E20E94ED1A7D
:10199000929582958F7089279F7089270E94760281
:1019A000F80184834E815F819A013695279536959B
:1019B000279536952795A5ECB0E20E94ED1A9295F1
:1019C00082958F7089279F70892768EE73E0869FC4
:1019D0009001879F300D969F300D1124CA01821B04
:1019E000930B9C013695279536952795ABE7B4E187
:1019F0000E94ED1A969587950E947602F8018583DC
:101A00004E815F819A013695279536952795ABE7EC
:101A1000B4E10E94ED1A9695879564E6689F90015F
:101A2000699F300D1124CA01821B930B9C01ADEC00
:101A3000BCEC0E94ED1A969587959695879596959C
:101A400087950E947602F80186834E815F819A0114
:101A5000ADECBCEC0E94ED1A96958795969587950E
:101A6000969587959C01220F331F880F991F880F29
:101A7000991F880F991F820F931FF42FF81B8F2F28
:101A80000E947602F801878340E06AE0C8010E9464
:101A9000160A8A810E94890282958F700E947602BE
:101AA000F80180838A810E9489020E947602F801EF
:101AB000818389810E94890282958F700E947602BB
:101AC000F801828389810E9489020E947602F801CE
:101AD000838348814170440F60E0C8010E945C0A22
:101AE000DF91CF911F910F9108950F931F93CF9383
:101AF000DF930E9416058091800380FF15C000E8E7
:101B000013E0F80185810E94890282958F700E94FE
:101B10007602C0E2D1E08A83F80185810E948902C1
:101B20000E9476028B8305C0E0E2F1E080E28283CE
:101B30008383C0E8D3E08C810E94890282958F70F4
:101B40000E94760200E211E0F80180838C810E94FD
:101B500089020E947602F80181832E813F813695A9
:101B600027953695279536952795A5ECB0E20E94E6
:101B7000ED1A929582958F7089279F7089270E9410
:101B80007602F80184834E815F819A01369527950C
:101B90003695279536952795A5ECB0E20E94ED1A6B
:101BA000929582958F7089279F70892768EE73E0E0
:101BB000869F9001879F300D969F300D1124CA019A
:101BC000821B930B9C013695279536952795ABE79D
:101BD000B4E10E94ED1A969587950E947602F8016D
:101BE00085834E815F819A01369527953695279595
:101BF000ABE7B4E10E94ED1A9695879564E6689F7D
:101C00009001699F300D1124CA01821B930B9C0126
:101C1000ADECBCEC0E94ED1A96958795969587954C
:101C2000969587950E947602F80186834E815F81A2
:101C30009A01ADECBCEC0E94ED1A969587959695AD
:101C40008795969587959C01220F331F880F991FC2
:101C5000880F991F880F991F820F931FF42FF81B6D
:101C60008F2F0E947602F801878340E06AE0C80166
:101C70000E94160A8A810E94890282958F700E94B2
:101C80007602F80180838A810E9489020E9476028E
:101C9000F801818389810E94890282958F700E9458
:101CA0007602F801828389810E9489020E9476026D
:101CB000F801838348814170440F60E0C8010E94AD
:101CC0005C0ADF91CF911F910F9108950F931F939D
:101CD000CF93DF930E9416058091800380FF8DC013
:101CE00000E813E0F801268137813695279536956F
:101CF000279536952795A5ECB0E20E94ED1A9295AE
:101D000082958F7089279F7089270E947602C0E292
:101D1000D1E08C83F801468157819A013695279549
:101D20003695279536952795A5ECB0E20E94ED1AD9
:101D3000929582958F7089279F70892768EE73E04E
:101D4000869F9001879F300D969F300D1124CA0108
:101D5000821B930B9C013695279536952795ABE70B
:101D6000B4E10E94ED1A969587950E9476028D83C4
:101D7000F801468157819A01369527953695279522
:101D8000ABE7B4E10E94ED1A9695879564E6689FEB
:101D90009001699F300D1124CA01821B930B9C0195
:101DA000ADECBCEC0E94ED1A9695879596958795BB
:101DB000969587950E9476028E83F8014681578119
:101DC0009A01ADECBCEC0E94ED1A9695879596951C
:101DD0008795969587959C01220F331F880F991F31
:101DE000880F991F880F991F820F931FF42FF81BDC
:101DF0008F2F0E9476028F8307C0E0E2F1E080E23D
:101E00008483858386838783C0E8D3E08C810E94A6
:101E1000890282958F700E94760200E211E0F8013B
:101E200080838C810E9489020E947602F80181835E
:101E30008D810E94890282958F700E947602F8013E
:101E400082838D810E9489020E947602F801838339
:101E500040E06AE0C8010E94160A8A810E94890255
:101E600082958F700E947602F80180838A810E9499
:101E700089020E947602F801818389810E94890289
:101E800082958F700E947602F801828389810E9478
:101E900089020E947602F801838348814170440FD1
:101EA00060E0C8010E945C0ADF91CF911F910F9101
:101EB00008950F931F93CF93DF93FC0130812091FE
:101EC000080132130FC0DC011196E9E0F1E0C0E136
:101ED000D1E05D913191531307C0EC17FD07C9F7AD
:101EE00010E003C01FEF01C01FEF2091490326132C
:101EF00007C020914803241305C01123D1F003C06B
:101F00001FEF01C01FEFDC01E8E0F1E0C0E1D1E02C
:101F10008D918193EC17FD07D9F7042F262F60933D
:101F200049034093480348E051E062E084EE0E9498
:101F3000A703812FDF91CF911F910F9108950F93E8
:101F40001F93CF93DF93FC01308120910001321366
:101F50000FC0DC011196E1E0F1E0C8E0D1E05D9155
:101F60003191531307C0EC17FD07C9F710E003C008
:101F70001FEF01C01FEF20914703261307C02091D8
:101F80004603241305C01123D1F003C01FEF01C085
:101F90001FEFDC01E0E0F1E0C8E0D1E08D9181933A
:101FA000EC17FD07D9F7042F262F609347034093C2
:101FB000460340E051E063E086EE0E94A703812FD4
:101FC000DF91CF911F910F9108950F931F93CF939E
:101FD000DF93C0E8D3E08C810E94890282958F70E4
:101FE0000E94760200E211E0F80180838C810E9459
:101FF00089020E947602F80181838D810E94890204
:1020000082958F700E947602F80182838D810E94F2
:1020100089020E947602F80183832E813F813695E2
:1020200027953695279536952795A5ECB0E20E9421
:10203000ED1A929582958F7089279F7089270E944B
:102040007602F80184834E815F819A013695279547
:102050003695279536952795A5ECB0E20E94ED1AA6
:10206000929582958F7089279F70892768EE73E01B
:10207000869F9001879F300D969F300D1124CA01D5
:10208000821B930B9C013695279536952795ABE7D8
:10209000B4E10E94ED1A969587950E947602F801A8
:1020A00085834E815F819A013695279536952795D0
:1020B000ABE7B4E10E94ED1A9695879564E6689FB8
:1020C0009001699F300D1124CA01821B930B9C0162
:1020D000ADECBCEC0E94ED1A969587959695879588
:1020E000969587950E947602F80186834E815F81DE
:1020F0009A01ADECBCEC0E94ED1A969587959695E9
:102100008795969587959C01220F331F880F991FFD
:10211000880F991F880F991F820F931FF42FF81BA8
:102120008F2F0E947602F801878340E06AE0C801A1
:102130000E94160A68E0C8010E94CA048A810E94AF
:10214000890282958F700E947602F80180838A81CD
:102150000E9489020E947602F801818389810E948F
:10216000890282958F700E947602F80182838981AC
:102170000E9489020E947602F8018383488141709F
:10218000440F60E0C8010E945C0A209180033091F6
:102190008103409182035091830360918403709185
:1021A000850380918603909187030E94720340E02B
:1021B00060E00E94590F0E948309C82F0E9499096C
:1021C0004C2F60E00E949F0FDF91CF911F910F91E4
:1021D0000895CF93DF93EC010E941605CE010E9473
:1021E000E50FDF91CF910895EF920F931F93CF9357
:1021F000DF93EC01209180033091810340918203B1
:1022000050918303609184037091850380918603CC
:10221000909187030E94EA02E0E8F3E02083318393
:10222000428353836483758386839783E12C009173
:1022300080031091810320918203309183034091A8
:10224000840350918503609186037091870380ED2C
:102250000E94C515CE010E94E50FDF91CF911F911D
:102260000F91EF900895CF93DF93EC0160E880EE3B
:102270000E94EC0460E888EE0E94EC04CE010E940B
:10228000E50FDF91CF910895CF93DF93EC0180EDBF
:102290000E94701660E880EE0E94EC0460E888EE10
:1022A0000E94EC04CE010E94E50FDF91CF910895CA
:1022B000EF920F931F93CF93DF93EC0180917C03F8
:1022C00090917D0385FF0AC080917C0390917D03EE
:1022D00084FF04C0CE010E94E50F6EC080917C0394
:1022E00090917D0385FF24C0E0E8F3E082818F5F59
:1022F00082838281883110F01092820310928003D1
:10230000E12C009180031091810320918203309190
:1023100083034091840350918503609186037091FB
:10232000870380ED0E94C515CE010E94E50F44C0D1
:1023300080917C0390917D0384FF27C0809182036C
:10234000811104C087E18093820305C0E0E8F3E0D7
:1023500082818150828310928003E12C009180035E
:102360001091810320918203309183034091840373
:1023700050918503609186037091870380ED0E94E0
:10238000C515CE010E94E50F17C0E12C0091800316
:102390001091810320918203309183034091840343
:1023A00050918503609186037091870380ED0E94B0
:1023B000C515CE010E94E50FDF91CF911F910F91BE
:1023C000EF900895CF93DF93EC0188EE93E00E94A5
:1023D0000A05CE010E945811DF91CF910895EF9226
:1023E0000F931F93CF93DF93EC0180917C03909127
:1023F0007D0385FF0AC080917C0390917D0384FF5B
:1024000004C0CE010E94E50F6CC080917C039091C6
:102410007D0385FF24C0E0E8F3E081818F5F818345
:1024200081818C3310F01092810310928003E12C93
:1024300000918003109181032091820330918303E6
:1024400040918403509185036091860370918703C6
:1024500080ED0E94C515CE010E94E50F42C080911B
:102460007C0390917D0384FF25C0809181038111BD
:1024700004C08BE38093810305C0E0E8F3E0818131
:1024800081508183E12C0091800310918103209180
:1024900082033091830340918403509185036091BE
:1024A00086037091870380ED0E94C515CE010E94BE
:1024B000E50F17C0E12C009180031091810320915A
:1024C000820330918303409184035091850360918E
:1024D00086037091870380ED0E94C515CE010E948E
:1024E000E50FDF91CF911F910F91EF900895CF935A
:1024F000DF93EC0188EE93E00E940A05CE010E9472
:10250000EF11DF91CF910895EF920F931F93CF9327
:10251000DF93EC0180917C0390917D0385FF0AC0DD
:1025200080917C0390917D0384FF04C0CE010E94C2
:10253000E50F8BC02091800330918103409182038D
:102540005091830360918403709185038091860389
:10255000909187030E949D02882339F0E0918503C2
:10256000F0E0EC5FFC4F208106C0E0918503F0E0D5
:10257000E05FFC4F208180917C0390917D0385FF7B
:1025800023C0E0E8F3E084818F5F8483848128178F
:1025900018F481E080938403E12C00918003109172
:1025A00081032091820330918303409184035091F1
:1025B0008503609186037091870380ED0E94C515A5
:1025C000CE010E94E50F41C080917C0390917D0374
:1025D00084FF24C080918403823018F42093840304
:1025E00005C0E0E8F3E0848181508483E12C009110
:1025F00080031091810320918203309183034091E5
:10260000840350918503609186037091870380ED68
:102610000E94C515CE010E94E50F17C0E12C009164
:1026200080031091810320918203309183034091B4
:10263000840350918503609186037091870380ED38
:102640000E94C515CE010E94E50FDF91CF911F9129
:102650000F91EF900895CF93DF93EC0188EE93E014
:102660000E940A05CE010E948412DF91CF91089545
:10267000EF920F931F93CF93DF93EC0180917C0334
:1026800090917D0385FF0AC080917C0390917D032A
:1026900084FF04C0CE010E94E50F6BC080917C03D3
:1026A00090917D0385FF23C0E0E8F3E085818F5F93
:1026B000858385818D3018F081E080938503E12C3E
:1026C0000091800310918103209182033091830354
:1026D0004091840350918503609186037091870334
:1026E00080ED0E94C515CE010E94E50F42C0809189
:1026F0007C0390917D0384FF25C080918503823007
:1027000020F48CE08093850305C0E0E8F3E0858148
:1027100081508583E12C00918003109181032091E9
:10272000820330918303409184035091850360912B
:1027300086037091870380ED0E94C515CE010E942B
:10274000E50F17C0E12C00918003109181032091C7
:1027500082033091830340918403509185036091FB
:1027600086037091870380ED0E94C515CE010E94FB
:10277000E50FDF91CF911F910F91EF900895CF93C7
:10278000DF93EC0188EE93E00E940A05CE010E94DF
:102790003813DF91CF9108950E94E50F0895EF92CD
:1027A0000F931F93CF93DF93EC0180917C03909163
:1027B0007D0385FF0AC080917C0390917D0384FF97
:1027C00004C0CE010E94E50F7AC080917C039091F5
:1027D0007D0385FF2AC0E0E8F3E0868197810196BA
:1027E00097838683868197818433984030F08CE686
:1027F00097E09093870380938603E12C00918003F8
:1028000010918103209182033091830340918403CE
:1028100050918503609186037091870380ED0E943B
:10282000C515CE010E94E50F4AC080917C039091AE
:102830007D0384FF2DC080918603909187038D36A0
:10284000974038F483E398E090938703809386035E
:1028500007C0E0E8F3E0868197810197978386833C
:10286000E12C00918003109181032091820330912B
:102870008303409184035091850360918603709196
:10288000870380ED0E94C515CE010E94E50F17C099
:10289000E12C0091800310918103209182033091FB
:1028A0008303409184035091850360918603709166
:1028B000870380ED0E94C515CE010E94E50FDF91D0
:1028C000CF911F910F91EF900895CF93DF93EC017B
:1028D00088EE93E00E940A05CE010E94CF13DF919B
:1028E000CF910895CF93DF93EC010E941605CE019E
:1028F0000E94E50FDF91CF9108952091800320FF82
:1029000003C00E94E50F089568E080E291E00E9414
:10291000CA0440E060E080E291E00E94160A40E0D4
:1029200060E080E291E00E945C0A40E060E080E2CA
:1029300091E00E94590F40E060E080E291E00E9447
:102940009F0F0895CF92DF92EF92FF920F931F9304
:10295000CF93DF936B01EA01790161157105D1F124
:102960002881398126173707B8F40E945402F701ED
:102970004081518162817381480F591F611D711D12
:1029800040835183628373838881998101969983FF
:1029900088838C159D05A0F0960140E050E0F7017A
:1029A00060817181828193810E94C51AF80131830F
:1029B0002083F701108211821282138219821882F9
:1029C000F8016081718180E090E00E94F6189B011F
:1029D000AC0108C0682F70E080E090E00E94F6181B
:1029E0009B01AC0160E070EC8FE794E40E944E180C
:1029F00020E030E040E85FE30E94E1179B01AC017A
:102A000060E070E48CE196E40E944E1820E030E42F
:102A10004CE156E40E944E180E948C1920E030EEE2
:102A200046E755E40E944E182FE03FEC4BE55BE390
:102A30000E94E2179B01AC0160E070E080E89FE338
:102A40000E944E18DF91CF911F910F91FF90EF9050
:102A5000DF90CF9008950F931F930E94A21423E359
:102A600033E948E853E40E94E1171F910F9108955C
:102A7000CF92DF92EF92FF920F931F93CF93DF934A
:102A8000CDB7DEB761970FB6F894DEBF0FBECDBFEE
:102A9000182F062F89871A8662E0CE0109960E94B8
:102AA00015171160198768E0CE0109960E94151765
:102AB00068E0CE0109960E94411701112BC08A855A
:102AC0000E947902C82E8B850E947902D82E8C85AF
:102AD0000E947902E82EFD848E850E947902082FDB
:102AE0008F858F710E947902182F88890E94790240
:102AF00090E02F8522231CF08053984F02C0845908
:102B0000984FC982DA82EB82FC820D831E839887FC
:102B10008F8324C00F3FD1F47A856B855C854D850A
:102B20003E858F85282F2F71882324F4888990E093
:102B3000996103C0888990E0906279836A835B839E
:102B40004C833D832E8398878F8308C019821A8215
:102B50001B821C821D821E8218861F8229813A8157
:102B60004B815C816D817E818F81988561960FB6E6
:102B7000F894DEBF0FBECDBFDF91CF911F910F91B3
:102B8000FF90EF90DF90CF9008958F929F92BF9229
:102B9000CF92DF92EF92FF920F931F93CF93DF9329
:102BA000CDB7DEB761970FB6F894DEBF0FBECDBFCD
:102BB000688B798BD22EB32EC42EF52E88889988F7
:102BC00089831A82E1103DC0802F0E9489028B8385
:102BD000812F0E9489028C838D2D0E9489028F7320
:102BE0008D83BE828C2D0E9489028F8320ED8216F8
:102BF00027E0920638F48F2D0E9489028F71806839
:102C0000888705C08F2D0E9489028F718887940163
:102C10003695279536952795ABE7B4E10E94ED1AD6
:102C200096958795282D34E6839F20191124822FAD
:102C30000E948902898769E0CE0101960E941517DA
:102C400016C03FEFE31213C00B831C832F732D8339
:102C5000BE824F83C4019695879580785F71582B0B
:102C60005887898669E0CE0101960E941517619602
:102C70000FB6F894DEBF0FBECDBFDF91CF911F918D
:102C80000F91FF90EF90DF90CF90BF909F908F902B
:102C900008951F93CF93DF9300D01F92CDB7DEB777
:102CA000182F89838FE08A8362E0CE0101960E940B
:102CB00015171160198363E0CE0101960E94151764
:102CC00063E0CE0101960E9441178A81881F882700
:102CD000881F0F900F900F90DF91CF911F91089553
:102CE000FF920F931F93CF93DF9300D01F92CDB726
:102CF000DEB7182F89830F2EFFE0FF2EF02DFA820A
:102D000062E0CE0101960E941517812F81608983B0
:102D100063E0CE0101960E94151763E0CE01019693
:102D20000E9441170A811983FA82802F8C70836078
:102D30008B8363E0CE0101960E941517802F881FB8
:102D40008827881F0F900F900F90DF91CF911F91D0
:102D50000F91FF90089550939A0340939903109216
:102D600098031092970310928F0392E094BD67BD71
:102D700016BCA99AEEE6F0E090819260908387708D
:102D800085BD089580918F038823E1F310928F030E
:102D900008951F920F920FB60F9211242F933F9315
:102DA0004F935F936F937F938F939F93AF93BF9353
:102DB000EF93FF93809197039091980301969093DE
:102DC0009803809397032091970330919803809103
:102DD000990390919A038217930760F480918F036F
:102DE0008F5F80938F0310929803109297030E9435
:102DF0002D0516BCFF91EF91BF91AF919F918F91DF
:102E00007F916F915F914F913F912F910F900FBEE6
:102E10000F901F90189581E18093B8008FEF8093F9
:102E2000BB0084E08093BC000895CF93DF93EC0156
:102E3000ECEBF0E0908190FDFDCF60935003888132
:102E40008093510380FD12C0623080F0FE01319604
:102E5000A2E5B3E06250262F30E02E5F3F4F2C0FEB
:102E60003D1F91919D93E217F307D9F710924F03FD
:102E700088EF8093280185EA8093BC00DF91CF9191
:102E80000895AC01ECEBF0E0908190FDFDCF8091D6
:102E90004F0380FF11C0662379F0A1E5B3E0FA018A
:102EA0006150262F30E02F5F3F4F240F351F9D913B
:102EB0009193E217F307D9F780914F03817008953A
:102EC0001F920F920FB60F9211242F933F938F935F
:102ED0009F93AF93BF93EF93FF93E091B9008E2F31
:102EE00090E0FC013897E135F10508F056C0E8554F
:102EF000FE4F0C94E71A10924E03E0914E0380911E
:102F00005003E81770F481E08E0F80934E03F0E0D9
:102F1000EF5AFC4F80818093BB0085E88093BC0012
:102F200043C080914F03816080934F0384E9809375
:102F3000BC003AC0E0914E0381E08E0F80934E03B7
:102F40008091BB00F0E0EF5AFC4F808320914E034C
:102F500030E08091500390E001972817390724F45E
:102F600085EC8093BC0020C085E88093BC001CC029
:102F70008091BB00E0914E03F0E0EF5AFC4F80835C
:102F800080914F03816080934F0384E98093BC005C
:102F90000BC085EA8093BC0007C08091B900809384
:102FA000280184E08093BC00FF91EF91BF91AF9125
:102FB0009F918F913F912F910F900FBE0F901F9077
:102FC00018955058BB27AA270E94F9170C944A1944
:102FD0000E943C1938F00E94431920F039F49F3FB9
:102FE00019F426F40C9439190EF4E095E7FB0C94CF
:102FF0003319E92F0E945B1958F3BA176207730758
:103000008407950720F079F4A6F50C947D190EF449
:10301000E0950B2EBA2FA02D0B01B90190010C01E8
:10302000CA01A0011124FF27591B99F0593F50F400
:10303000503E68F11A16F040A22F232F342F442758
:10304000585FF3CF469537952795A795F040539550
:10305000C9F77EF41F16BA0B620B730B840BBAF020
:103060009150A1F0FF0FBB1F661F771F881FC2F78B
:103070000EC0BA0F621F731F841F48F4879577959F
:103080006795B795F7959E3F08F0B0CF9395880F59
:1030900008F09927EE0F9795879508950E9462187A
:1030A0000C944A190E94431958F00E943C1940F0B0
:1030B00029F45F3F29F00C94331951110C947E19B7
:1030C0000C9439190E945B1968F39923B1F35523C5
:1030D00091F3951B550BBB27AA276217730784072B
:1030E00038F09F5F5F4F220F331F441FAA1FA9F3C1
:1030F00035D00E2E3AF0E0E832D091505040E695AF
:10310000001CCAF72BD0FE2F29D0660F771F881F0F
:10311000BB1F261737074807AB07B0E809F0BB0B02
:10312000802DBF01FF2793585F4F3AF09E3F510516
:1031300078F00C9433190C947E195F3FE4F3983EB9
:10314000D4F3869577956795B795F7959F5FC9F7FF
:10315000880F911D9695879597F90895E1E0660F80
:10316000771F881FBB1F621773078407BA0720F0F9
:10317000621B730B840BBA0BEE1F88F7E095089562
:103180000E94C7186894B1110C947E1908950E948A
:10319000631988F09F5798F0B92F9927B751B0F06D
:1031A000E1F0660F771F881F991F1AF0BA95C9F7CB
:1031B00014C0B13091F00E947D19B1E008950C94D3
:1031C0007D19672F782F8827B85F39F0B93FCCF386
:1031D000869577956795B395D9F73EF49095809548
:1031E000709561957F4F8F4F9F4F0895E89409C068
:1031F00097FB3EF490958095709561957F4F8F4F2A
:103200009F4F9923A9F0F92F96E9BB279395F6953F
:10321000879577956795B795F111F8CFFAF4BB0FBD
:1032200011F460FF1BC06F5F7F4F8F4F9F4F16C021
:10323000882311F096E911C0772321F09EE8872FAB
:10324000762F05C0662371F096E8862F70E060E067
:103250002AF09A95660F771F881FDAF7880F9695E0
:10326000879597F9089597F99F6780E870E060E087
:1032700008959FEF80EC089500240A94161617060F
:1032800018060906089500240A9412161306140657
:1032900005060895092E0394000C11F4882352F0BA
:1032A000BB0F40F4BF2B11F460FF04C06F5F7F4F72
:1032B0008F4F9F4F089557FD9058440F551F59F059
:1032C0005F3F71F04795880F97FB991F61F09F3F13
:1032D00079F087950895121613061406551FF2CF3C
:1032E0004695F1DF08C0161617061806991FF1CF8C
:1032F00086957105610508940895E894BB276627B3
:103300007727CB0197F9089516F00C947C1A0C944A
:10331000391968940C9433190E946319A8F39923FE
:10332000C1F3AEF3DF93CF931F930F93FF92C92F97
:10333000DD2788232AF02197660F771F881FDAF789
:1033400020E030E040E85FEB9FE3883920F0803EEA
:1033500038F021968F770E94E217E2EFF3E004C085
:103360000E94E217EFE1F4E00E948A1A8B01BE018D
:10337000EC01FB2E6F5771097595771F880B990B20
:103380000E94F81828E132E741E35FE30E94E31965
:10339000AF2D9801AE01FF900F911F91CF91DF915A
:1033A0000E94F9170C944A190E943C1938F00E94A7
:1033B000431920F0952311F00C9433190C9439190A
:1033C00011240C947E190E945B1970F3959FC1F330
:1033D000950F50E0551F629FF001729FBB27F00DC3
:1033E000B11D639FAA27F00DB11DAA1F649F662718
:1033F000B00DA11D661F829F2227B00DA11D621F67
:10340000739FB00DA11D621F839FA00D611D221F20
:10341000749F3327A00D611D231F849F600D211D04
:10342000822F762F6A2F11249F5750409AF0F1F087
:1034300088234AF0EE0FFF1FBB1F661F771F881FF0
:1034400091505040A9F79E3F510580F00C943319DC
:103450000C947E195F3FE4F3983ED4F386957795FC
:103460006795B795F795E7959F5FC1F7FE2B880F96
:10347000911D9695879597F908950E946319E8F034
:103480009E37E8F09639B8F49E3848F4672F782FC5
:103490008827985FF9CF86957795679593959539A5
:1034A000D0F3B62FB1706B0F711D811D20F487957D
:1034B0007795679593950C94611A0C947C1A0C94EB
:1034C0007E19882371F4772321F09850872B762F6B
:1034D00007C0662311F499270DC09051862B70E028
:1034E00060E02AF09A95660F771F881FDAF7880F39
:1034F0009695879597F908959F3F31F0915020F464
:10350000879577956795B795880F911D96958795BF
:1035100097F90895DF93CF931F930F93FF92EF9244
:10352000DF927B018C01689406C0DA2EEF010E94C5
:10353000E319FE01E894A5912591359145915591A6
:10354000A6F3EF010E94F917FE019701A801DA9492
:1035500069F7DF90EF90FF900F911F91CF91DF916E
:10356000089597FB072E16F4009407D077FD09D035
:103570000E94FC1A07FC05D03EF4909581959F4F60
:103580000895709561957F4F0895A1E21A2EAA1BA8
:10359000BB1BFD010DC0AA1FBB1FEE1FFF1FA21703
:1035A000B307E407F50720F0A21BB30BE40BF50B00
:1035B000661F771F881F991F1A9469F76095709589
:1035C000809590959B01AC01BD01CF010895EE0F50
:1035D000FF1F0590F491E02D0994A29FB001B39FC5
:1035E000C001A39F700D811D1124911DB29F700D0C
:1035F000811D1124911D0895AA1BBB1B51E107C019
:10360000AA1FBB1FA617B70710F0A61BB70B881F72
:10361000991F5A95A9F780959095BC01CD01089501
:04362000F894FFCF4C
:103624002020202020202020202020202020202096
:103634002020202020202020202020202020202086
:103644002020202020202020F8000302050003056C
:10365400010406020402005B080100E50F02006495
:10366400080200E50F0100820803007D14010073C5
:10367400080700E50F010069080100E50F03007366
:1036840008070044110300820803007D1403008529
:10369400080100331107005B080500A20A07008B2C
:1036A400080600E910070064080700E50F06007922
:1036B400080600581106005B080500A20A05005B15
:1036C400080500A20A050073080A00930B05007997
:1036D400080700E2110A005B080800930B0A008B3C
:1036E400080900E9100A0064080A00E50F090079D6
:1036F400080900EF1109005B080800930B08005B40
:10370400080800930B080073080D00840C08007966
:10371400080A0077120D005B080B00840C0D008B67
:10372400080C00E9100D0064080D00E50F0C007989
:10373400080C0084120C005B080B00840C0B005B6B
:10374400080B00840C0B0073081000750D0B007936
:10375400080D002B1310005B080E00750D10008B74
:10376400080F00E910100064081000E50F0F00793D
:10377400080F0038130F005B080E00750D0E005B78
:10378400080E00750D0E0073081300660E0E007906
:10379400081000BF1313005B081100660E13008BA2
:1037A4000812007214130064081300CC1312007979
:1037B400081200CF1312005B081100660E11005BA3
:1037C400081100660E110073080200F4101100794C
:1037D4000813006514FFFF0000FFFF00004C554E66
:1037E4004553202020004D41525445532020004D84
:1037F400494552434F4C45004A55455645532020B0
:1038040000564945524E4553200053414241444FCE
:10381400202000444F4D494E474F200020202020B7
:1038240020202020001F1D1F1E1F1E1F1F1E1F1EC5
:103834001F1F1C1F1E1F1E1F1F1E1F1E1F000105F2
:1038440004060203070003050104020D09070B0621
:10385400080C0A0F0E00080109020A030B040C05E8
:063864000D060E070F0027
:00000001FF
