:100000000C94F9010C9416020C9416020C9416022E
:100010000C9416020C9416020C9416020C94160200
:100020000C9416020C9416020C9416020C941602F0
:100030000C9416020C9416020C9425160C941602BD
:100040000C9416020C9416020C9416020C941602D0
:100050000C9416020C9416020C9416020C941602C0
:100060000C94BC160C9416026F035A035D036003D4
:1000700063036603690319061F0628062806280677
:100080002806280628062806280628062806220606
:100090001C06220628062B067D058005830586059D
:1000A00089058C058F0592059505280628062806E2
:1000B000280628062806280698059B05A105A405FC
:1000C000AA05AD05B305B905BF05C505C805CE052B
:1000D000D405DA052B06E305E905EF05F205F80579
:1000E000FE0504060A060D0613061606280628064F
:1000F000280628062806280698059B059E05A405BF
:10010000A705AD05B005B605BC05C205C805CB05FC
:10011000D105D705E005E305E605EC05F205F50593
:10012000FB05010607060D0610061606280628061A
:10013000280628062806280628062806280628064F
:10014000280628062806280628062806280628063F
:10015000280628062806280628062806280628062F
:10016000280628062806280628062806280628061F
:100170002806280628062806280628062806DD055B
:10018000DD0528062806280628062806280628064B
:1001900028062806280628062806280628062806EF
:1001A000280628062806280628062506F006F90649
:1001B00026073807380732073807230702070507DD
:1001C00008070B07FF06F306FC0611073B07390675
:1001D0003C063F064206450648064B064E065106BB
:1001E000380738071D0720071A07F6063507570690
:1001F0005D06630669066F0675067B06810687063F
:100200008D06930699069F06A5063B07B406BA0617
:10021000C006C606CC06D206D806DE06E106E7060C
:10022000ED06020714070507380738072C075406A0
:100230005A06600666066C06720678067E06840616
:100240008A06900696069C06A206AE06B106B7067A
:10025000BD06C306C906CF06D506DB06E106E406E1
:10026000EA06380717073807F3063807380738074C
:100270003807380738073807380738073807380786
:100280003807380738073807380738073807380776
:100290003807380738073807380738073807380766
:1002A0003807380738073807380738073807380756
:1002B00038073807A806AB06380738073807380765
:1002C000380738072F07380738073807380738073F
:1002D00038073807290738073807FC063807380772
:1002E0003807380738073807380738073807380716
:1002F0003807380738073807380738073807380706
:1003000038073807380738073807380738073807F5
:1003100038073807380738073807380738073807E5
:1003200038073807380738073807380738073807D5
:1003300038073807380738073807380738073807C5
:1003400038073807380738073807380738070E07DF
:10035000D7162917291729172917291729172917F0
:10036000D7162917291729172917291729172917E0
:10037000D9162917291729172917291729172917CE
:10038000291729172917291729172917291729176D
:10039000D9162917291729172917291729172917AE
:1003A000291729172917291729172917291729174D
:1003B0002517291729172917291729172917291741
:1003C0000217291729172917291729172917291754
:1003D000291729172917291729172917291729171D
:1003E000F616291729172917291729172917291741
:1003F000141711241FBECFEFD8E0DEBFCDBF13E02E
:10040000A0E0B1E0E8EFFEE202C005900D92A63454
:10041000B107D9F723E0A6E4B3E001C01D92A139EA
:10042000B207E1F70E949C080C947A170C94000024
:1004300021E030E002C0220F331F6A95E2F720640A
:1004400020937C008770806880937A000895ECE7A1
:10045000F0E09081907F8F70892B8083EAE7F0E055
:10046000808180648083808186FDFDCF80917C00C7
:1004700085FF04C08091790090E008952091780074
:100480008091790090E0982F882788279370822B9D
:1004900008958F70805D0895282F207F30E0359576
:1004A00027953595279535952795922F990F990F73
:1004B000290F8F70820F08959DEC899F912D112433
:1004C00096959695969520E1929FA0011124990FFB
:1004D000292F220F220F920F891B8F70842B0895D2
:1004E000CF93DF93CDB7DEB728970FB6F894DEBF72
:1004F0000FBECDBF8F8398874F8158859A01329563
:1005000022952F7023273F702327AEE3BAE00E9485
:10051000571720E931E0BC01629FC001639F900D35
:10052000729F900D112448175907D9F09A013695FA
:10053000279536952795ABE7B4E10E945717969516
:10054000879564E6689F9001699F300D11244217DA
:10055000530749F04370552781E0452B29F080E08F
:1005600003C081E001C080E028960FB6F894DEBF9A
:100570000FBECDBFDF91CF9108951F93CF93DF932F
:10058000CDB7DEB76C970FB6F894DEBF0FBECDBF08
:100590002D8B3E8B4F8B588F462F698F172F7A8F5D
:1005A0008B8F9C8F2B8D3C8D8CE0E9E2F1E0DE019E
:1005B000199601900D928A95E1F781E090E07330F1
:1005C00010F080E090E0281B390B50E041505109B9
:1005D000420F531FF901F695E795F695E7954E0FF3
:1005E0005F1F329522952F7023273F702327AEE39C
:1005F000BAE00E945717480F591FDE01A10FB11D25
:1006000018968C91480F511D9F01ABE7B4E10E94F1
:10061000571796958795481B590B9A01A3E9B4E2A1
:100620000E945717281B390B36952795820F931F69
:1006300096958795969587959C01220F331F220FDB
:10064000331F220F331FB901681B790B461B570B51
:100650004F5F488F88E0FE017596DE01119601908C
:100660000D928A95E1F729813A814B815C816D81F8
:100670007E818F8198856C960FB6F894DEBF0FBE91
:10068000CDBFDF91CF911F910895CF93DF93CDB769
:10069000DEB728970FB6F894DEBF0FBECDBF852F0B
:1006A00090E0FC013197E730F105B0F4EC5CFF4FCE
:1006B0000C94511786EC92E014C08FEC92E011C0BC
:1006C00088ED92E00EC081EE92E00BC08AEE92E0DF
:1006D00008C083EF92E005C08CEF92E002C08DEB82
:1006E00092E028960FB6F894DEBF0FBECDBFDF9123
:1006F000CF9108954F925F926F927F928F929F92C7
:10070000AF92BF92CF92DF92EF92FF920F931F931F
:10071000CF93DF93E22EE5E6F3E080831182613030
:1007200031F088F0623009F1633029F18DC060E169
:1007300087E693E00E94DD07402F6EE087E693E0B6
:100740000E942708E0C060E187E693E00E94DD0791
:100750004E2D6EE087E693E00E942708402F6FE061
:1007600087E693E00E942708CEC060E187E693E029
:100770000E94E907C8C0FA0180819281908391812B
:100780009283818380E2878360E187E693E00E9421
:10079000DD0787E693E00E94F5070F2EFDE1CF2EDF
:1007A000F3E0DF2EF02DC0E010E05801F601C801A3
:1007B000019002C0959587950A94E2F76F0180FF3A
:1007C00007C041E06C2F87E693E00E940A0806C04C
:1007D00041E06C2F87E693E00E941808CE5FCE3090
:1007E00021F7AA0CAB2CAA1CBB08B194AB2839F09A
:1007F00040E06CE087E693E00E940A0806C040E013
:100800006CE087E693E00E941808E0FE07C041E034
:1008100063E087E693E00E940A0806C041E063E0D7
:1008200087E693E00E941808E1FE07C041E065E01A
:1008300087E693E00E940A0866C041E065E087E62B
:1008400093E00E9418085FC04A010F2EF5E6CF2EF4
:10085000F3E0DF2EF02D3601EA01A12CB12CE22EBF
:10086000F12C89910E947205F3018283270197017F
:100870000A2C02C0359527950A94E2F720FF03C0A1
:100880008068828303C08F77F3018283FFEFAF1A02
:10089000BF0A82E0680E711C94E0A916B10409F742
:1008A0000230B9F5E5E6F3E08481806884838681CF
:1008B000806886832EC0F40181914F010E947205E9
:1008C000F601828792010C2E02C0359527950A9475
:1008D000E2F720FF04C08068F601828703C08F77AB
:1008E000F60182872196F2E0CF0ED11CC430D105EB
:1008F00011F7023041F4E5E6F3E0848580688487EF
:1009000086858068868762E185E693E00E9471169D
:1009100003C0C0E0D0E0CFCFDF91CF911F910F9106
:10092000FF90EF90DF90CF90BF90AF909F908F900F
:100930007F906F905F904F900895FC019C01285F1D
:100940003F4F80E28193E217F307E1F708951F9389
:10095000CF93DF93182FC5E6D3E0888381E28983A4
:1009600062E0CE010E947116188381E8898362E0FB
:10097000CE010E947116DF91CF911F9108956238C8
:1009800029F0643819F0663809F060E8E5E6F3E02C
:1009900080836168618362E0CF010E9471160895CF
:1009A0006F3008F06FE0E5E6F3E08083606E61830E
:1009B00062E0CF010E947116089590937A038093AC
:1009C0007903109278031092770381E080937B0380
:1009D000089510927B03089580917B03882379F01A
:1009E000F894409177035091780381E02091790346
:1009F00030917A034217530708F480E07894089501
:100A000080917B03882381F0809177039091780314
:100A1000019671F0809177039091780301969093FD
:100A200078038093770308951092780310927703E8
:100A30000895FC017183608353834283358324834B
:100A400008950F931F93CF93DF938C01FC01C28114
:100A5000D381888199819923ECF0F801208131813B
:100A60002817390791F4EA81FB81C8010995882389
:100A700061F08C819D81F80191838083EE81FF81FB
:100A8000309741F0C801099505C028968881998161
:100A900099231CF7DF91CF911F910F910895109228
:100AA0007D0310927C0385B78F7E85BF84B184B9A6
:100AB00087B187B98AB1836F8AB985B1836385B9F4
:100AC00088B188B98BB1836F8BB9089586B189B12C
:100AD00090E080959095837F992790937D038093F4
:100AE0007C03089590E0FC01B097EB39F10508F024
:100AF000AFC0E55CFF4F0C94511786E090E008957D
:100B00008BE590E008958FE490E0089586E690E00C
:100B100008958DE690E008958DE790E0089587E0D0
:100B200090E008958FE790E008958FE690E00895B3
:100B300087E790E008958CE790E0089588E590E0DD
:100B4000089589E390E008958EE590E008958BE79D
:100B500090E0089589E790E0089581E790E0089596
:100B60008FE690E008958DE390E0089584E790E0AB
:100B7000089586E790E0089580E190E0089580E38D
:100B800090E008958EE190E008958FE190E008955F
:100B900080E790E0089580E390E0089588E390E096
:100BA000089584E590E0089587E390E0089584E552
:100BB00090E0089587E390E0089585E590E008953A
:100BC0008CE590E0089583E790E008958CED90E047
:100BD00008958FEB90E0089580E590E0089581E31B
:100BE00090E008958DE690E0089588E790E00895FC
:100BF00081E390E008958CE190E008958EE390E029
:100C000008958CE190E008958EE390E008958CE9DA
:100C100090E008958EEB90E0089586E790E00895C7
:100C20008EE690E008958EE690E008958DE690E0DF
:100C3000089580E090E0089580E490E0089582E8CF
:100C400090E0089580E890E0089583E690E00895AC
:100C500088E090E008958FE390E0089590E0FC0133
:100C6000B097E23DF10508F003C1EA52FF4F0C9442
:100C7000511786E091E008958BE192E208958FE0AC
:100C800092E0089586E292E208958DE292E208955C
:100C90008DE392E2089587E090E008958FE392E279
:100CA00008958FE292E208958FE192E2089587E33A
:100CB00092E208958CE392E208958FE89AE0089515
:100CC00088E192E2089589E390E008958EE092E24F
:100CD00008958FE898E008958BE392E2089589E300
:100CE00090E2089581E390E2089581E392E208950D
:100CF00087E296E208958DE392E0089584E392E21C
:100D0000089586E392E2089580E898E0089589E8DE
:100D100098E0089586E094E008958FE190E00895CA
:100D200080E89DE0089580E395E2089580E898E0EA
:100D3000089588E390E0089584E19AE2089586E7B3
:100D400091E0089584E192E2089586E794E00895A1
:100D500084E192E2089587E794E008958CE192E2BD
:100D6000089583E89AE0089583E392E2089587E284
:100D700092E208958FE394E0089580E190E208956F
:100D800083E396E208958DE492E008958DE292E285
:100D9000089588E390E2089581E898E008958CE151
:100DA00090E008958EE390E0089580E190E1089549
:100DB00080E391E1089584E194E1089586E394E16C
:100DC000089580E495E108958EE892E0089580E426
:100DD00099E0089589E093E1089589E091E108950B
:100DE00080E090E0089580E092E2089583E09AE840
:100DF000089582E090E8089580E090E8089580E00A
:100E000090E1089589E390E008958FE090E00895DF
:100E100080EC9DE1089580E89AE2089588E89AE2DE
:100E2000089580E091E1089580E494E0089580E8D9
:100E300098E0089580E490E1089580E095E00895B9
:100E400088E092E2089580E890E0089582E890E0DA
:100E5000089580E091E0089580E490E0089584E0B2
:100E600092E2089580E697E308958FE198E208956D
:100E700088E090E008958FE390E008952F923F92EC
:100E80004F925F926F927F928F929F92AF92BF929A
:100E9000CF92DF92EF92FF920F931F93CF93DF9346
:100EA000CDB7DEB769970FB6F894DEBF0FBECDBFE2
:100EB0008E8B9F8B6B8B398F288F0C8B1D8B6623B2
:100EC00009F460C0482E592E498B5A8B312C52019F
:100ED000F2011082E989FA892190FA8BE98B882442
:100EE0008394912C022C02C0880C991C0A94E2F77E
:100EF000CE0101967C01CC88DD8800E010E0622CF8
:100F0000712C311008C0F6018081E88DF98D0995AA
:100F1000F70191838083021590F4F701808191811C
:100F2000882199219301201B310B02C0969587954A
:100F30002A95E2F7F5019081892B808311C0F70192
:100F4000808191818821992198012619370902C051
:100F5000880F991F2A95E2F7F5019081892B8083EC
:100F60000F5F1F4FF2E0EF0EF11C8FEFC81AD80A87
:100F70000830110531F633949FEF491A590AEB896D
:100F8000E311A5CF8E899F8969960FB6F894DEBFCD
:100F90000FBECDBFDF91CF911F910F91FF90EF90CA
:100FA000DF90CF90BF90AF909F908F907F906F9089
:100FB0005F904F903F902F9008950F931F938A0159
:100FC00022E735E045E353E00E943E071F910F9171
:100FD00008950F931F938A012EE236E045E253E015
:100FE0000E943E071F910F910895BC01FC01AC01C6
:100FF000405F5F4F9081292F22952695269523707B
:101000002183990F990F90833296E417F50791F792
:10101000CB010895FC01E60FF11D21E030E002C094
:10102000220F331F4A95E2F73081232B2083089546
:10103000FC01E60FF11D21E030E002C0220F331F5A
:101040004A95E2F720953081232320830895FC01FF
:10105000E60FF11D2081422B408308951F93CF930B
:10106000DF9300D0CDB7DEB7182F89831A8262E0F4
:10107000CE0101960E9471161160198363E0CE01C2
:1010800001960E94711663E0CE0101960E949D16A2
:101090008A8190E0982F88272B81822B0F900F90C8
:1010A000DF91CF911F91089520917C0330917D03B2
:1010B00081E0232B09F080E0089580917C039091DA
:1010C0007D03089520917C0330917D032F7781E08B
:1010D000232B09F080E0089580917C0390917D039B
:1010E0008074089520917C0330917D0381E0232B4F
:1010F00009F480E0089580918C03089581E0909137
:101100008C03911180E0089580917C0390917D0380
:10111000892B41F00E94EC0491E0811101C090E024
:10112000892F089580E008958091800380938B0338
:1011300081E0809388030895CF93DF93CDB7DEB726
:10114000CE58D1400FB6F894DEBF0FBECDBF88E8B1
:1011500091E0E5E3F1E0DE01179601900D92019731
:10116000E1F720E030E0AE01495F5F4F61E070E001
:10117000CE0101960E9419050E944F050E94671634
:1011800010928A0360E087E00E941802789480EE53
:101190000E94A70488EE0E94A70484EE0E94A70480
:1011A00086EE0E94A70400914C0320914D0348E174
:1011B00051E060E080EE0E947A0300914A032091A2
:1011C0004B0340E151E064E088EE0E947A03009115
:1011D00048032091490348E051E062E084EE0E9418
:1011E0007A03009146032091470340E051E063E019
:1011F00086EE0E947A0380E00E9427020024880F76
:10120000991F001C880F991F001C892F902D8F702B
:1012100080938A0360918A0380EE0E94D0048091BB
:101220008A0390E00296409724F460918A036E5FEF
:1012300002C060918A0388EE0E94D00460918A0304
:1012400084EE0E94D00460918A0386EE0E94D0044E
:1012500041E050E06EE484E00E9407160E9494088A
:1012600000E813E060E080ED0E949414F801208310
:10127000318342835383648375838683978380EDB0
:101280000E94A51580938C030E9400050E946605AC
:1012900080E00E9427020024880F991F001C880FFD
:1012A000991F001C892F902D8F7080938A03609165
:1012B0008A0380EE0E94D00480918A0390E0029617
:1012C000409724F460918A036E5F02C060918A03A4
:1012D00088EE0E94D00460918A0384EE0E94D004BC
:1012E00060918A0386EE0E94D004CE0101960E948E
:1012F00021050E941E16B6CF8091800390918B032A
:10130000891769F080938B0380918803882324F4E4
:1013100081E08093880303C0880F809388038091C5
:1013200088030895EF92FF920F931F93CF93DF935B
:1013300080E90E942E088C0190937F0380937E03A6
:10134000043E8FEF180744F1C12FF0E0DF2FC436C1
:10135000D10574F0CE01992764E670E00E943D1734
:10136000862F0E945C020E9449028093200103C0E4
:1013700080E280932001CA30D10554F0812F0E9471
:101380005C0282958F700E9449028093210126C0E1
:1013900080E28093210122C0119501951109C12F8E
:1013A000E0E0DE2FCA30D1059CF00F2EF0E2EF2EE8
:1013B000F1E0FF2EF02D8DE2F7018083812F0E9456
:1013C0005C0282958F700E944902F701818306C0FA
:1013D000E0E2F1E080E280838DE281838C2F0E9445
:1013E0005C020E944902E0E2F1E082838AEB83839F
:1013F00083E4848380E2858386838783CF01DF91C2
:10140000CF911F910F91FF90EF9008950F931F932D
:10141000CF93DF93FC0130812091180132130FC06C
:10142000DC011196E9E1F1E0C0E2D1E05D9131919A
:10143000531307C0EC17FD07C9F710E003C01FEFF7
:1014400001C01FEF20914D03261307C020914C03CC
:10145000241305C01123D1F003C01FEF01C01FEFFB
:10146000DC01E8E1F1E0C0E2D1E08D918193EC177D
:10147000FD07D9F7042F262F60934D0340934C03AB
:1014800048E151E060E080EE0E947A03812FDF9115
:10149000CF911F910F9108950F931F93CF93DF93D7
:1014A000FC0130812091100132130FC0DC01119634
:1014B000E1E1F1E0C8E1D1E05D913191531307C062
:1014C000EC17FD07C9F710E003C01FEF01C01FEFC5
:1014D00020914B03261307C020914A03241305C013
:1014E0001123D1F003C01FEF01C01FEFDC01E0E1C9
:1014F000F1E0C8E1D1E08D918193EC17FD07D9F7B8
:10150000042F262F60934B0340934A0340E151E0A0
:1015100064E088EE0E947A03812FDF91CF911F91C2
:101520000F9108950F931F93CF93DF930E94E904C7
:101530008091800380FF15C000E813E0F8018281EC
:101540000E945C0282958F700E944902C0E2D1E045
:101550008883F80182810E945C020E94490289838B
:1015600005C0E0E2F1E080E280838183C0E8D3E05F
:1015700089810E945C0282958F700E94490200E27C
:1015800011E0F801828389810E945C020E94490275
:10159000F801838348814170440F60E0C8010E94D4
:1015A0004C0A8C810E945C0282958F700E944902D5
:1015B000F80180838C810E945C020E944902F8013C
:1015C00081838D810E945C0282958F700E94490206
:1015D000F80182838D810E945C020E944902F80119
:1015E00083832E813F8136952795369527953695AD
:1015F0002795A5ECB0E20E945717929582958F70BF
:1016000089279F7089270E944902F80184834E81AF
:101610005F819A01369527953695279536952795BA
:10162000A5ECB0E20E945717929582958F7089279A
:101630009F70892768EE73E0869F9001879F300D29
:10164000969F300D1124CA01821B930B9C01369585
:10165000279536952795ABE7B4E10E9457179695E5
:1016600087950E944902F80185834E815F819A0126
:101670003695279536952795ABE7B4E10E94571725
:101680009695879564E6689F9001699F300D1124B7
:10169000CA01821B930B9C01ADECBCEC0E94571756
:1016A0009695879596958795969587950E94490278
:1016B000F80186834E815F819A01ADECBCEC0E94FB
:1016C00057179695879596958795969587959C013A
:1016D000220F331F880F991F880F991F880F991F9A
:1016E000820F931FF42FF81B8F2F0E944902F801DD
:1016F000878340E06AE0C8010E94060ADF91CF912B
:101700001F910F9108950F931F93CF93DF930E9422
:10171000E9048091800380FF15C000E813E0F80120
:1017200081810E945C0282958F700E944902C0E212
:10173000D1E08A83F80181810E945C020E94490203
:101740008B8305C0E0E2F1E080E282838383C0E81E
:10175000D3E08A810E945C0282958F700E944902C8
:1017600000E211E0F80180838A810E945C020E94FD
:101770004902F801818348814170440F60E0C8014B
:101780000E944C0A8C810E945C0282958F700E949C
:101790004902F80180838C810E945C020E94490208
:1017A000F80181838D810E945C0282958F700E9476
:1017B0004902F80182838D810E945C020E944902E5
:1017C000F80183832E813F8136952795369527959D
:1017D00036952795A5ECB0E20E9457179295829511
:1017E0008F7089279F7089270E944902F80184839E
:1017F0004E815F819A0136952795369527953695C6
:101800002795A5ECB0E20E945717929582958F70AC
:1018100089279F70892768EE73E0869F9001879FD4
:10182000300D969F300D1124CA01821B930B9C0131
:101830003695279536952795ABE7B4E10E94571763
:10184000969587950E944902F80185834E815F81B4
:101850009A013695279536952795ABE7B4E10E9416
:1018600057179695879564E6689F9001699F300D9C
:101870001124CA01821B930B9C01ADECBCEC0E94AD
:1018800057179695879596958795969587950E9473
:101890004902F80186834E815F819A01ADECBCEC70
:1018A0000E94571796958795969587959695879553
:1018B0009C01220F331F880F991F880F991F880FD3
:1018C000991F820F931FF42FF81B8F2F0E9449023C
:1018D000F801878340E06AE0C8010E94060ADF91B0
:1018E000CF911F910F9108950F931F93CF93DF9383
:1018F0000E94E9048091800380FF15C000E813E096
:10190000F80184810E945C0282958F700E944902D6
:10191000C0E2D1E08883F80184810E945C020E94C9
:101920004902898305C0E0E2F1E080E2808381839F
:10193000C0E8D3E08D810E945C0282958F700E9486
:10194000490200E211E0F80182838D810E945C026D
:101950000E944902F80183832E813F8136952795A5
:101960003695279536952795A5ECB0E20E94571736
:10197000929582958F7089279F7089270E944902CE
:10198000F80184834E815F819A01369527953695BB
:10199000279536952795A5ECB0E20E9457179295AA
:1019A00082958F7089279F70892768EE73E0869FE4
:1019B0009001879F300D969F300D1124CA01821B24
:1019C000930B9C013695279536952795ABE7B4E1A7
:1019D0000E945717969587950E944902F8018583C2
:1019E0004E815F819A013695279536952795ABE70D
:1019F000B4E10E9457179695879564E6689F900119
:101A0000699F300D1124CA01821B930B9C01ADEC20
:101A1000BCEC0E9457179695879596958795969555
:101A200087950E944902F80186834E815F819A0161
:101A3000ADECBCEC0E9457179695879596958795C7
:101A4000969587959C01220F331F880F991F880F49
:101A5000991F880F991F820F931FF42FF81B8F2F48
:101A60000E944902F801878340E06AE0C8010E94B1
:101A7000060A8A810E945C0282958F700E94490248
:101A8000F80180838A810E945C020E944902F80169
:101A9000818389810E945C0282958F700E94490235
:101AA000F801828389810E945C020E944902F80148
:101AB000838348814170440F60E0C8010E944C0A52
:101AC000DF91CF911F910F9108950F931F93CF93A3
:101AD000DF930E94E9048091800380FF15C000E835
:101AE00013E0F80185810E945C0282958F700E944C
:101AF0004902C0E2D1E08A83F80185810E945C023C
:101B00000E9449028B8305C0E0E2F1E080E282831B
:101B10008383C0E8D3E08C810E945C0282958F7041
:101B20000E94490200E211E0F80180838C810E944A
:101B30005C020E944902F80181832E813F81369523
:101B400027953695279536952795A5ECB0E20E9406
:101B50005717929582958F7089279F7089270E94C9
:101B60004902F80184834E815F819A013695279559
:101B70003695279536952795A5ECB0E20E94571724
:101B8000929582958F7089279F70892768EE73E000
:101B9000869F9001879F300D969F300D1124CA01BA
:101BA000821B930B9C013695279536952795ABE7BD
:101BB000B4E10E945717969587950E944902F80153
:101BC00085834E815F819A013695279536952795B5
:101BD000ABE7B4E10E9457179695879564E6689F36
:101BE0009001699F300D1124CA01821B930B9C0147
:101BF000ADECBCEC0E945717969587959695879506
:101C0000969587950E944902F80186834E815F81EF
:101C10009A01ADECBCEC0E94571796958795969566
:101C20008795969587959C01220F331F880F991FE2
:101C3000880F991F880F991F820F931FF42FF81B8D
:101C40008F2F0E944902F801878340E06AE0C801B3
:101C50000E94060A8A810E945C0282958F700E940F
:101C60004902F80180838A810E945C020E94490235
:101C7000F801818389810E945C0282958F700E94A5
:101C80004902F801828389810E945C020E94490214
:101C9000F801838348814170440F60E0C8010E94CD
:101CA0004C0ADF91CF911F910F9108950F931F93CD
:101CB000CF93DF930E94E9048091800380FF8DC061
:101CC00000E813E0F801268137813695279536958F
:101CD000279536952795A5ECB0E20E945717929567
:101CE00082958F7089279F7089270E944902C0E2E0
:101CF000D1E08C83F801468157819A01369527956A
:101D00003695279536952795A5ECB0E20E94571792
:101D1000929582958F7089279F70892768EE73E06E
:101D2000869F9001879F300D969F300D1124CA0128
:101D3000821B930B9C013695279536952795ABE72B
:101D4000B4E10E945717969587950E9449028D83AA
:101D5000F801468157819A01369527953695279542
:101D6000ABE7B4E10E9457179695879564E6689FA4
:101D70009001699F300D1124CA01821B930B9C01B5
:101D8000ADECBCEC0E945717969587959695879574
:101D9000969587950E9449028E83F8014681578166
:101DA0009A01ADECBCEC0E945717969587959695D5
:101DB0008795969587959C01220F331F880F991F51
:101DC000880F991F880F991F820F931FF42FF81BFC
:101DD0008F2F0E9449028F8307C0E0E2F1E080E28A
:101DE0008483858386838783C0E8D3E08C810E94C7
:101DF0005C0282958F700E94490200E211E0F801B6
:101E000080838C810E945C020E944902F8018183D8
:101E10008D810E945C0282958F700E944902F801B8
:101E200082838D810E945C020E944902F8018383B3
:101E300040E06AE0C8010E94060A8A810E945C02B2
:101E400082958F700E944902F80180838A810E94E6
:101E50005C020E944902F801818389810E945C0230
:101E600082958F700E944902F801828389810E94C5
:101E70005C020E944902F801838348814170440F4B
:101E800060E0C8010E944C0ADF91CF911F910F9131
:101E900008950F931F93CF93DF93FC01308120911E
:101EA000080132130FC0DC011196E9E0F1E0C0E156
:101EB000D1E05D913191531307C0EC17FD07C9F7CD
:101EC00010E003C01FEF01C01FEF2091490326134C
:101ED00007C020914803241305C01123D1F003C08B
:101EE0001FEF01C01FEFDC01E8E0F1E0C0E1D1E04D
:101EF0008D918193EC17FD07D9F7042F262F60935E
:101F000049034093480348E051E062E084EE0E94B8
:101F10007A03812FDF91CF911F910F9108950F9335
:101F20001F93CF93DF93FC01308120910001321386
:101F30000FC0DC011196E1E0F1E0C8E0D1E05D9175
:101F40003191531307C0EC17FD07C9F710E003C028
:101F50001FEF01C01FEF20914703261307C02091F8
:101F60004603241305C01123D1F003C01FEF01C0A5
:101F70001FEFDC01E0E0F1E0C8E0D1E08D9181935A
:101F8000EC17FD07D9F7042F262F609347034093E2
:101F9000460340E051E063E086EE0E947A03812F21
:101FA000DF91CF911F910F9108950F931F93CF93BE
:101FB000DF93C0E8D3E08C810E945C0282958F7031
:101FC0000E94490200E211E0F80180838C810E94A6
:101FD0005C020E944902F80181838D810E945C02AB
:101FE00082958F700E944902F80182838D810E9440
:101FF0005C020E944902F80183832E813F8136955D
:1020000027953695279536952795A5ECB0E20E9441
:102010005717929582958F7089279F7089270E9404
:102020004902F80184834E815F819A013695279594
:102030003695279536952795A5ECB0E20E9457175F
:10204000929582958F7089279F70892768EE73E03B
:10205000869F9001879F300D969F300D1124CA01F5
:10206000821B930B9C013695279536952795ABE7F8
:10207000B4E10E945717969587950E944902F8018E
:1020800085834E815F819A013695279536952795F0
:10209000ABE7B4E10E9457179695879564E6689F71
:1020A0009001699F300D1124CA01821B930B9C0182
:1020B000ADECBCEC0E945717969587959695879541
:1020C000969587950E944902F80186834E815F812B
:1020D0009A01ADECBCEC0E945717969587959695A2
:1020E0008795969587959C01220F331F880F991F1E
:1020F000880F991F880F991F820F931FF42FF81BC9
:102100008F2F0E944902F801878340E06AE0C801EE
:102110000E94060A68E0C8010E949D048A810E940C
:102120005C0282958F700E944902F80180838A8147
:102130000E945C020E944902F801818389810E9409
:102140005C0282958F700E944902F8018283898126
:102150000E945C020E944902F80183834881417019
:10216000440F60E0C8010E944C0A20918003309126
:1021700081034091820350918303609184037091A5
:10218000850380918603909187030E94450340E078
:1021900060E00E94490F0E947C09C82F80E090E017
:1021A0000E9492094C2F60E00E948F0FDF91CF9127
:1021B0001F910F910895CF93DF93EC010E94E904E2
:1021C000CE010E94D50FDF91CF910895EF920F932A
:1021D0001F93CF93DF93EC01209180033091810313
:1021E0004091820350918303609184037091850331
:1021F00080918603909187030E94BD02E0E8F3E09E
:1022000020833183428353836483758386839783DA
:10221000E12C009180031091810320918203309181
:1022200083034091840350918503609186037091EC
:10223000870380ED0E942115CE010E94D50FDF910A
:10224000CF911F910F91EF900895CF93DF93EC0101
:1022500060E880EE0E94BF0460E888EE0E94BF0440
:10226000CE010E94D50FDF91CF910895CF93DF93D8
:10227000EC0180ED0E94CC1560E880EE0E94BF0466
:1022800060E888EE0E94BF04CE010E94D50FDF9166
:10229000CF910895EF920F931F93CF93DF93EC01AB
:1022A00080917C0390917D0385FF0AC080917C031F
:1022B00090917D0384FF04C0CE010E94D50F6EC0B3
:1022C00080917C0390917D0385FF24C0E0E8F3E0DA
:1022D00082818F5F82838281883110F01092820325
:1022E00010928003E12C00918003109181032091D2
:1022F0008203309183034091840350918503609160
:1023000086037091870380ED0E942115CE010E9403
:10231000D50F44C080917C0390917D0384FF27C03A
:1023200080918203811104C087E18093820305C0FC
:10233000E0E8F3E082818150828310928003E12CF7
:1023400000918003109181032091820330918303D7
:1023500040918403509185036091860370918703B7
:1023600080ED0E942115CE010E94D50F17C0E12CEF
:1023700000918003109181032091820330918303A7
:102380004091840350918503609186037091870387
:1023900080ED0E942115CE010E94D50FDF91CF91D3
:1023A0001F910F91EF900895CF93DF93EC0188EE8A
:1023B00093E00E94DD04CE010E944A11DF91CF918B
:1023C0000895EF920F931F93CF93DF93EC018091C9
:1023D0007C0390917D0385FF0AC080917C039091DE
:1023E0007D0384FF04C0CE010E94D50F6CC0809194
:1023F0007C0390917D0385FF24C0E0E8F3E08181B8
:102400008F5F818381818C3310F010928103109251
:102410008003E12C009180031091810320918203BD
:10242000309183034091840350918503609186032A
:102430007091870380ED0E942115CE010E94D50F77
:1024400042C080917C0390917D0384FF25C08091E0
:102450008103811104C08BE38093810305C0E0E810
:10246000F3E0818181508183E12C00918003109100
:102470008103209182033091830340918403509122
:102480008503609186037091870380ED0E9421157A
:10249000CE010E94D50F17C0E12C0091800310914E
:1024A00081032091820330918303409184035091F2
:1024B0008503609186037091870380ED0E9421154A
:1024C000CE010E94D50FDF91CF911F910F91EF9018
:1024D0000895CF93DF93EC0188EE93E00E94DD0432
:1024E000CE010E94E111DF91CF910895EF920F93F9
:1024F0001F93CF93DF93EC0180917C0390917D0338
:1025000085FF0AC080917C0390917D0384FF04C005
:10251000CE010E94D50F8BC02091800330918103A2
:1025200040918203509183036091840370918503ED
:1025300080918603909187030E947002882339F06E
:10254000E0918503F0E0EC5FFC4F208106C0E09154
:102550008503F0E0E05FFC4F208180917C03909147
:102560007D0385FF23C0E0E8F3E084818F5F8483EF
:102570008481281718F481E080938403E12C009172
:102580008003109181032091820330918303409155
:10259000840350918503609186037091870380EDD9
:1025A0000E942115CE010E94D50F41C080917C036D
:1025B00090917D0384FF24C080918403823018F4BD
:1025C0002093840305C0E0E8F3E084818150848394
:1025D000E12C0091800310918103209182033091BE
:1025E0008303409184035091850360918603709129
:1025F000870380ED0E942115CE010E94D50F17C0E0
:10260000E12C00918003109181032091820330918D
:1026100083034091840350918503609186037091F8
:10262000870380ED0E942115CE010E94D50FDF9116
:10263000CF911F910F91EF900895CF93DF93EC010D
:1026400088EE93E00E94DD04CE010E947612DF91B5
:10265000CF910895EF920F931F93CF93DF93EC01E7
:1026600080917C0390917D0385FF0AC080917C035B
:1026700090917D0384FF04C0CE010E94D50F6BC0F2
:1026800080917C0390917D0385FF23C0E0E8F3E017
:1026900085818F5F858385818D3018F081E08093FF
:1026A0008503E12C00918003109181032091820326
:1026B0003091830340918403509185036091860398
:1026C0007091870380ED0E942115CE010E94D50FE5
:1026D00042C080917C0390917D0384FF25C080914E
:1026E0008503823020F48CE08093850305C0E0E808
:1026F000F3E0858181508583E12C00918003109166
:10270000810320918203309183034091840350918F
:102710008503609186037091870380ED0E942115E7
:10272000CE010E94D50F17C0E12C009180031091BB
:10273000810320918203309183034091840350915F
:102740008503609186037091870380ED0E942115B7
:10275000CE010E94D50FDF91CF911F910F91EF9085
:102760000895CF93DF93EC0188EE93E00E94DD049F
:10277000CE010E942A13DF91CF9108950E94D50FB8
:102780000895EF920F931F93CF93DF93EC01809105
:102790007C0390917D0385FF0AC080917C0390911A
:1027A0007D0384FF04C0CE010E94D50F7AC08091C2
:1027B0007C0390917D0385FF2AC0E0E8F3E08681E9
:1027C0009781019697838683868197818433984089
:1027D00030F08CE697E09093870380938603E12C9A
:1027E0000091800310918103209182033091830333
:1027F0004091840350918503609186037091870313
:1028000080ED0E942115CE010E94D50F4AC0809113
:102810007C0390917D0384FF2DC08091860390916D
:1028200087038D36974038F483E398E090938703CD
:102830008093860307C0E0E8F3E0868197810197E3
:1028400097838683E12C009180031091810320916E
:1028500082033091830340918403509185036091FA
:1028600086037091870380ED0E942115CE010E949E
:10287000D50F17C0E12C00918003109181032091A6
:1028800082033091830340918403509185036091CA
:1028900086037091870380ED0E942115CE010E946E
:1028A000D50FDF91CF911F910F91EF900895CF93A6
:1028B000DF93EC0188EE93E00E94DD04CE010E94DC
:1028C000C113DF91CF910895CF93DF93EC010E9464
:1028D000E904CE010E94D50FDF91CF910895209198
:1028E000800320FF03C00E94D50F089568E080E2B6
:1028F00091E00E949D0440E060E080E291E00E944F
:10290000060A40E060E080E291E00E944C0A40E06C
:1029100060E080E291E00E94490F40E060E080E2E8
:1029200091E00E948F0F0895CF92DF92EF92FF9275
:102930000F931F93CF93DF93CDB7DEB761970FB699
:10294000F894DEBF0FBECDBF182F062F89871A86D9
:1029500062E0CE0109960E9471161160198768E045
:10296000CE0109960E94711668E0CE0109960E9478
:102970009D1601112BC08A850E944C02C82E8B85A2
:102980000E944C02D82E8C850E944C02E82EFD84B9
:102990008E850E944C02082F8F858F710E944C02F9
:1029A000182F88890E944C0290E02F8522231CF06A
:1029B0008053984F02C08459984FC982DA82EB82C3
:1029C000FC820D831E8398878F8324C00F3FD1F430
:1029D0007A856B855C854D853E858F85282F2F7187
:1029E000882324F4888990E0996103C0888990E065
:1029F000906279836A835B834C833D832E839887BF
:102A00008F8308C019821A821B821C821D821E823B
:102A100018861F8229813A814B815C816D817E817C
:102A20008F81988561960FB6F894DEBF0FBECDBF3B
:102A3000DF91CF911F910F91FF90EF90DF90CF909A
:102A400008958F929F92BF92CF92DF92EF92FF9262
:102A50000F931F93CF93DF93CDB7DEB761970FB678
:102A6000F894DEBF0FBECDBF688B798BD22EB32E0C
:102A7000C42EF52E8888998889831A82E1103DC07A
:102A8000802F0E945C028B83812F0E945C028C83CA
:102A90008D2D0E945C028F738D83BE828C2D0E94CF
:102AA0005C028F8320ED821627E0920638F48F2D8A
:102AB0000E945C028F718068888705C08F2D0E94FC
:102AC0005C028F71888794013695279536952795F6
:102AD000ABE7B4E10E94571796958795282D34E609
:102AE000839F20191124822F0E945C02898769E04C
:102AF000CE0101960E94711616C03FEFE31213C07B
:102B00000B831C832F732D83BE824F83C401969544
:102B1000879580785F71582B5887898669E0CE0148
:102B200001960E94711661960FB6F894DEBF0FBE33
:102B3000CDBFDF91CF911F910F91FF90EF90DF906C
:102B4000CF90BF909F908F9008951F93CF93DF9366
:102B500000D01F92CDB7DEB7182F89838FE08A830C
:102B600062E0CE0101960E9471161160198363E044
:102B7000CE0101960E94711663E0CE0101960E947B
:102B80009D168A81881F8827881F0F900F900F90AD
:102B9000DF91CF911F910895FF920F931F93CF93D1
:102BA000DF9300D01F92CDB7DEB7182F89830F2E89
:102BB000FFE0FF2EF02DFA8262E0CE0101960E9426
:102BC0007116812F8160898363E0CE0101960E9496
:102BD000711663E0CE0101960E949D160A81198349
:102BE000FA82802F8C7083608B8363E0CE01019624
:102BF0000E947116802F881F8827881F0F900F90C2
:102C00000F90DF91CF911F910F91FF9008955093F6
:102C1000900340938F0310928E0310928D031092B5
:102C2000890392E094BD67BD16BCA99AEEE6F0E078
:102C3000908192609083877085BD0895809189030B
:102C40008823E1F31092890308951F920F920FB623
:102C50000F9211242F933F934F935F936F937F9322
:102C60008F939F93AF93BF93EF93FF9380918D03C7
:102C700090918E03019690938E0380938D03209103
:102C80008D0330918E0380918F0390919003821772
:102C9000930760F4809189038F5F8093890310927A
:102CA0008E0310928D030E94000516BCFF91EF91D8
:102CB000BF91AF919F918F917F916F915F914F9154
:102CC0003F912F910F900FBE0F901F90189581E1AB
:102CD0008093B8008FEF8093BB0084E08093BC00AA
:102CE0000895CF93DF93EC01ECEBF0E0908190FD41
:102CF000FDCF6093500388818093510380FD12C003
:102D0000623080F0FE013196A2E5B3E06250262FDA
:102D100030E02E5F3F4F2C0F3D1F91919D93E217A6
:102D2000F307D9F710924F0388EF8093280185EAC3
:102D30008093BC00DF91CF910895AC01ECEBF0E003
:102D4000908190FDFDCF80914F0380FF11C06623DD
:102D500079F0A1E5B3E0FA016150262F30E02F5F52
:102D60003F4F240F351F9D919193E217F307D9F739
:102D700080914F03817008951F920F920FB60F92AA
:102D800011242F933F938F939F93AF93BF93EF9310
:102D9000FF93E091B9008E2F90E0FC013897E13568
:102DA000F10508F056C0E855FE4F0C9451171092EB
:102DB0004E03E0914E0380915003E81770F481E0D8
:102DC0008E0F80934E03F0E0EF5AFC4F808180938A
:102DD000BB0085E88093BC0043C080914F038160B5
:102DE00080934F0384E98093BC003AC0E0914E0386
:102DF00081E08E0F80934E038091BB00F0E0EF5A8C
:102E0000FC4F808320914E0330E08091500390E08E
:102E100001972817390724F485EC8093BC0020C063
:102E200085E88093BC001CC08091BB00E0914E03FC
:102E3000F0E0EF5AFC4F808380914F0381608093D4
:102E40004F0384E98093BC000BC085EA8093BC00EB
:102E500007C08091B9008093280184E08093BC0072
:102E6000FF91EF91BF91AF919F918F913F912F91E2
:102E70000F900FBE0F901F90189597FB072E16F41A
:102E8000009407D077FD09D00E94661707FC05D093
:102E90003EF4909581959F4F0895709561957F4F71
:102EA0000895EE0FFF1F0590F491E02D0994A29F65
:102EB000B001B39FC001A39F700D811D1124911D0E
:102EC000B29F700D811D1124911D0895AA1BBB1B7B
:102ED00051E107C0AA1FBB1FA617B70710F0A61B1A
:102EE000B70B881F991F5A95A9F780959095BC013B
:082EF000CD010895F894FFCF15
:102EF80020202020202020202020202020202020CA
:102F080020202020202020202020202020202020B9
:102F18002020202020202020F8000302050003059F
:102F28000104060204020054080100D50F02005DE6
:102F3800080200D50F01007B0803006F1401006C24
:102F4800080700D50F010062080100D50F03006CC7
:102F5800080700361103007B0803006F1403007E86
:102F68000801002511070054080500920A0700848B
:102F7800080600DB1007005D080700D50F06007281
:102F88000806004A11060054080500920A05005474
:102F9800080500920A05006C080A00830B050072F8
:102FA800080700D4110A0054080800830B0A00849B
:102FB800080900DB100A005D080A00D50F09007235
:102FC800080900E111090054080800830B0800549F
:102FD800080800830B08006C080D00740C080072C8
:102FE800080A0069120D0054080B00740C0D0084C7
:102FF800080C00DB100D005D080D00D50F0C0072E9
:10300800080C0076120C0054080B00740C0B0054CA
:10301800080B00740C0B006C081000650D0B007297
:10302800080D001D13100054080E00650D100084D3
:10303800080F00DB1010005D081000D50F0F00729C
:10304800080F002A130F0054080E00650D0E0054D7
:10305800080E00650D0E006C081300560E0E007267
:10306800081000B113130054081100560E13008401
:10307800081200641413005D081300BE13120072D6
:10308800081200C113120054081100560E11005402
:10309800081100560E11006C080200E610110072AB
:1030A8000813005714FFFF0000FFFF00004C554EA7
:1030B8004553202020004D41525445532020004DB7
:1030C800494552434F4C45004A55455645532020E3
:1030D80000564945524E4553200053414241444F02
:1030E800202000444F4D494E474F200020202020EB
:1030F80020202020001F1D1F1E1F1E1F1F1E1F1EF9
:103108001F1F1C1F1E1F1E1F1F1E1F1E1F00010525
:1031180004060203070003050104020D09070B0654
:10312800080C0A0F0E00080109020A030B040C051B
:063138000D060E070F005A
:00000001FF
