:100000000C9426020C9443020C9443020C94430279
:100010000C9443020C9443020C9443020C9443024C
:100020000C9443020C9443020C9443020C9443023C
:100030000C9443020C9443020C942F190C94430229
:100040000C9443020C9443020C9443020C9443021C
:100050000C9443020C9443020C9443020C9443020C
:100060000C94C6190C9443029C0387038A038D03E6
:1000700090039303960398089E08A708A708A7086B
:10008000A708A708A708A708A708A708A708A108FE
:100090009B08A108A708AA08FC07FF070208050893
:1000A00008080B080E0811081408A708A708A708D5
:1000B000A708A708A708A70817081A0820082308F0
:1000C00029082C08320838083E08440847084D081B
:1000D00053085908AA08620868086E08710877086A
:1000E0007D08830889088C0892089508A708A70846
:1000F000A708A708A708A70817081A081D082308B3
:1001000026082C082F0835083B08410847084A08EC
:10011000500856085F08620865086B087108740883
:100120007A08800886088C088F089508A708A70811
:10013000A708A708A708A708A708A708A708A70847
:10014000A708A708A708A708A708A708A708A70837
:10015000A708A708A708A708A708A708A708A70827
:10016000A708A708A708A708A708A708A708A70817
:10017000A708A708A708A708A708A708A7085C0852
:100180005C08A708A708A708A708A708A708A70842
:10019000A708A708A708A708A708A708A708A708E7
:1001A000A708A708A708A708A708A4086F0978093F
:1001B000A509B709B709B109B709A20981098409D5
:1001C00087098A097E0972097B099009BA09B8086A
:1001D000BB08BE08C108C408C708CA08CD08D008B3
:1001E000B709B7099C099F0999097509B409D60887
:1001F000DC08E208E808EE08F408FA080009060935
:100200000C09120918091E092409BA093309390908
:100210003F0945094B09510957095D0960096609FC
:100220006C09810993098409B709B709AB09D30897
:10023000D908DF08E508EB08F108F708FD0803090D
:1002400009090F0915091B0921092D09300936096A
:100250003C09420948094E0954095A0960096309D1
:100260006909B7099609B7097209B709B709B70942
:10027000B709B709B709B709B709B709B709B7097E
:10028000B709B709B709B709B709B709B709B7096E
:10029000B709B709B709B709B709B709B709B7095E
:1002A000B709B709B709B709B709B709B709B7094E
:1002B000B709B70927092A09B709B709B709B7095B
:1002C000B709B709AE09B709B709B709B709B70937
:1002D000B709B709A809B709B7097B09B709B70969
:1002E000B709B709B709B709B709B709B709B7090E
:1002F000B709B709B709B709B709B709B709B709FE
:10030000B709B709B709B709B709B709B709B709ED
:10031000B709B709B709B709B709B709B709B709DD
:10032000B709B709B709B709B709B709B709B709CD
:10033000B709B709B709B709B709B709B709B709BD
:10034000B709B709B709B709B709B709B7098D09D7
:10035000E119331A331A331A331A331A331A331A88
:10036000E119331A331A331A331A331A331A331A78
:10037000E319331A331A331A331A331A331A331A66
:10038000331A331A331A331A331A331A331A331A05
:10039000E319331A331A331A331A331A331A331A46
:1003A000331A331A331A331A331A331A331A331AE5
:1003B0002F1A331A331A331A331A331A331A331AD9
:1003C0000C1A331A331A331A331A331A331A331AEC
:1003D000331A331A331A331A331A331A331A331AB5
:1003E000001A331A331A331A331A331A331A331AD8
:1003F0001E1A08000000BE922449123EABAAAA2A87
:10040000BECDCCCC4C3E00000080BEABAAAAAA3E1A
:1004100000000000BF000000803F00000000000856
:100420004178D3BB4387D1133D190E3CC3BD4282F3
:10043000AD2B3E68EC8276BED98FE1A93E4C80EFB1
:10044000FFBE01C4FF7F3F000000000011241FBE5B
:10045000CFEFD8E0DEBFCDBF13E0A0E0B1E0E4E233
:10046000FBE302C005900D92A634B107D9F723E053
:10047000A6E4B3E001C01D92AC39B207E1F70E94D7
:10048000F50A0C94901D0C94000021E030E002C0AD
:10049000220F331F6A95E2F7206420937C00877057
:1004A000806880937A000895ECE7F0E09081907F77
:1004B0008F70892B8083EAE7F0E0808180648083FD
:1004C000808186FDFDCF80917C0085FF04C08091F6
:1004D000790090E00895209178008091790090E073
:1004E000982F882788279370822B08958F70805DBE
:1004F0000895282F207F30E035952795359527954D
:1005000035952795922F990F990F290F8F70820F8C
:1005100008959DEC899F912D112496959695969519
:1005200020E1929FA0011124990F292F220F220F61
:10053000920F891B8F70842B0895CF93DF93CDB7D3
:10054000DEB728970FB6F894DEBF0FBECDBF8F83FE
:1005500098874F8158859A01329522952F702327CD
:100560003F702327AEE3BAE00E94531D20E931E03B
:10057000BC01629FC001639F900D729F900D11247A
:1005800048175907D9F09A0136952795369527953A
:10059000ABE7B4E10E94531D9695879564E6689F8A
:1005A0009001699F300D11244217530749F04370A1
:1005B000552781E0452B29F080E003C081E001C090
:1005C00080E028960FB6F894DEBF0FBECDBFDF9156
:1005D000CF9108951F93CF93DF93CDB7DEB76C977C
:1005E0000FB6F894DEBF0FBECDBF2D8B3E8B4F8B69
:1005F000588F462F698F172F7A8F8B8F9C8F2B8D5B
:100600003C8D8CE0E9E2F1E0DE01199601900D925B
:100610008A95E1F781E090E0733010F080E090E09F
:10062000281B390B50E041505109420F531FF9016B
:10063000F695E795F695E7954E0F5F1F3295229553
:100640002F7023273F702327AEE3BAE00E94531D8B
:10065000480F591FDE01A10FB11D18968C91480F4C
:10066000511D9F01ABE7B4E10E94531D96958795FC
:10067000481B590B9A01A3E9B4E20E94531D281BA1
:10068000390B36952795820F931F969587959695EA
:1006900087959C01220F331F220F331F220F331F18
:1006A000B901681B790B461B570B4F5F488F88E0D9
:1006B000FE017596DE01119601900D928A95E1F783
:1006C00029813A814B815C816D817E818F81988502
:1006D0006C960FB6F894DEBF0FBECDBFDF91CF9101
:1006E0001F910895CF93DF93CDB7DEB728970FB64C
:1006F000F894DEBF0FBECDBF852F90E0FC0131978F
:10070000E730F105B0F4EC5CFF4F0C944D1D86EC26
:1007100092E014C08FEC92E011C088ED92E00EC020
:1007200081EE92E00BC08AEE92E008C083EF92E087
:1007300005C08CEF92E002C08DEB92E028960FB6D8
:10074000F894DEBF0FBECDBFDF91CF9108954F92D9
:100750005F926F927F928F929F92AF92BF92CF9251
:10076000DF92EF92FF920F931F93CF93DF93E22ECE
:10077000E5E6F3E080831182613031F088F0623089
:1007800009F1633029F18DC060E187E693E00E94B2
:100790005C0A402F6EE087E693E00E94A60AE0C064
:1007A00060E187E693E00E945C0A4E2D6EE087E6EA
:1007B00093E00E94A60A402F6FE087E693E00E9434
:1007C000A60ACEC060E187E693E00E94680AC8C02E
:1007D000FA0180819281908391819283818380E26A
:1007E000878360E187E693E00E945C0A87E693E0F6
:1007F0000E94740A0F2EFDE1CF2EF3E0DF2EF02DC4
:10080000C0E010E05801F601C801019002C09595C2
:1008100087950A94E2F76F0180FF07C041E06C2FD3
:1008200087E693E00E94890A06C041E06C2F87E6C4
:1008300093E00E94970ACE5FCE3021F7AA0CAB2C32
:10084000AA1CBB08B194AB2839F040E06CE087E605
:1008500093E00E94890A06C040E06CE087E693E0DE
:100860000E94970AE0FE07C041E063E087E693E05C
:100870000E94890A06C041E063E087E693E00E9497
:10088000970AE1FE07C041E065E087E693E00E9439
:10089000890A66C041E065E087E693E00E94970A16
:1008A0005FC04A010F2EF5E6CF2EF3E0DF2EF02DCC
:1008B0003601EA01A12CB12CE22EF12C89910E9483
:1008C000F107F3018283270197010A2C02C03595B5
:1008D00027950A94E2F720FF03C08068828303C053
:1008E0008F77F3018283FFEFAF1ABF0A82E0680EB1
:1008F000711C94E0A916B10409F70230B9F5E5E6D8
:10090000F3E08481806884838681806886832EC03A
:10091000F40181914F010E94F107F6018287920153
:100920000C2E02C0359527950A94E2F720FF04C0EB
:100930008068F601828703C08F77F601828721964F
:10094000F2E0CF0ED11CC430D10511F7023041F4D2
:10095000E5E6F3E0848580688487868580688687FD
:1009600062E185E693E00E947B1903C0C0E0D0E01D
:10097000CFCFDF91CF911F910F91FF90EF90DF903C
:10098000CF90BF90AF909F908F907F906F905F902F
:100990004F900895FC019C01285F3F4F80E28193B6
:1009A000E217F307E1F708951F93CF93DF93182F12
:1009B000C5E6D3E0888381E2898362E0CE010E94AC
:1009C0007B19188381E8898362E0CE010E947B193C
:1009D000DF91CF911F910895623829F0643819F0A2
:1009E000663809F060E8E5E6F3E0808361686183DA
:1009F00062E0CF010E947B1908956F3008F06FE02C
:100A0000E5E6F3E08083606E618362E0CF010E94DF
:100A10007B190895FC01958120917703822F8170C5
:100A200020FD97C035EF390F323008F4E9C03FEFB1
:100A3000390F323008F4E4C03CEF390F363008F497
:100A4000D6C09330C1F583818730B1F424818FE122
:100A500090E0821B910907977CF4428150E020913D
:100A6000770326952695269530E081E042175307B7
:100A70000CF0C6C080E00895848193812FE130E0BE
:100A8000281B310985E2989F412D1124892F841B51
:100A90008695840F86958695482F440F440F440F02
:100AA000481B941B290F311D81E0273031050CF4C0
:100AB000A7C080E008959A3009F0A2C083818730F2
:100AC00049F534818FE190E0831B9109079714F574
:100AD00022FF11C0428150E0209177032695269590
:100AE000269530E02F5F3F4F81E0241735070CF04B
:100AF00087C080E00895428150E0209177032695D9
:100B00002695269530E081E0241735070CF078C053
:100B100080E00895848193812FE130E0281B310922
:100B200085E2989F412D1124892F841B8695840F7F
:100B300086958695482F440F440F440F481B941BFD
:100B4000290F311D81E0273031050CF059C080E0BC
:100B500008959C3009F44DC08FEF890F823008F45E
:100B60004AC08CEF890F873008F447C09330E1F416
:100B70008381873061F48481883048F084818F30AC
:100B800030F4928181E09230D8F580E0089524819C
:100B9000838130E0235F3F4F281B310981E02531FD
:100BA000310574F580E008959B3049F583818730E5
:100BB00089F48481883070F422FF06C0928181E03C
:100BC0009430F0F080E00895928181E09330C0F09D
:100BD00080E008952481838130E02A5F3F4F281B05
:100BE000310981E0273031055CF080E0089581E033
:100BF000089580E0089580E0089581E0089580E000
:100C00000895FC0190917703892F827091FFBAC0FB
:100C1000892F817090FD5BC0292F247092FD28C020
:100C20008581833009F097C08381873009F095C0B2
:100C300034818FE190E0831B910907970CF08FC0FE
:100C4000928180917703869586958695981389C0C1
:100C50008181811188C09081911194C082818F5FC0
:100C600082838091770384608093770381E0089585
:100C700095819A3009F086C09381973009F082C03F
:100C800094812FE130E0291B3109273031050CF028
:100C900079C0428150E020917703269526952695CC
:100CA00030E02F5F3F4F4217530709F06BC091812F
:100CB000911168C08081811158C0828181508283E6
:100CC000809177038B7F8093770381E00895892F4C
:100CD000847092FD24C09581933009F053C09381B4
:100CE000973009F04FC09481983008F44BC094813C
:100CF0009F3008F047C09281923009F043C0918143
:100D0000911140C08081811132C082818F5F8283C6
:100D10008091770384608093770381E008958581D3
:100D20008B3039F58381873031F58481883028F51F
:100D30008281823021F58181811123C090819111BE
:100D400021C0828181508283809177038B7F809341
:100D5000770381E00895822F0895822F0895822FCE
:100D60000895822F0895822F0895892F0895892F3D
:100D7000089580E0089580E0089580E0089580E07F
:100D8000089580E00895CF93DF939C0190917703BD
:100D9000892F827091FF24C0E901C9010E940A05D0
:100DA000882371F08091770382FD19C08A818F5F5B
:100DB0008A838091770384608093770381E010C0F9
:100DC00090917703892F847092FF0AC08A818150A5
:100DD0008A83892F8B7F8093770381E001C080E035
:100DE000DF91CF91089540917703642F679566272F
:100DF000679541FB222720F930E00024369527959E
:100E00000794369527950794322F202D262B642F93
:100E1000669566956695262B42FB882780F990E0BB
:100E2000880F991F82959295907F9827807F9827A9
:100E3000622F682BF999FECF8AE090E00E947E1D18
:100E400081E00895CF93DF93EC01F999FECF8AE01A
:100E500090E00E94761D282F221F2227221F9091AA
:100E6000770320FB90F9282F22952695269523704D
:100E700020FB91F9282F22952695277020FB92F9C7
:100E8000880F880F880F9770982B90937703CE0167
:100E90000E94C306882319F00E94F30601C081E076
:100EA000DF91CF9108950E940106882319F00E94D6
:100EB000F306089581E0089590937B0380937A036D
:100EC000109279031092780381E080937C03089557
:100ED00010927C03089580917C03882379F0F89424
:100EE000409178035091790381E020917A03309109
:100EF0007B034217530708F480E0789408958091AB
:100F00007C03882381F08091780390917903019686
:100F100071F0809178039091790301969093790311
:100F200080937803089510927903109278030895BE
:100F3000FC01718360835383428335832483089546
:100F40000F931F93CF93DF938C01FC01C281D38158
:100F5000888199819923ECF0F8012081318128174B
:100F6000390791F4EA81FB81C8010995882361F072
:100F70008C819D81F80191838083EE81FF81309780
:100F800041F0C801099505C0289688819981992367
:100F90001CF7DF91CF911F910F91089510927E035E
:100FA00010927D0385B78F7E85BF84B184B987B1E8
:100FB00087B98AB1836F8AB985B1836385B988B1EE
:100FC00088B98BB1836F8BB9089586B189B190E0F0
:100FD00080959095837F992790937E0380937D03DE
:100FE000089590E0FC01B097EB39F10508F0AFC02F
:100FF000E55CFF4F0C944D1D86E090E008958BE575
:1010000090E008958FE490E0089586E690E00895DA
:101010008DE690E008958DE790E0089587E090E0F8
:1010200008958FE790E008958FE690E0089587E7B0
:1010300090E008958CE790E0089588E590E00895A9
:1010400089E390E008958EE590E008958BE790E0C5
:10105000089589E790E0089581E790E008958FE68C
:1010600090E008958DE390E0089584E790E008957E
:1010700086E790E0089580E190E0089580E390E0B5
:1010800008958EE190E008958FE190E0089580E763
:1010900090E0089580E390E0089588E390E008955B
:1010A00084E590E0089587E390E0089584E590E07A
:1010B000089587E390E0089585E590E008958CE534
:1010C00090E0089583E790E008958CED90E0089516
:1010D0008FEB90E0089580E590E0089581E390E043
:1010E00008958DE690E0089588E790E0089581E303
:1010F00090E008958CE190E008958EE390E00895EB
:101100008CE190E008958EE390E008958CE990E002
:1011100008958EEB90E0089586E790E008958EE6BE
:1011200090E008958EE690E008958DE690E00895B1
:1011300080E090E0089580E490E0089582E890E0F7
:10114000089580E890E0089583E690E0089588E0AF
:1011500090E008958FE390E0089590E0FC01B0974F
:10116000E23DF10508F003C1EA52FF4F0C944D1D1A
:1011700086E091E008958BE192E208958FE092E09D
:10118000089586E292E208958DE292E208958DE359
:1011900092E2089587E090E008958FE392E2089547
:1011A0008FE292E208958FE192E2089587E392E25E
:1011B00008958CE392E208958FE89AE0089588E11B
:1011C00092E2089589E390E008958EE092E2089516
:1011D0008FE898E008958BE392E2089589E390E226
:1011E000089581E390E2089581E392E2089587E211
:1011F00096E208958DE392E0089584E392E20895E3
:1012000086E392E2089580E898E0089589E898E0FE
:10121000089586E094E008958FE190E0089580E8D5
:101220009DE0089580E395E2089580E898E00895B0
:1012300088E390E0089584E19AE2089586E791E0DA
:10124000089584E192E2089586E794E0089584E1A8
:1012500092E2089587E794E008958CE192E2089580
:1012600083E89AE0089583E392E2089587E292E2A8
:1012700008958FE394E0089580E190E2089583E378
:1012800096E208958DE492E008958DE292E2089549
:1012900088E390E2089581E898E008958CE190E079
:1012A00008958EE390E0089580E190E1089580E351
:1012B00091E1089584E194E1089586E394E108952D
:1012C00080E495E108958EE892E0089580E499E045
:1012D000089589E093E1089589E091E1089580E01F
:1012E00090E0089580E092E2089583E09AE80895FE
:1012F00082E090E8089580E090E8089580E090E131
:10130000089589E390E008958FE090E0089580ECDF
:101310009DE1089580E89AE2089588E89AE20895A8
:1013200080E091E1089580E494E0089580E898E0F9
:10133000089580E490E1089580E095E0089588E0C4
:1013400092E2089580E890E0089582E890E00895A0
:1013500080E091E0089580E490E0089584E092E2D6
:10136000089580E697E308958FE198E2089588E074
:1013700090E008958FE390E008952F923F924F926E
:101380005F926F927F928F929F92AF92BF92CF9215
:10139000DF92EF92FF920F931F93CF93DF93CDB71E
:1013A000DEB769970FB6F894DEBF0FBECDBF8E8B48
:1013B0009F8B6B8B398F288F0C8B1D8B662309F4C9
:1013C00060C0482E592E498B5A8B312C5201F201A4
:1013D0001082E989FA892190FA8BE98B8824839419
:1013E000912C022C02C0880C991C0A94E2F7CE01C1
:1013F00001967C01CC88DD8800E010E0622C712C25
:10140000311008C0F6018081E88DF98D0995F7014A
:1014100091838083021590F4F70180819181882166
:1014200099219301201B310B02C0969587952A952F
:10143000E2F7F5019081892B808311C0F70180814B
:1014400091818821992198012619370902C0880FB6
:10145000991F2A95E2F7F5019081892B80830F5F10
:101460001F4FF2E0EF0EF11C8FEFC81AD80A0830B8
:10147000110531F633949FEF491A590AEB89E311AC
:10148000A5CF8E899F8969960FB6F894DEBF0FBEEF
:10149000CDBFDF91CF911F910F91FF90EF90DF9023
:1014A000CF90BF90AF909F908F907F906F905F9004
:1014B0004F903F902F9008950F931F938A0121EF33
:1014C00037E045E353E00E94BD091F910F91089555
:1014D0000F931F938A012DEA38E045E253E00E9402
:1014E000BD091F910F910895BC01FC01AC01405F43
:1014F0005F4F9081292F2295269526952370218371
:10150000990F990F90833296E417F50791F7CB0165
:101510000895FC01E60FF11D21E030E002C0220F2A
:10152000331F4A95E2F73081232B20830895FC0175
:10153000E60FF11D21E030E002C0220F331F4A9573
:10154000E2F720953081232320830895FC01E60FE4
:10155000F11D2081422B4083089520917D0330911D
:101560007E0381E0232B09F080E0089580917D03C4
:1015700090917E03089520917D0330917E032F7713
:1015800081E0232B09F080E0089580917D03909104
:101590007E038074089520917D0330917E0381E065
:1015A000232B09F480E0089580919303089581E04E
:1015B00090919303911180E0089580917D03909123
:1015C0007E03892B41F00E946B0791E0811101C0DD
:1015D00090E0892F089580E00895809181038093A1
:1015E000920381E0809389030895CF93DF93CDB771
:1015F000DEB7CE58D1400FB6F894DEBF0FBECDBFD8
:1016000088E891E0E5E3F1E0DE01179601900D92A4
:101610000197E1F720E030E0AE01495F5F4F61E004
:1016200070E0CE0101960E9498070E94CE070E94AA
:1016300071191092910360E087E00E94450278944E
:1016400080EE0E94D40488EE0E94D40484EE0E94AE
:10165000D40486EE0E94D40400914C0320914D03E3
:1016600048E151E060E080EE0E94A70300914A0348
:1016700020914B0340E151E064E088EE0E94A70313
:10168000009148032091490348E051E062E084EE74
:101690000E94A703009146032091470340E051E0D8
:1016A00063E086EE0E94A70380E00E9454020024BB
:1016B000880F991F001C880F991F001C892F902DDF
:1016C0008F70809391036091910380EE0E94FD04DE
:1016D0008091910390E00296409724F460919103E9
:1016E0006E5F02C06091910388EE0E94FD046091DC
:1016F000910384EE0E94FD046091910386EE0E94A6
:10170000FD0441E050E06EE484E00E9411190E9463
:10171000ED0A60E080ED0E949E17E1E8F3E020838F
:101720003183428353836483758386839783CF0198
:101730000E94220701E813E060E080ED0E949E17FE
:10174000F8012083318342835383648375838683C6
:10175000978380ED0E94AF18809393030E947F07C8
:101760000E94E507C8010E94530780E00E945402CE
:101770000024880F991F001C880F991F001C892FB7
:10178000902D8F70809391036091910380EE0E9461
:10179000FD048091910390E00296409724F46091BB
:1017A00091036E5F02C06091910388EE0E94FD0478
:1017B0006091910384EE0E94FD046091910386EE96
:1017C0000E94FD04CE0101960E94A0070E942819E4
:1017D000B3CF8091810390919203891769F0809330
:1017E000920380918903882324F481E08093890304
:1017F00003C0880F809389038091890308950F9314
:101800001F93CF93DF930AE813E024E933E04CE819
:1018100053E068EC70E081E00E9491170E94A31CE5
:101820000E94261B7093800360937F03772384F1CB
:101830006436710574F0CB01992764E670E00E946C
:10184000171D862F0E9489020E9476028093200134
:1018500003C080E28093200180917F0390918003F8
:101860008A3091054CF00E94890282958F700E9407
:1018700076028093210103C080E280932101809150
:101880007F030E9489020E9476028093220124C075
:1018900022273327261B370B2A30310574F0C0E28C
:1018A000D1E02DE22883862F81950E9489028295BE
:1018B0008F700E947602898306C0E0E2F1E080E248
:1018C00080838DE2818380917F0381950E948902CC
:1018D0000E94760280932201E0E2F1E08AEB8383AA
:1018E00083E4848380E2858386838783CF01DF91CD
:1018F000CF911F910F9108950F931F93CF93DF9373
:10190000FC0130812091180132130FC0DC011196C7
:10191000E9E1F1E0C0E2D1E05D913191531307C0FC
:10192000EC17FD07C9F710E003C01FEF01C01FEF60
:1019300020914D03261307C020914C03241305C0AA
:101940001123D1F003C01FEF01C01FEFDC01E8E15C
:10195000F1E0C0E2D1E08D918193EC17FD07D9F75A
:10196000042F262F60934D0340934C0348E151E030
:1019700060E080EE0E94A703812FDF91CF911F913D
:101980000F9108950F931F93CF93DF93FC01308144
:101990002091100132130FC0DC011196E1E1F1E05A
:1019A000C8E1D1E05D913191531307C0EC17FD07F9
:1019B000C9F710E003C01FEF01C01FEF20914B03D8
:1019C000261307C020914A03241305C01123D1F028
:1019D00003C01FEF01C01FEFDC01E0E1F1E0C8E14F
:1019E000D1E08D918193EC17FD07D9F7042F262FB5
:1019F00060934B0340934A0340E151E064E088EE7A
:101A00000E94A703812FDF91CF911F910F9108951D
:101A10000F931F93CF93DF930E94680780918103F8
:101A200080FF15C001E813E0F80182810E9489025D
:101A300082958F700E947602C0E2D1E08883F8011F
:101A400082810E9489020E947602898305C0E0E2B9
:101A5000F1E080E280838183C1E8D3E089810E9444
:101A6000890282958F700E94760200E211E0F801EF
:101A7000828389810E9489020E947602F801838311
:101A800048814170440F60E0C8010E94C20C8C8103
:101A90000E94890282958F700E947602F8018083ED
:101AA0008C810E9489020E947602F80181838D81D7
:101AB0000E94890282958F700E947602F8018283CB
:101AC0008D810E9489020E947602F80183832E8113
:101AD0003F81369527953695279536952795A5EC20
:101AE000B0E20E94531D929582958F7089279F7056
:101AF00089270E947602F80184834E815F819A01D2
:101B0000369527953695279536952795A5ECB0E21D
:101B10000E94531D929582958F7089279F70892707
:101B200068EE73E0869F9001879F300D969F300D81
:101B30001124CA01821B930B9C013695279536957B
:101B40002795ABE7B4E10E94531D969587950E94B7
:101B50007602F80185834E815F819A01369527953B
:101B600036952795ABE7B4E10E94531D969587956E
:101B700064E6689F9001699F300D1124CA01821BA1
:101B8000930B9C01ADECBCEC0E94531D9695879580
:101B900096958795969587950E947602F80186839B
:101BA0004E815F819A01ADECBCEC0E94531D96956D
:101BB000879596958795969587959C01220F331F5B
:101BC000880F991F880F991F880F991F820F931FE5
:101BD000F42FF81B8F2F0E947602F801878340E0D4
:101BE0006AE0C8010E947C0CDF91CF911F910F9198
:101BF00008950F931F93CF93DF930E9468078091FE
:101C0000810380FF15C001E813E0F80181810E9483
:101C1000890282958F700E947602C0E2D1E08A83A9
:101C2000F80181810E9489020E9476028B8305C09F
:101C3000E0E2F1E080E282838383C1E8D3E08A813D
:101C40000E94890282958F700E94760200E211E064
:101C5000F80180838A810E9489020E947602F8013D
:101C6000818348814170440F60E0C8010E94C20C2A
:101C70008C810E94890282958F700E947602F80101
:101C800080838C810E9489020E947602F801818300
:101C90008D810E94890282958F700E947602F801E0
:101CA00082838D810E9489020E947602F8018383DB
:101CB0002E813F8136952795369527953695279520
:101CC000A5ECB0E20E94531D929582958F708927F2
:101CD0009F7089270E947602F80184834E815F817C
:101CE0009A01369527953695279536952795A5EC33
:101CF000B0E20E94531D929582958F7089279F7044
:101D0000892768EE73E0869F9001879F300D969F2C
:101D1000300D1124CA01821B930B9C013695279527
:101D200036952795ABE7B4E10E94531D96958795AC
:101D30000E947602F80185834E815F819A01369573
:101D4000279536952795ABE7B4E10E94531D9695EC
:101D5000879564E6689F9001699F300D1124CA0140
:101D6000821B930B9C01ADECBCEC0E94531D96951D
:101D7000879596958795969587950E947602F801A6
:101D800086834E815F819A01ADECBCEC0E94531DAD
:101D90009695879596958795969587959C01220FA0
:101DA000331F880F991F880F991F880F991F820F63
:101DB000931FF42FF81B8F2F0E947602F801878360
:101DC00040E06AE0C8010E947C0CDF91CF911F9136
:101DD0000F9108950F931F93CF93DF930E9468078D
:101DE0008091810380FF15C001E813E0F801848130
:101DF0000E94890282958F700E947602C0E2D1E033
:101E00008883F80184810E9489020E947602898376
:101E100005C0E0E2F1E080E280838183C1E8D3E0A5
:101E20008D810E94890282958F700E94760200E265
:101E300011E0F80182838D810E9489020E9476025E
:101E4000F80183832E813F81369527953695279516
:101E500036952795A5ECB0E20E94531D9295829588
:101E60008F7089279F7089270E947602F8018483EA
:101E70004E815F819A01369527953695279536953F
:101E80002795A5ECB0E20E94531D929582958F7024
:101E900089279F70892768EE73E0869F9001879F4E
:101EA000300D969F300D1124CA01821B930B9C01AB
:101EB0003695279536952795ABE7B4E10E94531DDB
:101EC000969587950E947602F80185834E815F8101
:101ED0009A013695279536952795ABE7B4E10E9490
:101EE000531D9695879564E6689F9001699F300D14
:101EF0001124CA01821B930B9C01ADECBCEC0E9427
:101F0000531D9695879596958795969587950E94EA
:101F10007602F80186834E815F819A01ADECBCECBC
:101F20000E94531D969587959695879596958795CA
:101F30009C01220F331F880F991F880F991F880F4C
:101F4000991F820F931FF42FF81B8F2F0E94760288
:101F5000F801878340E06AE0C8010E947C0C8A8116
:101F60000E94890282958F700E947602F801808318
:101F70008A810E9489020E947602F8018183898108
:101F80000E94890282958F700E947602F8018283F6
:101F900089810E9489020E947602F8018383488128
:101FA0004170440F60E0C8010E94C20CDF91CF91E4
:101FB0001F910F9108950F931F93CF93DF930E946A
:101FC00068078091810380FF15C001E813E0F801E4
:101FD00085810E94890282958F700E947602C0E2FC
:101FE000D1E08A83F80185810E9489020E947602ED
:101FF0008B8305C0E0E2F1E080E282838383C1E865
:10200000D3E08C810E94890282958F700E947602B3
:1020100000E211E0F80180838C810E9489020E9415
:102020007602F80181832E813F813695279536957A
:10203000279536952795A5ECB0E20E94531D929501
:1020400082958F7089279F7089270E947602F801F8
:1020500084834E815F819A01369527953695279521
:1020600036952795A5ECB0E20E94531D9295829576
:102070008F7089279F70892768EE73E0869F900193
:10208000879F300D969F300D1124CA01821B930B40
:102090009C013695279536952795ABE7B4E10E94CC
:1020A000531D969587950E947602F80185834E818F
:1020B0005F819A013695279536952795ABE7B4E170
:1020C0000E94531D9695879564E6689F9001699FCD
:1020D000300D1124CA01821B930B9C01ADECBCECAA
:1020E0000E94531D96958795969587959695879509
:1020F0000E947602F80186834E815F819A01ADECE1
:10210000BCEC0E94531D969587959695879596955C
:1021100087959C01220F331F880F991F880F991FE5
:10212000880F991F820F931FF42FF81B8F2F0E9487
:102130007602F801878340E06AE0C8010E947C0CC7
:102140008A810E94890282958F700E947602F8012E
:1021500080838A810E9489020E947602F80181832D
:1021600089810E94890282958F700E947602F8010F
:10217000828389810E9489020E947602F80183830A
:1021800048814170440F60E0C8010E94C20CDF9199
:10219000CF911F910F9108950F931F93CF93DF93CA
:1021A0000E9468078091810380FF8DC001E813E0E1
:1021B000F8012681378136952795369527953695EE
:1021C0002795A5ECB0E20E94531D929582958F70E1
:1021D00089279F7089270E947602C0E2D1E08C8314
:1021E000F801468157819A013695279536952795AE
:1021F00036952795A5ECB0E20E94531D92958295E5
:102200008F7089279F70892768EE73E0869F900101
:10221000879F300D969F300D1124CA01821B930BAE
:102220009C013695279536952795ABE7B4E10E943A
:10223000531D969587950E9476028D83F8014681FD
:1022400057819A013695279536952795ABE7B4E1E6
:102250000E94531D9695879564E6689F9001699F3B
:10226000300D1124CA01821B930B9C01ADECBCEC18
:102270000E94531D96958795969587959695879577
:102280000E9476028E83F801468157819A01ADEC57
:10229000BCEC0E94531D96958795969587959695CB
:1022A00087959C01220F331F880F991F880F991F54
:1022B000880F991F820F931FF42FF81B8F2F0E94F6
:1022C00076028F8307C0E0E2F1E080E284838583B9
:1022D00086838783C1E8D3E08C810E94890282953E
:1022E0008F700E94760200E211E0F80180838C81F9
:1022F0000E9489020E947602F80181838D810E94EA
:10230000890282958F700E947602F80182838D8106
:102310000E9489020E947602F801838340E06AE00D
:10232000C8010E947C0C8A810E94890282958F706C
:102330000E947602F80180838A810E9489020E94AD
:102340007602F801818389810E94890282958F70CB
:102350000E947602F801828389810E9489020E948C
:102360007602F801838348814170440F60E0C80120
:102370000E94C20CDF91CF911F910F9108950F938E
:102380001F93CF93DF93FC0130812091080132131A
:102390000FC0DC011196E9E0F1E0C0E1D1E05D9110
:1023A0003191531307C0EC17FD07C9F710E003C0C4
:1023B0001FEF01C01FEF20914903261307C0209192
:1023C0004803241305C01123D1F003C01FEF01C03F
:1023D0001FEFDC01E8E0F1E0C0E1D1E08D918193F5
:1023E000EC17FD07D9F7042F262F6093490340937C
:1023F000480348E051E062E084EE0E94A703812F89
:10240000DF91CF911F910F9108950F931F93CF9359
:10241000DF93FC0130812091000132130FC0DC01F9
:102420001196E1E0F1E0C8E0D1E05D913191531304
:1024300007C0EC17FD07C9F710E003C01FEF01C08C
:102440001FEF20914703261307C020914603241352
:1024500005C01123D1F003C01FEF01C01FEFDC0145
:10246000E0E0F1E0C8E0D1E08D918193EC17FD0749
:10247000D9F7042F262F609347034093460340E08B
:1024800051E063E086EE0E94A703812FDF91CF9198
:102490001F910F9108950F931F93CF93DF93C1E87E
:1024A000D3E08C810E94890282958F700E9476020F
:1024B00000E211E0F80180838C810E9489020E9471
:1024C0007602F80181838D810E94890282958F7046
:1024D0000E947602F80182838D810E9489020E9407
:1024E0007602F80183832E813F81369527953695B4
:1024F000279536952795A5ECB0E20E94531D92953D
:1025000082958F7089279F7089270E947602F80133
:1025100084834E815F819A0136952795369527955C
:1025200036952795A5ECB0E20E94531D92958295B1
:102530008F7089279F70892768EE73E0869F9001CE
:10254000879F300D969F300D1124CA01821B930B7B
:102550009C013695279536952795ABE7B4E10E9407
:10256000531D969587950E947602F80185834E81CA
:102570005F819A013695279536952795ABE7B4E1AB
:102580000E94531D9695879564E6689F9001699F08
:10259000300D1124CA01821B930B9C01ADECBCECE5
:1025A0000E94531D96958795969587959695879544
:1025B0000E947602F80186834E815F819A01ADEC1C
:1025C000BCEC0E94531D9695879596958795969598
:1025D00087959C01220F331F880F991F880F991F21
:1025E000880F991F820F931FF42FF81B8F2F0E94C3
:1025F0007602F801878340E06AE0C8010E947C0C03
:1026000068E0C8010E94CA048A810E9489028295FA
:102610008F700E947602F80180838A810E9489026D
:102620000E947602F801818389810E948902829545
:102630008F700E947602F801828389810E9489024C
:102640000E947602F801838348814170440F60E064
:10265000C8010E94C20C20918103309182034091F5
:102660008303509184036091850370918603809168
:102670008703909188030E94720340E060E00E940B
:10268000BF110E94E90BC82F0E94FF0B4C2F60E086
:102690000E940512DF91CF911F910F910895CF9362
:1026A000DF93EC010E946807CE010E944B12DF917C
:1026B000CF910895EF920F931F93CF93DF93EC0187
:1026C00020918103309182034091830350918403D0
:1026D00060918503709186038091870390918803B0
:1026E0000E94EA02E1E8F3E02083318342835383CE
:1026F0006483758386839783E12C00918103109115
:10270000820320918303309184034091850350918B
:102710008603609187037091880380ED0E942B18D7
:10272000CE010E944B12DF91CF911F910F91EF903C
:102730000895CF93DF93EC0160E880EE0E94EC04F3
:1027400060E888EE0E94EC04CE010E944B12DF91FB
:10275000CF910895CF93DF93EC0180ED0E94D618BE
:1027600060E880EE0E94EC0460E888EE0E94EC04D1
:10277000CE010E944B12DF91CF910895EF920F93FB
:102780001F93CF93DF93EC0180917D0390917E03A3
:1027900085FF0AC080917D0390917E0384FF04C071
:1027A000CE010E944B126EC080917D0390917E03FA
:1027B00085FF24C0E1E8F3E082818F5F828382811C
:1027C000883110F01092830310928103E12C009164
:1027D00081031091820320918303309184034091FF
:1027E000850350918603609187037091880380ED83
:1027F0000E942B18CE010E944B1244C080917D0391
:1028000090917E0384FF27C080918303811104C0CF
:1028100087E18093830305C0E1E8F3E08281815082
:10282000828310928103E12C009181031091820335
:102830002091830330918403409185035091860356
:10284000609187037091880380ED0E942B18CE0160
:102850000E944B1217C0E12C00918103109182035A
:102860002091830330918403409185035091860326
:10287000609187037091880380ED0E942B18CE0130
:102880000E944B12DF91CF911F910F91EF9008950D
:10289000CF93DF93EC0188EE93E00E945C07CE01BA
:1028A0000E94BE13DF91CF910895EF920F931F9373
:1028B000CF93DF93EC0180917D0390917E0385FFA0
:1028C0000AC080917D0390917E0384FF04C0CE01F5
:1028D0000E944B126CC080917D0390917E0385FF16
:1028E00024C0E1E8F3E081818F5F818381818C33B3
:1028F00010F01092820310928103E12C0091810369
:1029000010918203209183033091840340918503C9
:1029100050918603609187037091880380ED0E9437
:102920002B18CE010E944B1242C080917D039091E2
:102930007E0384FF25C080918203811104C08BE354
:102940008093820305C0E1E8F3E0818181508183B7
:10295000E12C009181031091820320918303309137
:1029600084034091850350918603609187037091A1
:10297000880380ED0E942B18CE010E944B1217C0D5
:10298000E12C009181031091820320918303309107
:102990008403409185035091860360918703709171
:1029A000880380ED0E942B18CE010E944B12DF910C
:1029B000CF911F910F91EF900895CF93DF93EC018A
:1029C00088EE93E00E945C07CE010E945514DF91CF
:1029D000CF910895EF920F931F93CF93DF93EC0164
:1029E00080917D0390917E0385FF0AC080917D03D5
:1029F00090917E0384FF04C0CE010E944B128BC0D5
:102A0000209181033091820340918303509184038C
:102A1000609185037091860380918703909188036C
:102A20000E949D02882339F0E0918603F0E0EC5F7C
:102A3000FC4F208106C0E0918603F0E0E05FFC4F90
:102A4000208180917D0390917E0385FF23C0E1E882
:102A5000F3E084818F5F84838481281718F481E0F8
:102A600080938503E12C00918103109182032091D2
:102A700083033091840340918503509186036091D4
:102A800087037091880380ED0E942B18CE010E946D
:102A90004B1241C080917D0390917E0384FF24C03E
:102AA00080918503823018F42093850305C0E1E806
:102AB000F3E0848181508483E12C009181031091A3
:102AC00082032091830330918403409185035091C8
:102AD0008603609187037091880380ED0E942B1814
:102AE000CE010E944B1217C0E12C0091810310917E
:102AF0008203209183033091840340918503509198
:102B00008603609187037091880380ED0E942B18E3
:102B1000CE010E944B12DF91CF911F910F91EF9048
:102B20000895CF93DF93EC0188EE93E00E945C0759
:102B3000CE010E94EA14DF91CF910895EF920F9396
:102B40001F93CF93DF93EC0180917D0390917E03DF
:102B500085FF0AC080917D0390917E0384FF04C0AD
:102B6000CE010E944B126BC080917D0390917E0339
:102B700085FF23C0E1E8F3E085818F5F8583858150
:102B80008D3018F081E080938603E12C0091810361
:102B90001091820320918303309184034091850337
:102BA00050918603609187037091880380ED0E94A5
:102BB0002B18CE010E944B1242C080917D03909150
:102BC0007E0384FF25C080918603823020F48CE050
:102BD0008093860305C0E1E8F3E085818150858319
:102BE000E12C0091810310918203209183033091A5
:102BF000840340918503509186036091870370910F
:102C0000880380ED0E942B18CE010E944B1217C042
:102C1000E12C009181031091820320918303309174
:102C200084034091850350918603609187037091DE
:102C3000880380ED0E942B18CE010E944B12DF9179
:102C4000CF911F910F91EF900895CF93DF93EC01F7
:102C500088EE93E00E945C07CE010E949E15DF91F2
:102C6000CF9108950E944B120895EF920F931F93F6
:102C7000CF93DF93EC0180917D0390917E0385FFDC
:102C80000AC080917D0390917E0384FF04C0CE0131
:102C90000E944B127AC080917D0390917E0385FF44
:102CA0002AC0E1E8F3E086819781019697838683C5
:102CB000868197818433984030F08CE697E090933A
:102CC000880380938703E12C009181031091820394
:102CD00020918303309184034091850350918603B2
:102CE000609187037091880380ED0E942B18CE01BC
:102CF0000E944B124AC080917D0390917E0384FF15
:102D00002DC080918703909188038D36974038F4C9
:102D100083E398E0909388038093870307C0E1E8FA
:102D2000F3E086819781019797838683E12C009158
:102D30008103109182032091830330918403409199
:102D4000850350918603609187037091880380ED1D
:102D50000E942B18CE010E944B1217C0E12C00914B
:102D60008103109182032091830330918403409169
:102D7000850350918603609187037091880380EDED
:102D80000E942B18CE010E944B12DF91CF911F9110
:102D90000F91EF900895CF93DF93EC0188EE93E0CD
:102DA0000E945C07CE010E943516DF91CF910895F5
:102DB000CF93DF93EC010E946807CE010E944B1273
:102DC000DF91CF9108952091810320FF03C00E94DD
:102DD0004B12089568E080E291E00E94CA0440E04E
:102DE00060E080E291E00E947C0C40E060E080E2E4
:102DF00091E00E94C20C40E060E080E291E00E941D
:102E0000BF1140E060E080E291E00E940512089569
:102E1000CF92DF92EF92FF920F931F93CF93DF93A6
:102E20006B01EA01790161157105D1F128813981C0
:102E300026173707B8F40E945402F70140815181E8
:102E400062817381480F591F611D711D4083518339
:102E500062837383888199810196998388838C1515
:102E60009D05A0F0960140E050E0F701608171817E
:102E7000828193810E942B1DF80131832083F70109
:102E8000108211821282138219821882F8016081E5
:102E9000718180E090E00E945C1B9B01AC0108C046
:102EA000682F70E080E090E00E945C1B9B01AC0109
:102EB00060E070EC8FE794E40E94B41A20E030E008
:102EC00040E85FE30E94471A9B01AC0160E070E4B8
:102ED0008CE196E40E94B41A20E030E44CE156E420
:102EE0000E94B41A0E94F21B20E030EE46E755E43F
:102EF0000E94B41A2FE03FEC4BE55BE30E94481AB6
:102F00009B01AC0160E070E080E89FE30E94B41A8E
:102F1000DF91CF911F910F91FF90EF90DF90CF90B5
:102F200008950F931F930E94081723E333E948E89D
:102F300053E40E94471A1F910F910895CF92DF9298
:102F4000EF92FF920F931F93CF93DF93CDB7DEB72E
:102F500061970FB6F894DEBF0FBECDBF182F062FB6
:102F600089871A8662E0CE0109960E947B1911605A
:102F7000198768E0CE0109960E947B1968E0CE01AE
:102F800009960E94A71901112BC08A850E94790217
:102F9000C82E8B850E947902D82E8C850E947902DA
:102FA000E82EFD848E850E947902082F8F858F710F
:102FB0000E947902182F88890E94790290E02F855B
:102FC00022231CF08053984F02C08459984FC98225
:102FD000DA82EB82FC820D831E8398878F8324C064
:102FE0000F3FD1F47A856B855C854D853E858F8555
:102FF000282F2F71882324F4888990E0996103C0D9
:10300000888990E0906279836A835B834C833D83F7
:103010002E8398878F8308C019821A821B821C8294
:103020001D821E8218861F8229813A814B815C8114
:103030006D817E818F81988561960FB6F894DEBF91
:103040000FBECDBFDF91CF911F910F91FF90EF90F9
:10305000DF90CF9008958F929F92BF92CF92DF9290
:10306000EF92FF920F931F93CF93DF93CDB7DEB70D
:1030700061970FB6F894DEBF0FBECDBF688B798B1A
:10308000D22EB32EC42EF52E8888998889831A8271
:10309000E1103DC0802F0E9489028B83812F0E9406
:1030A00089028C838D2D0E9489028F738D83BE824D
:1030B0008C2D0E9489028F8320ED821627E09206D4
:1030C00038F48F2D0E9489028F718068888705C02F
:1030D0008F2D0E9489028F718887940136952795DC
:1030E00036952795ABE7B4E10E94531D96958795D9
:1030F000282D34E6839F20191124822F0E948902F3
:10310000898769E0CE0101960E947B1916C03FEFC6
:10311000E31213C00B831C832F732D83BE824F8356
:10312000C4019695879580785F71582B588789865A
:1031300069E0CE0101960E947B1961960FB6F89462
:10314000DEBF0FBECDBFDF91CF911F910F91FF90DA
:10315000EF90DF90CF90BF909F908F9008951F9336
:10316000CF93DF9300D01F92CDB7DEB7182F89839E
:103170008FE08A8362E0CE0101960E947B19116084
:10318000198363E0CE0101960E947B1963E0CE01B2
:1031900001960E94A7198A81881F8827881F0F908F
:1031A0000F900F90DF91CF911F910895FF920F9391
:1031B0001F93CF93DF9300D01F92CDB7DEB7182FA8
:1031C00089830F2EFFE0FF2EF02DFA8262E0CE0100
:1031D00001960E947B19812F8160898363E0CE0173
:1031E00001960E947B1963E0CE0101960E94A71907
:1031F0000A811983FA82802F8C7083608B8363E04D
:10320000CE0101960E947B19802F881F8827881F76
:103210000F900F900F90DF91CF911F910F91FF9022
:10322000089550939B0340939A0310929903109230
:1032300098031092900392E094BD67BD16BCA99AC2
:10324000EEE6F0E0908192609083877085BD0895EE
:10325000809190038823E1F31092900308951F92C8
:103260000F920FB60F9211242F933F934F935F93BA
:103270006F937F938F939F93AF93BF93EF93FF933E
:10328000809198039091990301969093990380936C
:103290009803209198033091990380919A0390911B
:1032A0009B038217930760F4809190038F5F809354
:1032B000900310929903109298030E947F0716BC06
:1032C000FF91EF91BF91AF919F918F917F916F91FE
:1032D0005F914F913F912F910F900FBE0F901F90D4
:1032E000189581E18093B8008FEF8093BB0084E054
:1032F0008093BC000895CF93DF93EC01ECEBF0E0FA
:10330000908190FDFDCF609350038881809351039D
:1033100080FD12C0623080F0FE013196A2E5B3E07C
:103320006250262F30E02E5F3F4F2C0F3D1F9191B2
:103330009D93E217F307D9F710924F0388EF80931C
:10334000280185EA8093BC00DF91CF910895AC01FC
:10335000ECEBF0E0908190FDFDCF80914F0380FF7A
:1033600011C0662379F0A1E5B3E0FA016150262F80
:1033700030E02F5F3F4F240F351F9D919193E2174F
:10338000F307D9F780914F03817008951F920F9230
:103390000FB60F9211242F933F938F939F93AF9368
:1033A000BF93EF93FF93E091B9008E2F90E0FC0163
:1033B0003897E135F10508F056C0E855FE4F0C94FA
:1033C0004D1D10924E03E0914E0380915003E8177B
:1033D00070F481E08E0F80934E03F0E0EF5AFC4FC3
:1033E00080818093BB0085E88093BC0043C08091BE
:1033F0004F03816080934F0384E98093BC003AC0FF
:10340000E0914E0381E08E0F80934E038091BB00CC
:10341000F0E0EF5AFC4F808320914E0330E0809122
:10342000500390E001972817390724F485EC809326
:10343000BC0020C085E88093BC001CC08091BB000C
:10344000E0914E03F0E0EF5AFC4F808380914F03F0
:10345000816080934F0384E98093BC000BC085EAB0
:103460008093BC0007C08091B9008093280184E05C
:103470008093BC00FF91EF91BF91AF919F918F918D
:103480003F912F910F900FBE0F901F90189550589D
:10349000BB27AA270E945F1A0C94B01B0E94A21B94
:1034A00038F00E94A91B20F039F49F3F19F426F44C
:1034B0000C949F1B0EF4E095E7FB0C94991BE92FED
:1034C0000E94C11B58F3BA17620773078407950758
:1034D00020F079F4A6F50C94E31B0EF4E0950B2E86
:1034E000BA2FA02D0B01B90190010C01CA01A00156
:1034F0001124FF27591B99F0593F50F4503E68F1B1
:103500001A16F040A22F232F342F4427585FF3CFF1
:10351000469537952795A795F0405395C9F77EF4C2
:103520001F16BA0B620B730B840BBAF09150A1F00B
:10353000FF0FBB1F661F771F881FC2F70EC0BA0F91
:10354000621F731F841F48F4879577956795B79519
:10355000F7959E3F08F0B0CF9395880F08F0992714
:10356000EE0F9795879508950E94C81A0C94B01B8A
:103570000E94A91B58F00E94A21B40F029F45F3F53
:1035800029F00C94991B51110C94E41B0C949F1B73
:103590000E94C11B68F39923B1F3552391F3951B46
:1035A000550BBB27AA2762177307840738F09F5F64
:1035B0005F4F220F331F441FAA1FA9F335D00E2ED1
:1035C0003AF0E0E832D091505040E695001CCAF73E
:1035D0002BD0FE2F29D0660F771F881FBB1F261701
:1035E00037074807AB07B0E809F0BB0B802DBF01D8
:1035F000FF2793585F4F3AF09E3F510578F00C94A7
:10360000991B0C94E41B5F3FE4F3983ED4F386953A
:1036100077956795B795F7959F5FC9F7880F911DC7
:103620009695879597F90895E1E0660F771F881FB3
:10363000BB1F621773078407BA0720F0621B730B66
:10364000840BBA0BEE1F88F7E09508950E942D1B9E
:103650006894B1110C94E41B08950E94C91B88F072
:103660009F5798F0B92F9927B751B0F0E1F0660F46
:10367000771F881F991F1AF0BA95C9F714C0B13087
:1036800091F00E94E31BB1E008950C94E31B672FB7
:10369000782F8827B85F39F0B93FCCF386957795B6
:1036A0006795B395D9F73EF490958095709561959F
:1036B0007F4F8F4F9F4F0895E89409C097FB3EF4CA
:1036C00090958095709561957F4F8F4F9F4F99236F
:1036D000A9F0F92F96E9BB279395F69587957795ED
:1036E0006795B795F111F8CFFAF4BB0F11F460FFAD
:1036F0001BC06F5F7F4F8F4F9F4F16C0882311F005
:1037000096E911C0772321F09EE8872F762F05C018
:10371000662371F096E8862F70E060E02AF09A95B3
:10372000660F771F881FDAF7880F9695879597F9A8
:10373000089597F99F6780E870E060E008959FEF33
:1037400080EC089500240A94161617061806090638
:10375000089500240A941216130614060506089507
:10376000092E0394000C11F4882352F0BB0F40F48F
:10377000BF2B11F460FF04C06F5F7F4F8F4F9F4FCF
:10378000089557FD9058440F551F59F05F3F71F051
:103790004795880F97FB991F61F09F3F79F08795B8
:1037A0000895121613061406551FF2CF4695F1DF41
:1037B00008C0161617061806991FF1CF86957105D1
:1037C000610508940895E894BB2766277727CB0105
:1037D00097F9089516F00C94E21C0C949F1B6894C2
:1037E0000C94991B0E94C91BA8F39923C1F3AEF353
:1037F000DF93CF931F930F93FF92C92FDD27882369
:103800002AF02197660F771F881FDAF720E030E053
:1038100040E85FEB9FE3883920F0803E38F0219646
:103820008F770E94481AE2EFF3E004C00E94481A22
:10383000EFE1F4E00E94F01C8B01BE01EC01FB2ED5
:103840006F5771097595771F880B990B0E945E1B46
:1038500028E132E741E35FE30E94491CAF2D980164
:10386000AE01FF900F911F91CF91DF910E945F1ADF
:103870000C94B01B0E94A21B38F00E94A91B20F0E0
:10388000952311F00C94991B0C949F1B11240C94FC
:10389000E41B0E94C11B70F3959FC1F3950F50E08C
:1038A000551F629FF001729FBB27F00DB11D639FF2
:1038B000AA27F00DB11DAA1F649F6627B00DA11D98
:1038C000661F829F2227B00DA11D621F739FB00D3E
:1038D000A11D621F839FA00D611D221F749F3327AE
:1038E000A00D611D231F849F600D211D822F762F47
:1038F0006A2F11249F5750409AF0F1F088234AF024
:10390000EE0FFF1FBB1F661F771F881F915050408F
:10391000A9F79E3F510580F00C94991B0C94E41B71
:103920005F3FE4F3983ED4F3869577956795B79516
:10393000F795E7959F5FC1F7FE2B880F911D969530
:10394000879597F908950E94C91BE8F09E37E8F023
:103950009639B8F49E3848F4672F782F8827985FF7
:10396000F9CF86957795679593959539D0F3B62FCE
:10397000B1706B0F711D811D20F487957795679548
:1039800093950C94C71C0C94E21C0C94E41B8823A4
:1039900071F4772321F09850872B762F07C0662388
:1039A00011F499270DC09051862B70E060E02AF049
:1039B0009A95660F771F881FDAF7880F9695879577
:1039C00097F908959F3F31F0915020F487957795AE
:1039D0006795B795880F911D9695879597F90895E6
:1039E000DF93CF931F930F93FF92EF92DF927B01B0
:1039F0008C01689406C0DA2EEF010E94491CFE017A
:103A0000E894A5912591359145915591A6F3EF0143
:103A10000E945F1AFE019701A801DA9469F7DF900E
:103A2000EF90FF900F911F91CF91DF91089597FB39
:103A3000072E16F4009407D077FD09D00E94621D6E
:103A400007FC05D03EF4909581959F4F08957095A1
:103A500061957F4F0895A1E21A2EAA1BBB1BFD01A1
:103A60000DC0AA1FBB1FEE1FFF1FA217B307E4075D
:103A7000F50720F0A21BB30BE40BF50B661F771FB5
:103A8000881F991F1A9469F7609570958095909595
:103A90009B01AC01BD01CF010895EE0FFF1F059002
:103AA000F491E02D0994A29FB001B39FC001A39FA0
:103AB000700D811D1124911DB29F700D811D112467
:103AC000911D0895AA1BBB1B51E107C0AA1FBB1F74
:103AD000A617B70710F0A61BB70B881F991F5A959A
:103AE000A9F780959095BC01CD010895F999FECF75
:103AF00092BD81BDF89A992780B50895262FF9992E
:103B0000FECF92BD81BDF89A019700B4021639F03C
:103B10001FBA20BD0FB6F894FA9AF99A0FBE08950D
:043B2000F894FFCF47
:103B24002020202020202020202020202020202091
:103B34002020202020202020202020202020202081
:103B44002020202020202020F80003020500030567
:103B540001040602040200AD0A01004B120200B681
:103B64000A02004B120100D40A0300E3160100C547
:103B74000A07004B120100BB0A01004B120300C5E7
:103B84000A0700AA130300D40A0300E3160300D7AC
:103B94000A010099130700AD0A0500080D0700DDAE
:103BA4000A06004F130700B60A07004B120600CBA3
:103BB4000A0600BE130600AD0A0500080D0500AD97
:103BC4000A0500080D0500C50A0A00F90D0500CB19
:103BD4000A070048140A00AD0A0800F90D0A00DDBE
:103BE4000A09004F130A00B60A0A004B120900CB57
:103BF4000A090055140900AD0A0800F90D0800ADC2
:103C04000A0800F90D0800C50A0D00EA0E0800CBE9
:103C14000A0A00DD140D00AD0A0B00EA0E0D00DDEA
:103C24000A0C004F130D00B60A0D004B120C00CB0A
:103C34000A0C00EA140C00AD0A0B00EA0E0B00ADEE
:103C44000A0B00EA0E0B00C50A1000DB0F0B00CBB9
:103C54000A0D0091151000AD0A0E00DB0F1000DDF7
:103C64000A0F004F131000B60A10004B120F00CBBE
:103C74000A0F009E150F00AD0A0E00DB0F0E00ADFB
:103C84000A0E00DB0F0E00C50A1300CC100E00CB89
:103C94000A100025161300AD0A1100CC101300DD24
:103CA4000A1200D8161300B60A130032161200CBFB
:103CB4000A120035161200AD0A1100CC101100AD25
:103CC4000A1100CC101100C50A02005A131100CBCE
:103CD4000A1300CB16FFFF0000FFFF00004C554EF7
:103CE4004553202020004D41525445532020004D7F
:103CF400494552434F4C45004A55455645532020AB
:103D040000564945524E4553200053414241444FC9
:103D1400202000444F4D494E474F200020202020B2
:103D240020202020001F1D1F1E1F1E1F1F1E1F1EC0
:103D34001F1F1C1F1E1F1E1F1F1E1F1E1F000105ED
:103D440004060203070003050104020D09070B061C
:103D5400080C0A0F0E00080109020A030B040C05E3
:063D64000D060E070F0022
:00000001FF
