:100000000C94A1010C94BE010C94BE010C94BE0191
:100010000C94BE010C94BE010C94BE010C94BE0164
:100020000C94BE010C94BE010C94BE010C94BE0154
:100030000C94BE010C94BE010C94BF1D0C94BE0127
:100040000C94BE010C94BE010C94BE010C94BE0134
:100050000C94BE010C94BE010C94BE010C94BE0124
:100060000C94C6040C94BE01010C070C100C100C6F
:10007000100C100C100C100C100C100C100C100CA0
:100080000A0C040C0A0C100CA40BA10BA70BAA0B56
:10009000AD0B130CB00BB30BB60B160C100C100CF5
:1000A000100C100C100C100C100CB90BBC0BC20B6C
:1000B000C50BCB0BCE0BD10B190C1C0CDD0BE00BC5
:1000C000E30B220C220CA40BEC0BF20B250C130CF3
:1000D000250C2B0C2B0CFE0B190C2E0C130C100CDE
:1000E000100C100C100C100C100CB90BBC0BBF0B2F
:1000F000C50BC80BCE0B160CD40BD70BDA0BE00BD1
:100100001C0C1F0C1F0CE90BEC0BEF0BF50B130C6D
:10011000F80B280C280CFB0B190C2E0C130C100CD4
:10012000100C100C100C100C100C100C100C100CEF
:10013000100C100C100C100C100C100C100C100CDF
:10014000100C100C100C100C100C100C100C100CCF
:10015000100C100C100C100C100C100C100C100CBF
:10016000100C100C100C100C100C100C100C100CAF
:10017000E60BE60B100C100C100C100C100C100CF5
:10018000100C100C100C100C100C100C100C100C8F
:10019000100C100C100C100C100C100C0D0CE60CAC
:1001A000EF0C160D280D280D220D280D130D2E0D08
:1001B000F80CFB0CFE0CF50CE90CF20C040D440CD5
:1001C000410C470C4A0C4D0C2B0D500C530C560C8B
:1001D000590C280D280D0D0D100D0A0DEC0C250DD8
:1001E0005F0C650C2E0D6E0C740C7A0C800C860C5A
:1001F000890C8F0C950C980C9E0CA10C440CAD0C2A
:10020000B30CB90C2B0DC20CC80CCE0CD40CD70CF3
:10021000DD0CE30C2E0D070DF80C280D280D1C0D20
:100220005C0C620C680C6B0C710C770C7D0C830CF5
:10023000310D8C0C920C310D9B0C340DA70CAA0CBB
:10024000B00CB60CBC0CBF0CC50CCB0CD10CD70C35
:10025000DA0CE00C280D310D280DE90C280D280DC5
:10026000280D280D280D280D280D280D280D280DE6
:10027000280D280D280D280D280D280D280D280DD6
:10028000280D280D280D280D280D280D280D280DC6
:10029000280D280D280D280D280D280D280D280DB6
:1002A000280D280D280D340DA40C280D280D280D1F
:1002B000280D280D280D1F0D280D280D280D280D9F
:1002C000280D280D280D190D280D280DF20C280DCC
:1002D000280D280D280D280D280D280D280D280D76
:1002E000280D280D280D280D280D280D280D280D66
:1002F000280D280D280D280D280D280D280D280D56
:10030000280D280D280D280D280D280D280D280D45
:10031000280D280D280D280D280D280D280D280D35
:10032000280D280D280D280D280D280D280D280D25
:10033000280D280D280D280D280D280D280D280D15
:10034000010D11241FBECFEFD8E0DEBFCDBF14E0FA
:10035000A0E0B1E0E4EBFCE302C005900D92A8350B
:10036000B107D9F714E0A8E5B4E001C01D92A33AA3
:10037000B107E1F70E94CF160C94581E0C940000B0
:10038000A8E1B0E0E6ECF1E00C942D1E69837A83DD
:100390008B839C832D833E834F83588789E0E82E8F
:1003A000F12CEC0EFD1ECE010196B7010E947203E6
:1003B0008E010F5E1F4FCE010596B8010E94720399
:1003C0008985823040F08989823028F0C701B801E0
:1003D0000E94EA0301C081E06896E6E00C94491EA1
:1003E000A8E0B0E0E6EFF1E00C942A1E9B01AC011E
:1003F00083E08983DA01C9018827B7FD83959927AE
:10040000AA27BB27B82E211531054105510519F43E
:1004100082E089833AC08823A9F0203080E0380741
:1004200080E0480780E8580729F460E070E080E049
:100430009FEC30C0EE24FF248701E21AF30A040B7C
:10044000150B02C079018A018EE1C82ED12CDC8205
:10045000CB82ED82FE820F831887C801B7010E940C
:100460004E0201971816190684F4082E04C0EE0CEB
:10047000FF1C001F111F0A94D2F7ED82FE820F832A
:100480001887C81AD90ADC82CB82BA82CE010196BB
:100490000E949D022896E9E00C94461EEF92FF927E
:1004A0000F931F937B018C0180E0E81680E0F80633
:1004B00081E0080780E0180788F48FEFE816F10460
:1004C0000105110531F028F088E090E0A0E0B0E0EF
:1004D00017C080E090E0A0E0B0E012C080E0E81635
:1004E00080E0F80680E0080781E0180728F088E13E
:1004F00090E0A0E0B0E004C080E190E0A0E0B0E0D7
:1005000020E230E040E050E0281B390B4A0B5B0B47
:1005100004C016950795F794E7948A95D2F7F701EA
:10052000E85BFE4F8081281B310941095109C9014F
:100530001F910F91FF90EF900895DF92EF92FF923D
:100540000F931F93FC01E480F58006811781D18011
:100550008081823048F480E090E0A0E1B0E0E82AB9
:10056000F92A0A2B1B2BA5C0843009F49FC08230C6
:1005700021F4EE24FF24870105C0E114F1040105F4
:10058000110519F4E0E0F0E096C0628173819FEFFD
:10059000623879070CF05BC022E83FEF261B370B6F
:1005A0002A3131052CF020E030E040E050E02AC054
:1005B000B801A701022E04C0769567955795479517
:1005C0000A94D2F781E090E0A0E0B0E004C0880F88
:1005D000991FAA1FBB1F2A95D2F70197A109B1093C
:1005E0008E219F21A023B1230097A105B10521F001
:1005F00081E090E0A0E0B0E09A01AB01282B392B1C
:100600004A2B5B2BDA01C9018F779070A070B07014
:1006100080349105A105B10539F427FF09C0205C9C
:100620003F4F4F4F5F4F04C0215C3F4F4F4F5F4FD5
:10063000E0E0F0E02030A0E03A07A0E04A07A0E4C4
:100640005A0710F0E1E0F0E079018A0127C0603834
:10065000710564F5FB01E158FF4FD801C7018F77A1
:100660009070A070B07080349105A105B10539F487
:10067000E7FE0DC080E490E0A0E0B0E004C08FE3AE
:1006800090E0A0E0B0E0E80EF91E0A1F1B1F17FF64
:1006900005C016950795F794E794319687E016956F
:1006A0000795F794E7948A95D1F705C0EE24FF24C7
:1006B0008701EFEFF0E06E2F679566276795902F23
:1006C0009F77D794DD24D7948E2F8695492F462B7C
:1006D000582F5D29B701CA011F910F91FF90EF902C
:1006E000DF900895FC01DB01408151812281622F5E
:1006F0006F7770E0221F2227221F9381892F880F96
:10070000822B282F30E0991F9927991F11969C93CF
:10071000119721153105A9F541155105610571059F
:1007200011F482E037C082E89FEF13969C938E937A
:1007300012979A01AB0167E0220F331F441F551F28
:100740006A95D1F783E08C930DC0220F331F441FAD
:10075000551F12968D919C911397019713969C9318
:100760008E931297203080E0380780E0480780E4BD
:10077000580758F314962D933D934D935C93179718
:1007800008952F3F310579F4411551056105710533
:1007900019F484E08C93089564FF03C081E08C9386
:1007A00012C01C9210C02F57304013963C932E93CA
:1007B000129783E08C9387E0440F551F661F771FC5
:1007C0008A95D1F7706414964D935D936D937C93E5
:1007D000179708951F93DC01FB019C91923008F458
:1007E00047C08081823008F443C0943051F41196A0
:1007F0001C91843099F58181682F70E0611B71092B
:100800003FC0843021F0923031F48230B9F18181DF
:10081000882389F12DC011961C9111978230F1F037
:1008200081811817D9F412962D913C9113978281EA
:1008300093818217930794F028173907BCF0149618
:100840008D919D910D90BC91A02D24813581468183
:100850005781281739074A075B0718F4112341F01D
:100860000AC082179307A407B50740F4112319F0B3
:1008700061E070E005C06FEF7FEF02C060E070E004
:10088000CB011F910895109278041092770485B7D8
:100890008F7E85BF84B184B987B187B98AB1836FF0
:1008A0008AB985B1836385B988B188B98BB1836F03
:1008B0008BB9089586B189B190E080959095837F3A
:1008C00090709093780480937704089581E18093E9
:1008D000B8008FEF8093BB0084E08093BC00089544
:1008E0008091BC00817008958091BC0080FDFCCF98
:1008F000809148020895FC018091BC0080FDFCCFEE
:1009000060936E04808180935A0480FD0DC04E2F49
:10091000ABE5B4E0CF01FC0102C080818D9331963C
:100920008E2F841B8617C8F31092580488EF80938B
:10093000480285EA8093BC0008958091BC0080FD48
:10094000FCCF1092580488EF8093480285EA809388
:10095000BC000895AC018091BC0080FDFCCF80916B
:10096000580480FF0FC020E030E00AC0FA01E20F17
:10097000F31FD901A65ABB4F8C9180832F5F3F4F45
:100980002617A0F380915804817008951F920F924A
:100990000FB60F9211242F933F938F939F93EF9352
:1009A000FF938091B9008832D1F0893240F48031D0
:1009B000A1F08831A1F0883009F04DC00EC080341C
:1009C00059F1813420F4883309F045C042C08035A4
:1009D000B9F0883509F03FC02DC0109259049091AC
:1009E000590480916E04981768F5E92FF0E0E65AF3
:1009F000FB4F80818093BB009F5F9093590418C088
:100A0000809159049091BB00E82FF0E0E65AFB4F2B
:100A100090838F5F809359042091590430E0809136
:100A20006E0490E001972817390714F485EC18C07C
:100A300085E816C08091BB00E0915904F0E0E65AC9
:100A4000FB4F80838091580481608093580484E92F
:100A500007C085EA05C08091B9008093480284E010
:100A60008093BC00FF91EF919F918F913F912F91C7
:100A70000F900FBE0F901F9018958F70805D089596
:100A8000282F30E0207F307043E0359527954A9538
:100A9000E1F7A901440F551F440F551F420F531F83
:100AA0008F70840F0895282F6AE00E94011E482F3E
:100AB00050E074E0440F551F7A95E1F7822F0E94B1
:100AC000011E892F8F70842B0895DF93CF93CDB7AC
:100AD000DEB728970FB6F894DEBF0FBECDBF8F8369
:100AE00098872F813885C90160E971E00E940D1E49
:100AF000892B71F0C90164E670E00E940D1E892BFC
:100B000011F480E006C080E023703070232B09F4DC
:100B100081E028960FB6F894DEBF0FBECDBFCF910F
:100B2000DF910895DF92EF92FF920F931F93DF936F
:100B3000CF93CDB7DEB760970FB6F894DEBF0FBE88
:100B4000CDBF29873A874B878F87988BEF84F888AA
:100B5000472FD62E80E090E0733010F481E090E0D3
:100B60008701081B190B2D2D30E021503040200F3C
:100B7000311FC8019695879596958795280F391F3F
:100B8000C80160E971E00E940D1E260F371FE42F97
:100B9000F0E0E057FD4F8081280F311DC80164E669
:100BA00070E00E940D1EC901861B970B67E070E084
:100BB0000E940D1E8F5F8C87F88AEF864E87DD8638
:100BC000DE011196FE01399688E001900D92815068
:100BD000E1F729813A814B815C816D817E818F8132
:100BE000988560960FB6F894DEBF0FBECDBFCF914B
:100BF000DF911F910F91FF90EF90DF900895EF929A
:100C0000FF920F931F93DF93CF93CDB7DEB7689713
:100C10000FB6F894DEBF0FBECDBF982F362F122F20
:100C20008C3308F090E03C3308F030E0802F8150A6
:100C30008C3008F001E0EF82F88699833A830E83C6
:100C4000292F4B815C816D81702FC7010E94650542
:100C5000882339F0112371F0E02FF0E0E458FD4FC4
:100C600006C0112339F0E02FF0E0E059FD4F8081FC
:100C7000811708F411E01D8329813A814B815C8141
:100C8000612F7E818F8198850E949205298B3A8BF6
:100C90004B8B5C8B6D8B7E8B8F8B988FDE011996C7
:100CA000FE01719688E001900D928150E1F729854F
:100CB0003A854B855C856D857E858F85988968969C
:100CC0000FB6F894DEBF0FBECDBFCF91DF911F915D
:100CD0000F91FF90EF900895DF93CF93CDB7DEB7DC
:100CE00028970FB6F894DEBF0FBECDBF5430C9F0C1
:100CF000553038F4523061F0533080F45130E9F41B
:100D00000AC05630A1F0563078F05730B1F412C016
:100D100020E031E014C029E031E011C022E131E0EF
:100D20000EC02BE131E00BC024E231E008C02DE21F
:100D300031E005C026E331E002C02FE331E0C90114
:100D400028960FB6F894DEBF0FBECDBFCF91DF91CE
:100D50000895DF92EF92FF920F931F93DF93CF934B
:100D6000CDB7DEB760970FB6F894DEBF0FBECDBF2C
:100D700029873A878F87988BE72E0F8518894F5FD1
:100D8000483120F4C801D52EF62E30C0F62EF3944B
:100D9000573018F0DD24D39402C0D52ED394188B8D
:100DA0000F8729853A8540E05D2D6F2D7E2D802FA0
:100DB00098890E946505EE2DF0E0882319F0E4582B
:100DC000FD4F02C0E059FD4F80818F1560F47E2DEC
:100DD0007F5F7D3020F0C801019671E001C0C8013D
:100DE000FF24F39402C0C8017E2D40E04B87FD86AE
:100DF000DC867E87988B8F87DE011196FE013996FF
:100E000088E001900D928150E1F729813A814B8170
:100E10005C816D817E818F81988560960FB6F89494
:100E2000DEBF0FBECDBFCF91DF911F910F91FF901D
:100E3000EF90DF9008950F931F93DF93CF93CDB77B
:100E4000DEB768970FB6F894DEBF0FBECDBF298717
:100E50004B875C876D877E878F87988B3F5F8E017E
:100E60000F5F1F4F3C33A8F01A8630E00E94A9069E
:100E7000298B3A8B4B8B5C8B6D8B7E8B8F8B988FFA
:100E8000D801FE01719688E001900D928150E1F742
:100E900009C03A87D801FE01399688E001900D9289
:100EA0008150E1F729813A814B815C816D817E819E
:100EB0008F81988568960FB6F894DEBF0FBECDBFC0
:100EC000CF91DF911F910F910895EF92FF920F93B1
:100ED0001F93DF93CF93CDB7DEB760970FB6F8942B
:100EE000DEBF0FBECDBF29873A878F87988B2F85AE
:100EF0003889F52E442309F052C06230C0F57230B3
:100F000030F48901015010407CE0E72E03C0E72E49
:100F1000EA948901188B0F8729853A8547E15F2D6F
:100F20007E2D802F98890E946505EE2DF0E08823A4
:100F300019F0E458FD4F02C0E059FD4F908181E067
:100F40008F1510F057E002C05F2D515087E18B875D
:100F50009D87EE86188B0F875C87DE011196FE0158
:100F6000399688E001900D928150E1F728C081E028
:100F7000851710F057E001C0515087E18B87615011
:100F80006D877E87388B2F875C87DE011196FE0187
:100F9000399688E001900D928150E1F710C04150E0
:100FA0004B876D877E87388B2F875C87DE01119694
:100FB000FE01399688E001900D928150E1F7298178
:100FC0003A814B815C816D817E818F8198856096AD
:100FD0000FB6F894DEBF0FBECDBFCF91DF911F914A
:100FE0000F91FF90EF9008950F931F93DF93CF938E
:100FF000CDB7DEB768970FB6F894DEBF0FBECDBF92
:1010000029874B875C876D877E878F87988B8E01BA
:101010000F5F1F4F3323B9F48BE38A873BE38F8540
:101020000E946507298B3A8B4B8B5C8B6D8B7E8B7B
:101030008F8B988FD801FE01719688E001900D92F8
:101040008150E1F70AC031503A87D801FE01399644
:1010500088E001900D928150E1F729813A814B811E
:101060005C816D817E818F81988568960FB6F8943A
:10107000DEBF0FBECDBFCF91DF911F910F910895BD
:10108000AF92BF92CF92EF92FF92DF93CF93CDB703
:10109000DEB760970FB6F894DEBF0FBECDBFF71670
:1010A000A0F07F15A0F0E61680F06E1580F0C41653
:1010B00060F04C1560F0B31640F03B1540F0A216FE
:1010C00020F02A1520F080E003C081E001C08FEFFE
:1010D00060960FB6F894DEBF0FBECDBFCF91DF9103
:1010E000FF90EF90CF90BF90AF900895AF92BF92D6
:1010F000CF92EF92FF920F931F93DF93CF93CDB7D1
:10110000DEB760970FB6F894DEBF0FBECDBF8F83FA
:1011100098870F87188BEF81F8858F8598898E17B0
:101120009F07C8F0E817F907C0F0F716A0F07F1581
:10113000A0F0E61680F06E1580F0C41660F04C1535
:1011400060F0B31640F03B1540F0A21620F02A15CF
:1011500020F080E003C081E001C08FEF60960FB601
:10116000F894DEBF0FBECDBFCF91DF911F910F91DD
:10117000FF90EF90CF90BF90AF90089520E030E0C7
:1011800040E2FC01E20FF31F40832F5F3F4F283006
:101190003105B9F708956F3008F06FE08093790456
:1011A000606E60937A0489E794E062E00E947B04B9
:1011B00008958093790480E880937A0489E794E025
:1011C00062E00E947B040895623829F0643819F0C7
:1011D000663809F060E880937904616860937A0466
:1011E00089E794E062E00E947B040895FF920F93E8
:1011F0001F93F82E09E714E08093790481E280932D
:101200007A04C80162E00E947B04F092790481E8CC
:1012100080937A04C80162E00E947B041F910F91C1
:10122000FF9008958093790410927A04EBE7F4E03C
:10123000119284E0EB38F807D9F7CF01429762E1C9
:101240000E947B0408951F93122F809379041092BB
:101250007A04613021F48BE794E06EE008C08BE7FC
:1012600094E06EE00E94800B8BE794E06FE0412FEA
:101270000E94800B89E794E062E10E947B041F9149
:101280000895BF92CF92DF92EF92FF920F931F9338
:10129000CF93DF93EA01D22EB02E8093790410927F
:1012A0007A04613041F0613078F06230F9F06330F7
:1012B00009F081C021C08BE794E060E10E94340B0B
:1012C0008BE794E06EE00EC08BE794E060E10E9453
:1012D000340B8BE794E06EE04D2D0E94800B8BE782
:1012E00094E06FE04B2D0E94800B9AC08BE794E056
:1012F00060E10E94400B94C098818A818883898133
:101300008A83998380E28F838BE794E060E10E9477
:10131000340B8BE794E00E944C0BCDE9D2E010E057
:10132000E02EFF24C701088002C0959587950A9496
:10133000E2F780FF07C08BE794E0612F41E00E9455
:101340005F0B06C08BE794E0612F41E00E946F0BBA
:1013500021961E5F1E3031F7E7FE07C08BE794E051
:101360006CE040E00E945F0B06C08BE794E06CE00D
:1013700040E00E946F0B1D2DD0FE07C08BE794E06C
:1013800063E041E00E945F0B06C08BE794E063E0FE
:1013900041E00E946F0B11FF07C08BE794E065E00E
:1013A00041E00E945F0B3CC08BE794E065E041E0C8
:1013B0000E946F0B35C08BE7E82E84E0F82E00E02A
:1013C00010E0C22EDD24FE01E00FF11F80810E949B
:1013D000920B282FF7018083C601002E02C095953D
:1013E00087950A94E2F780FF02C0206802C02F7739
:1013F000F70120830F5F1F4F82E090E0E80EF91E97
:101400000430110501F792E0B91651F480917D0482
:10141000806880937D0480917F04806880937F043E
:1014200089E794E062E10E947B04DF91CF911F91F4
:101430000F91FF90EF90DF90CF90BF900895909321
:101440008E0480938D0410928C0410928B0481E0A2
:1014500080938F04089510928F04089580918F04D3
:10146000882311F440E00FC0F89420918B04309150
:101470008C0440E080918D0490918E0428173907E8
:1014800008F041E07894842F089580918F04882398
:1014900089F080918B0490918C048F5F9F4F71F045
:1014A00080918B0490918C04019690938C0480938E
:1014B0008B04089510928C0410928B040895FC0103
:1014C00071836083538342833583248308950F930C
:1014D0001F93CF93DF938C01FC01C281D38119C08C
:1014E000F801808191818217930791F4EA81FB8151
:1014F000C8010995882361F08C819D81F801918351
:101500008083EE81FF81309741F0C801099505C0C5
:1015100028962881398137FFE3CFDF91CF911F9142
:101520000F9108952F923F924F925F926F927F9208
:101530008F929F92AF92BF92CF92DF92EF92FF92E3
:101540000F931F93DF93CF93CDB7DEB769970FB695
:10155000F894DEBF0FBECDBF888F998F698B5B8BF0
:101560004A8B3D8B2C8B1F8B0E8B6C01882499240E
:101570005BC0F6011082EA89FB89E80DF91D308015
:10158000832D90E021E0622E712C032C02C0660CAA
:10159000771C0A94E2F77E010894E11CF11CAA244E
:1015A000BB24A81AB90A00E010E02C01222061F443
:1015B000EE89FF89E00FF11F80812C893D89F901B7
:1015C0000995F70191838083F70120813181F6012C
:1015D0004081031560F426213721C201801B910B45
:1015E00002C0369527958A95E2F7422B0AC026213C
:1015F00037210A2C02C0220F331F0A94E2F7422B34
:10160000F60140830F5F1F4F22E030E0E20EF31E31
:101610000894A11CB11C0830110541F60894811CE6
:10162000911C0894C11CD11C282C3989831608F4FC
:10163000A0CF888D998D69960FB6F894DEBF0FBE46
:10164000CDBFCF91DF911F910F91FF90EF90DF9071
:10165000CF90BF90AF909F908F907F906F905F9052
:101660004F903F902F9008950F931F938A0145EA62
:1016700052E022E93BE00E94920A1F910F910895E7
:101680000F931F938A0145EB52E022E33CE00E9456
:10169000920A1F910F910895AC01FC0120E0808116
:1016A000982F92959695969593709183880F880FB1
:1016B00080832F5F3296283091F7CA010895FC018C
:1016C000DC01A60FB11D81E090E002C0880F991FD8
:1016D0004A95E2F72C91282B2C93CF010895FC0119
:1016E000DC01A60FB11D81E090E002C0880F991FB8
:1016F0004A95E2F780952C9128232C93CF010895E9
:101700009C01FC01E60FF11D8081842B8083C901BF
:1017100008959C01FC01E60FF11D808184238083E4
:10172000C901089590E0FC01B097EB39F10508F08C
:1017300077C0EC5CFF4FEE0FFF1F0590F491E02D9A
:10174000099426E030E08CC02FE330E089C02BE51F
:1017500030E086C02FE430E083C026E630E080C071
:101760002DE730E07DC027E030E07AC02FE730E0A1
:1017700077C027E730E074C02CE730E071C028E57F
:1017800030E06EC029E330E06BC02EE530E068C089
:101790002BE730E065C029E730E062C021E730E0A8
:1017A0005FC02DE330E05CC024E730E059C020E1A9
:1017B00030E056C02EE130E053C02FE130E050C0A1
:1017C00020E730E04DC028E330E04AC025E530E0B6
:1017D00047C02CE530E044C023E730E041C02CEDA9
:1017E00030E03EC02FEB30E03BC020E530E038C0B9
:1017F00028E730E035C02CE930E032C02EEB30E095
:101800002FC020E030E02CC020E430E029C022E8E6
:1018100030E026C020E830E023C023E630E020C0DE
:1018200028E030E01DC02DE630E01AC02FE630E0A1
:1018300017C026E730E014C020E330E011C024E5F3
:1018400030E00EC027E330E00BC021E330E008C0F9
:101850002CE130E005C02EE330E002C02EE630E09F
:10186000C901089590E0FC01B097E23DF10508F050
:10187000EFC0E153FF4FEE0FFF1F0590F491E02DF5
:10188000099426E031E0F2C02FE330E0EFC02BE115
:1018900032E2ECC02FE032E0E9C026E232E2E6C0FC
:1018A0002DE332E2E3C027E030E0E0C02FE332E294
:1018B000DDC02FE232E2DAC02FE132E2D7C027E307
:1018C00032E2D4C02CE332E2D1C02FE83AE0CEC0FD
:1018D00028E132E2CBC02EE032E2C8C02FE838E087
:1018E000C5C02BE332E2C2C029E330E2BFC021E32E
:1018F00030E2BCC021E332E2B9C027E236E2B6C032
:101900002DE332E0B3C024E332E2B0C026E332E29A
:10191000ADC029E838E0AAC026E034E0A7C02FE136
:1019200030E0A4C020E83DE0A1C020E335E29EC045
:1019300028E330E09BC024E13AE298C026E731E09A
:1019400095C026E734E092C027E734E08FC02CE151
:1019500032E28CC023E83AE089C023E332E286C059
:1019600027E232E283C02FE334E080C020E130E29E
:101970007DC023E336E27AC02DE432E077C028E36D
:1019800030E274C021E838E071C02CE130E06EC074
:101990002EE330E06BC020E130E168C020E331E1AC
:1019A00065C024E134E162C026E334E15FC020E495
:1019B00035E15CC02EE832E059C020E439E056C081
:1019C00029E033E153C029E031E150C020E030E0AC
:1019D0004DC020E032E24AC023E03AE847C022E0AE
:1019E00030E844C020E030E841C020E030E13EC0B3
:1019F0002FE030E03BC020EC3DE138C020E83AE287
:101A000035C028E83AE232C020E031E12FC020E4BE
:101A100034E02CC020E430E129C020E035E026C0CD
:101A200028E032E223C020E830E020C022E830E0A5
:101A30001DC020E031E01AC020E430E017C024E0EF
:101A400032E214C020E637E311C02FE138E20EC0C5
:101A500028E030E00BC02DE232E208C029E330E09C
:101A600005C020E838E002C024E132E2C90108954F
:101A7000FF920F931F93DF93CF9300D0CDB7DEB7C4
:101A8000F82E89831A828E010F5F1F4FC80162E012
:101A90000E947B0481E0F82AF982C80163E00E9479
:101AA0007B04C80163E00E94AA049A8180E02B8134
:101AB00030E0282B392BC9010F900F90CF91DF9187
:101AC0001F910F91FF900895809177049091780471
:101AD00020E0892B09F421E0822F0895809177047A
:101AE000909178040895809177049091780420E093
:101AF0008F77892B09F421E0822F08958091770454
:101B00009091780485FD03C080E090E00895809175
:101B100077049091780424E0969587952A95E1F7CB
:101B200081700895809177049091780485FD03C0B9
:101B300081E090E00895809177049091780434E0FA
:101B4000969587953A95E1F780959095817090707C
:101B5000089580917704909178048074089580911D
:101B600077049091780420E0892B09F021E0822FFE
:101B7000089580919E04089590E080919E048823AA
:101B800009F491E0892F08958091920480939D0437
:101B900081E080939A0408959091920480919D042D
:101BA000891759F090939D0480919A0487FF02C091
:101BB00081E001C0880F80939A0480919A0408956F
:101BC000ECE7F0E0808180668083EAE7F0E08081E6
:101BD00087688083089590917C008F70907F892B17
:101BE00080937C0080917A00806480937A00809159
:101BF0007A0086FDFCCF8091790008950F931F93A2
:101C0000CF93DF93EC01262F042F40E050E0FE013C
:101C1000E40FF51FDA01A759BD4F90818C919817F9
:101C200011F01FEF06C04F5F5F4F4830510579F745
:101C300010E080917504281739F480917604081714
:101C400019F41123D9F001C01FEF40E050E0FA0170
:101C5000E759FD4FDE01A40FB51F8C9180834F5FC4
:101C60005F4F4830510599F720937504009376042F
:101C700086EE63E049E652E00E944109812FDF9140
:101C8000CF911F910F9108950F931F93CF93DF93DF
:101C9000EC01262F042F40E050E0FE01E40FF51F79
:101CA000DA01AF59BD4F90818C91981711F01FEF59
:101CB00006C04F5F5F4F4830510579F710E08091C3
:101CC0007304281739F480917404081719F4112348
:101CD000D9F001C01FEF40E050E0FA01EF59FD4F8D
:101CE000DE01A40FB51F8C9180834F5F5F4F48309A
:101CF000510599F7209373040093740484EE62E015
:101D000041E652E00E944109812FDF91CF911F915E
:101D10000F9108950F931F93CF93DF93EC01262F1C
:101D2000042F40E050E0FE01E40FF51FDA01A75A4E
:101D3000BD4F90818C91981711F01FEF06C04F5F37
:101D40005F4F4830510579F710E0809171042817F2
:101D500039F480917204081719F41123D9F001C0E5
:101D60001FEF40E050E0FA01E75AFD4FDE01A40FFB
:101D7000B51F8C9180834F5F5F4F4830510599F7B5
:101D8000209371040093720488EE64E049E552E008
:101D90000E944109812FDF91CF911F910F910895EA
:101DA0000F931F93CF93DF93EC01262F042F40E076
:101DB00050E0FE01E40FF51FDA01AF5ABD4F9081EC
:101DC0008C91981711F01FEF06C04F5F5F4F48309E
:101DD000510579F710E080916F04281739F480914C
:101DE0007004081719F41123D9F001C01FEF40E067
:101DF00050E0FA01EF5AFD4FDE01A40FB51F8C91A0
:101E000080834F5F5F4F4830510599F720936F04EF
:101E10000093700480EE60E041E552E00E944109C9
:101E2000812FDF91CF911F910F91089580E90E943A
:101E3000380D0895EF92FF920F931F93CF93DF9386
:101E400080E90E94380DEC019093910480939004F6
:101E5000BE01882777FD8095982F0E94F00120E031
:101E600030E040E850EC0E94C001882304F5882748
:101E700099278C1B9D0B092F112766E09595879557
:101E80006A95E1F78370907029E130E0829F7001DC
:101E9000839FF00C929FF00C11240A30110514F06E
:101EA0008DE222C080E2809349028DE22DC00D2F89
:101EB000112746E0D595C7954A95E1F7C370D070D4
:101EC00089E190E0C89F7001C99FF00CD89FF00C89
:101ED0001124043611055CF0802F64E60E94011E77
:101EE0000E9453050E943D058093490206C080E28E
:101EF000809349020A3011053CF0802F0E9453055F
:101F000082958F700E943D0580934A02802F0E9427
:101F100053050E943D0580934B028E2D0E94530570
:101F200082958F700E943D0580934C028E2D0E94F9
:101F300053050E943D0580934D028AEB80934E022B
:101F400083E480934F0280E28093500289E492E020
:101F5000DF91CF911F910F91FF90EF900895CF9354
:101F6000DF9380E90E94380D9C0190939104809347
:101F700090048FEF243E3807ACF0C32FDD27C43622
:101F8000D1054CF08C2F64E60E94011E0E9453057F
:101F90000E943D0511C080E280934902CA30D105FC
:101FA000CCF00CC088279927821B930BC92FDD2703
:101FB000CA30D1055CF08DE2809349028C2F0E94DB
:101FC000530582958F700E943D0504C080E2809386
:101FD00049028DE280934A028C2F0E9453050E9491
:101FE0003D0580934B028AEB80934C0283E48093FF
:101FF0004D0280E280934E0280934F028093500204
:1020000089E492E0DF91CF9108950E942B0A80919C
:10201000920480FF3AC0809198049091990468EEF0
:1020200073E00E940D1E862F0E943D0580934D0295
:10203000809198049091990468EE73E00E940D1EBF
:1020400064E670E00E940D1E862F0E943D0580937D
:102050004E02809198049091990464E670E00E9489
:102060000D1E6AE070E00E940D1E862F0E943D0545
:1020700080934F0280919804909199046AE070E0F7
:102080000E940D1E0E943D0507C080E280934D0214
:1020900080934E0280934F02809350028091960469
:1020A0000E94530582958F700E943D0580934902DE
:1020B000809196040E9453050E943D0580934A0238
:1020C000809197040E94530582958F700E943D0570
:1020D00080934B02809197040E9453050E943D0516
:1020E00080934C0289E492E06AE040E00E94D00EC6
:1020F000809194040E94530582958F700E943D0543
:1021000080934902809194040E9453050E943D05EA
:1021100080934A02809193040E94530582958F70A8
:102120000E943D0580934B02809193040E945305C9
:102130000E943D0580934C02409192044170440FEF
:1021400089E492E060E00E948A0E08950E942B0AC2
:102150008091920480FF11C0809197040E945305E2
:1021600082958F700E943D0580934B028091970469
:102170000E9453050E943D0503C080E280934B02FC
:1021800080934C02809196040E94530582958F7033
:102190000E943D0580934902809196040E94530558
:1021A0000E943D0580934A02809198049091990481
:1021B00068EE73E00E940D1E862F0E943D058093FD
:1021C0004D02809198049091990468EE73E00E940A
:1021D0000D1E64E670E00E940D1E862F0E943D05D4
:1021E00080934E02809198049091990464E670E087
:1021F0000E940D1E6AE070E00E940D1E862F0E9454
:102200003D0580934F0280919804909199046AE073
:1022100070E00E940D1E0E943D058093500289E4EB
:1022200092E06AE040E00E94D00E809194040E9407
:10223000530582958F700E943D05809349028091DD
:1022400094040E9453050E943D0580934A028091A8
:1022500093040E94530582958F700E943D058093E0
:102260004B02809193040E9453050E943D05809388
:102270004C02409192044170440F89E492E060E086
:102280000E948A0E08950E942B0A8091920480FF7A
:1022900011C0809196040E94530582958F700E9410
:1022A0003D0580934902809196040E9453050E9447
:1022B0003D0503C080E28093490280934A028091E9
:1022C00097040E94530582958F700E943D0580936C
:1022D0004B02809197040E9453050E943D05809314
:1022E0004C02809198049091990468EE73E00E94EA
:1022F0000D1E862F0E943D0580934D02809198040B
:102300009091990468EE73E00E940D1E64E670E0FF
:102310000E940D1E862F0E943D0580934E028091E3
:1023200098049091990464E670E00E940D1E6AE0A2
:1023300070E00E940D1E862F0E943D0580934F0283
:1023400080919804909199046AE070E00E940D1EBB
:102350000E943D058093500289E492E06AE040E0EB
:102360000E94D00E809194040E94530582958F7034
:102370000E943D0580934902809194040E94530578
:102380000E943D0580934A02809193040E94530568
:1023900082958F700E943D0580934B02809193043B
:1023A0000E9453050E943D0580934C024091920487
:1023B0004170440F89E492E060E00E948A0E089523
:1023C0000E942B0A8091920480FF11C08091930497
:1023D0000E94530582958F700E943D0580934B02A9
:1023E000809193040E9453050E943D0503C080E242
:1023F00080934B0280934C02809194040E94530579
:1024000082958F700E943D058093490280919404CB
:102410000E9453050E943D0580934A024091920418
:102420004170440F89E492E060E00E948A0E80913E
:1024300096040E94530582958F700E943D058093FB
:102440004902809196040E9453050E943D058093A5
:102450004A02809197040E94530582958F700E94D2
:102460003D0580934B02809197040E9453050E9482
:102470003D0580934C02809198049091990468EEF8
:1024800073E00E940D1E862F0E943D0580934D0231
:10249000809198049091990468EE73E00E940D1E5B
:1024A00064E670E00E940D1E862F0E943D05809319
:1024B0004E02809198049091990464E670E00E9425
:1024C0000D1E6AE070E00E940D1E862F0E943D05E1
:1024D00080934F0280919804909199046AE070E093
:1024E0000E940D1E0E943D058093500289E492E0F7
:1024F0006AE040E00E94D00E08950E942B0A80916D
:10250000920480FF11C0809194040E94530582952B
:102510008F700E943D0580934902809194040E942F
:1025200053050E943D0503C080E2809349028093D9
:102530004A02809193040E94530582958F700E94F5
:102540003D0580934B02809193040E9453050E94A5
:102550003D0580934C02409192044170440F89E400
:1025600092E060E00E948A0E809196040E945305DA
:1025700082958F700E943D05809349028091960458
:102580000E9453050E943D0580934A028091970462
:102590000E94530582958F700E943D0580934B02E7
:1025A000809197040E9453050E943D0580934C0240
:1025B000809198049091990468EE73E00E940D1E3A
:1025C000862F0E943D0580934D0280919804909142
:1025D000990468EE73E00E940D1E64E670E00E94AC
:1025E0000D1E862F0E943D0580934E028091980417
:1025F0009091990464E670E00E940D1E6AE070E01C
:102600000E940D1E862F0E943D0580934F028091EF
:102610009804909199046AE070E00E940D1E0E9457
:102620003D058093500289E492E06AE040E00E9418
:10263000D00E0895CF92DF92EF92FF920F931F93E7
:10264000B6E9EB2EB4E0FB2E809196040E94530570
:1026500082958F700E943D05A9E4CA2EA2E0DA2E71
:1026600080934902809196040E9453050E943D0583
:1026700080934A02809197040E94530582958F703F
:102680000E943D0580934B02809197040E94530560
:102690000E943D0580934C0280919804909199048A
:1026A00068EE73E00E940D1E862F0E943D05809308
:1026B0004D02809198049091990468EE73E00E9415
:1026C0000D1E64E670E00E940D1E862F0E943D05DF
:1026D00080934E02809198049091990464E670E092
:1026E0000E940D1E6AE070E00E940D1E862F0E945F
:1026F0003D0580934F0280919804909199046AE07F
:1027000070E00E940D1E0E943D0580935002C6019C
:102710006AE040E00E94D00EC60168E00E94BE0858
:10272000870102501040F80180810E945305829574
:102730008F700E943D0580934902F80180810E94BC
:1027400053050E943D0580934A02870103501040C3
:10275000F80180810E94530582958F700E943D058B
:1027600080934B02F80180810E9453050E943D0531
:1027700080934C028CEF9FEFE80EF91EF701408129
:102780004170440FC60160E00E948A0E20919204BD
:102790003091930440919404509195046091960473
:1027A0007091970480919804909199040E946C060E
:1027B00060E040E00E94440E80E090E00E94AF0F95
:1027C0008C010E94CC0D482FC80160E00E94FE0DD4
:1027D0001F910F91FF90EF90DF90CF9008950E948E
:1027E0001A130895EF920F931F93CF93DF93EC0189
:1027F000809177049091780485FF06C080917704DA
:102800009091780484FD46C080917704909178047B
:1028100085FF13C08091980490919904019690933C
:10282000990480939804809198049091990484531A
:102830009840E0F08CE697E015C080917704909185
:10284000780484FF13C080919804909199048D5668
:10285000974018F483E398E005C080919804909124
:1028600099040197909399048093980480ED0091C6
:102870009204109193042091940430919504409116
:102880009604509197046091980470919904EE24F5
:102890000E94A71BCE010E941A13DF91CF911F91B6
:1028A0000F91EF9008950F931F938C0188EE93E0A2
:1028B0000E941F0AC8010E94F2131F910F910895F0
:1028C0000F931F938C010E942B0AC8010E941A13B8
:1028D0001F910F910895EF920F931F93CF93DF9362
:1028E000EC01809177049091780485FF06C0809177
:1028F00077049091780484FD36C08091770490919C
:10290000780485FF0BC0809197048F5F80939704B4
:10291000809197048D3098F081E00FC0809177040A
:102920009091780484FF0BC080919704823010F45A
:102930008CE003C08091970481508093970480EDD0
:102940000091920410919304209194043091950485
:102950004091960450919704609198047091990465
:10296000EE240E94A71BCE010E941A13DF91CF9183
:102970001F910F91EF9008950F931F938C0188EE94
:1029800093E00E941F0AC8010E946B141F910F91CF
:102990000895EF920F931F93CF93DF93EC018091F3
:1029A00077049091780485FF06C080917704909118
:1029B000780484FD57C02091920430919304409193
:1029C00094045091950460919604709197048091BD
:1029D0009804909199040E946505882331F0E09154
:1029E0009704F0E0E458FD4F05C0E0919704F0E053
:1029F000E059FD4FE081809177049091780485FF44
:102A00000BC0809196048F5F80939604809196040A
:102A1000E817A0F481E010C08091770490917804C9
:102A200084FF0CC080919604823018F4E0939604E1
:102A300005C08091960481508093960480ED0091AA
:102A40009204109193042091940430919504409144
:102A50009604509197046091980470919904EE2423
:102A60000E94A71BCE010E941A13DF91CF911F91E4
:102A70000F91EF9008950F931F938C0188EE93E0D0
:102A80000E941F0AC8010E94C9141F910F91089546
:102A9000EF920F931F93CF93DF93EC018091770414
:102AA0009091780485FF06C0809177049091780416
:102AB00084FD39C0809177049091780485FF0EC021
:102AC000809193048F5F80939304809193048C335F
:102AD00010F0109293041092920411C08091770428
:102AE0009091780484FF0BC080919304882311F4A3
:102AF0008BE303C08091930481508093930480ED15
:102B000000919204109193042091940430919504C3
:102B100040919604509197046091980470919904A3
:102B2000EE240E94A71BCE010E941A13DF91CF91C1
:102B30001F910F91EF9008950F931F938C0188EED2
:102B400093E00E941F0AC8010E9448151F910F912F
:102B50000895EF920F931F93CF93DF93EC01809131
:102B600077049091780485FF06C080917704909156
:102B7000780484FD39C0809177049091780485FFB2
:102B80000CC0809194048F5F80939404809194048E
:102B90008831A0F01092940411C080917704909134
:102BA000780484FF0DC080919404882311F487E198
:102BB00003C08091940481508093940410929204F5
:102BC00080ED00919204109193042091940430912F
:102BD00095044091960450919704609198047091E7
:102BE0009904EE240E94A71BCE010E941A13DF91C4
:102BF000CF911F910F91EF9008950F931F938C0128
:102C000088EE93E00E941F0AC8010E94A9151F9137
:102C10000F9108950F931F938C0180ED0E94181A55
:102C200080EE60E80E94E40888EE60E80E94E40814
:102C3000C8010E941A131F910F9108950F931F93BB
:102C40008C0180EE60E80E94E40888EE60E80E9453
:102C5000E408C8010E941A131F910F9108959C0166
:102C60008091920480FF04C0C9010E941A13089544
:102C700089E492E068E00E94BE0889E492E060E0A6
:102C800040E00E94D00E89E492E060E040E00E94C3
:102C90008A0E89E492E060E040E00E94440E89E4FC
:102CA00092E060E040E00E94FE0D0895CF92DF9236
:102CB000EF920F931F93DF93CF93CDB7DEB7289793
:102CC0000FB6F894DEBF0FBECDBF6C012091920409
:102CD000309193044091940450919504609196042E
:102CE0007091970480919804909199040E949205A4
:102CF00029833A834B835C836D837E838F8398879C
:102D0000A2E9B4E0FE01319688E001900D92815075
:102D1000E1F780ED009192041091930420919404C6
:102D200030919504409196045091970460919804D5
:102D300070919904EE240E94A71BC6010E941A13E9
:102D400028960FB6F894DEBF0FBECDBFCF91DF91AE
:102D50001F910F91EF90DF90CF9008950F931F93E5
:102D60008C010E942B0AC8010E941A131F910F9117
:102D700008950E942E0A0895809177049091780416
:102D8000892B19F480E090E008950E942E0A90E0CB
:102D9000882309F491E081E09827892F08952F92E4
:102DA0003F924F925F926F927F928F929F92AF92DB
:102DB000BF92CF92DF92EF92FF920F931F93DF9318
:102DC000CF93CDB7DEB7C659D1400FB6F894DEBF6A
:102DD0000FBECDBFDE011796E0EDF2E088E891E08E
:102DE00001900D920197E1F7CE01019661E070E04C
:102DF000AE01495F5F4F20E030E00E945F0A0E9411
:102E000043040E94660410929C0480917C008066BA
:102E100080937C0080917A00876880937A00789410
:102E200080EE0E94F60888EE0E94F60884EE0E946A
:102E3000F60886EE0E94F60880EE60E041E552E07A
:102E400020916F04009170040E94410988EE64E0B3
:102E500049E552E020917104009172040E944109F9
:102E600084EE62E041E652E0209173040091740424
:102E70000E94410986EE63E049E652E02091750424
:102E8000009176040E94410980E00E94EB0D82953A
:102E90008F7080939C0460919C0480EE0E94CB080C
:102EA00080919C0490E00E9724F460919C046E5FE6
:102EB00002C060919C0488EE0E94CB0860919C0443
:102EC00084EE0E94CB0860919C0486EE0E94CB08A1
:102ED00084E06EE441E050E00E94A11D80919204E4
:102EE00080939D0481E080939A048E0101571E4FC8
:102EF00051E9252E51E0352E2C0E3D1E42E9442E7F
:102F000041E0542E4C0E5D1E33E9632E31E0732EEA
:102F10006C0E7D1E24E9822E21E0922E8C0E9D1EC9
:102F200095E9A92E91E0B92EAC0EBD1E86E9C82EFA
:102F300081E0D82ECC0EDD1E7E010894E11CF11C30
:102F400080ED60E00E94271DF8012083C057DE4F0E
:102F50003883C059D140F1014083F2015083F3011D
:102F60006083F4017083F5018083F6019083A2E908
:102F7000B4E0F80188E001900D928150E1F780ED16
:102F80000E94541A80939E040E94450A0E945A048B
:102F900080E00E94EB0D82958F7080939C0460917D
:102FA0009C0480EE0E94CB0880919C0490E00E97D8
:102FB00024F460919C046E5F02C060919C0488EED2
:102FC0000E94CB0860919C0484EE0E94CB08609123
:102FD0009C0486EE0E94CB08C7010E94670A0E94EB
:102FE000B81DAECFEF92FF920F931F93DF93CF9355
:102FF00000D000D0CDB7DEB7F82E89838EE0E82E62
:10300000EA828E010F5F1F4FC80162E00E947B04BD
:103010008F2D81608983C80164E00E947B04C80110
:1030200064E00E94AA049A8195FD0BC08B8182FD09
:1030300008C0F98290629B83EA82C80163E00E9423
:103040007B040F900F900F900F90CF91DF911F9105
:103050000F91FF90EF900895FF920F931F93DF93CE
:10306000CF9300D000D0CDB7DEB7F82E89838EE0A5
:103070008A838E010F5F1F4FC80162E00E947B04AC
:1030800081E0F82AF982C80164E00E947B04C8014B
:1030900064E00E94AA048A8185FF02C08FEF06C007
:1030A0008B8182FD02C080E001C08FE00F900F9005
:1030B0000F900F90CF91DF911F910F91FF90089586
:1030C000FF920F931F93DF93CF9300D000D0CDB723
:1030D000DEB7F82E898381E18A838E010F5F1F4F4F
:1030E000C80162E00E947B0481E0F82AF982C801ED
:1030F00064E00E947B04C80164E00E94AA049A81F3
:1031000080E02B8130E0282B392BC9010F900F90E4
:103110000F900F90CF91DF911F910F91FF90089525
:10312000DF92EF92FF920F931F93DF93CF9300D024
:103130000F92CDB7DEB7F82EE62E89839FE0D92E09
:10314000DA828E010F5F1F4FC80162E00E947B048C
:103150008F2D81608983C80163E00E947B04C801D0
:1031600063E00E94AA04F98283E0E8228A818C7FCE
:103170008E298B83DA82C80163E00E947B040F9062
:103180000F900F90CF91DF911F910F91FF90EF90D3
:10319000DF900895FF920F931F93DF93CF9300D09A
:1031A0000F92CDB7DEB7F82E89838FE08A838E0128
:1031B0000F5F1F4FC80162E00E947B0481E0F82A84
:1031C000F982C80163E00E947B04C80163E00E94A9
:1031D000AA048A8183700F900F900F90CF91DF9196
:1031E0001F910F91FF900895DF92EF92FF920F933E
:1031F0001F93DF93CF9300D00F92CDB7DEB7F82E99
:10320000E62ED42E89838EE08A838E010F5F1F4FB6
:10321000C80162E00E947B048F2D81608983C80110
:1032200063E00E947B04C80163E00E94AA042A8133
:10323000922F9C7F9B8381E0E81641F08FEFE81688
:1032400039F4822F8170892B8B8302C091609B831C
:1032500081E0D81639F08FEFD81639F422708B81BF
:10326000822B02C08B8182608B838EE08A83F982FD
:10327000CE01019663E00E947B040F900F900F90A7
:10328000CF91DF911F910F91FF90EF90DF90089504
:10329000FF920F931F93DF93CF9300D00F92CDB780
:1032A000DEB7F82E89838EE08A838E010F5F1F4F71
:1032B000C80162E00E947B0481E0F82AF982C8011B
:1032C00063E00E947B04C80163E00E94AA048A8133
:1032D00083700F900F900F90CF91DF911F910F91FE
:1032E000FF900895FF920F931F93DF93CF9300D029
:1032F00000D00F92CDB7DEB7F82E89838BE08A839A
:103300008E010F5F1F4FC80162E00E947B0481E0C5
:10331000F82AF982C80164E00E947B04C80164E0D5
:103320000E94AA044C8150E08B8190E080789070DC
:10333000E5E095958795EA95E1F72A8130E02078D8
:10334000307076E0359527957A95E1F7822B9A01D2
:103350002078307064E0359527956A95E1F7822BE7
:10336000407450705595479555954795842B0F900F
:103370000F900F900F900F90CF91DF911F910F91B1
:10338000FF900895FF920F931F93DF93CF9300D088
:1033900000D000D0CDB7DEB7F82E898387E08A83CE
:1033A0008E010F5F1F4FC80162E00E947B0481E025
:1033B000F82AF982C80165E00E947B04C80165E033
:1033C0000E94AA044D8150E08B8190E0807890703B
:1033D00016E0959587951A95E1F72C8130E02078D5
:1033E0003070B5E035952795BA95E1F7822B2A81A3
:1033F000221F2227221F822B9A0120783070A4E0FE
:1034000035952795AA95E1F7822B40745070559514
:10341000479555954795842B26960FB6F894DEBFB1
:103420000FBECDBFCF91DF911F910F91FF900895F7
:10343000DF92EF92FF920F931F93DF93CF9300D011
:103440000F92CDB7DEB7F82E89830FE0D02EDA8247
:103450008E010F5F1F4FC80162E00E947B048F2D19
:1034600081608983C80163E00E947B04C80163E036
:103470000E94AA04EA80F982DA828E2D8C70836021
:103480008B83C80163E00E947B048E2D881F8827F0
:10349000881F0F900F900F90CF91DF911F910F9188
:1034A000FF90EF90DF900895FF920F931F93DF93AB
:1034B000CF9300D00F92CDB7DEB7F82E89838FE07F
:1034C0008A838E010F5F1F4FC80162E00E947B0458
:1034D00081E0F82AF982C80163E00E947B04C801F8
:1034E00063E00E94AA0490E08A8187FD91E0892F21
:1034F0000F900F900F90CF91DF911F910F91FF9040
:103500000895BF92CF92DF92EF92FF920F931F9395
:10351000DF93CF93CDB7DEB72D970FB6F894DEBF0C
:103520000FBECDBF0E83F12F1F83E22F288739876F
:10353000942F4A875B876C877D874E2DFE2ED32E76
:10354000B92E89838BE08A83EE2079F50C2D10E06B
:103550008F2F0E945305980176E0220F331F7A9532
:10356000E1F72078282B2B838F2D0E9453058F7B2A
:10357000980165E0220F331F6A95E1F72078822BCE
:103580008C83780154E0EE0CFF1C5A95E1F7C6FEDF
:1035900004C020E4D22A8E2D22C08B2D0E94530518
:1035A0009E2D9078982B9D8320C04F3F19F52C2D90
:1035B00030E0C90146E0880F991F4A95E1F780780D
:1035C000812B8B838FE3F822FC82C90134E0880FC2
:1035D000991F3A95E1F7C6FE05C020E4D22A80780B
:1035E0008D2902C080788B298D83CE01019669E0F8
:1035F0000E947B042D960FB6F894DEBF0FBECDBFA0
:10360000CF91DF911F910F91FF90EF90DF90CF90BE
:10361000BF900895BF92CF92DF92EF92FF920F93E7
:103620001F93DF93CF93CDB7DEB72E970FB6F894E5
:10363000DEBF0FBECDBFA02F0F831887E22F2987D3
:103640003A87942F4B875C876D877E874E2DE12EBE
:10365000FE2ED32EB92E898387E08A834423D1F5A9
:103660000C2D10E08A2F0E94530598013695322FB9
:10367000222737952795822B8B838E2D0E94530509
:10368000980146E0220F331F4A95E1F72078282B56
:103690002C838F2D0E9453058F7B980195E0220F7C
:1036A000331F9A95E1F72078822B8D83780114E0FF
:1036B000EE0CFF1C1A95E1F7C6FE04C020E4D22AE6
:1036C0008E2D2AC08B2D0E9453059E2D9078982B0D
:1036D0009E8328C04F3F59F52C2D30E0C9019695A7
:1036E000982F882797958795A82BAB83C901F6E07B
:1036F000880F991FFA95E1F78078812B8C838FE3EF
:10370000F822FD82C901E4E0880F991FEA95E1F7EC
:10371000C6FE05C020E4D22A80788D2902C08078B8
:103720008B298E83CE01019669E00E947B042E9640
:103730000FB6F894DEBF0FBECDBFCF91DF911F91C2
:103740000F91FF90EF90DF90CF90BF900895BF92C0
:10375000CF92DF92EF92FF920F931F93DF93CF935D
:10376000CDB7DEB761970FB6F894DEBF0FBECDBF01
:10377000B02F0A87A12F1B87F22F2C87E32F3D87BD
:103780004E875F87688B798B3E2DD12E1F2FCE2ED3
:10379000B42EE888F988052F89831A82332359F5D6
:1037A0008B2F0E9453058B838D2D0E9453058C8394
:1037B000812F0E9453058F738D83CE828B2D0E94A3
:1037C00053058F8380EDE81687E0F80630F4802FEC
:1037D0000E9453058F71806804C0802F0E9453059A
:1037E0008F718887C70164E670E00E940D1E0E94F9
:1037F0005305898710C03F3F99F4BB83AC831F7387
:103800001D83EE834F83C7019695879580780F714E
:10381000802B8887E986CE01019669E00E947B04AF
:1038200061960FB6F894DEBF0FBECDBFCF91DF918A
:103830001F910F91FF90EF90DF90CF90BF90089570
:10384000EF92FF920F931F93DF93CF93CDB7DEB725
:1038500065970FB6F894DEBF0FBECDBF182F062FA9
:1038600089838BE08A837E010894E11CF11CC701E7
:1038700062E00E947B0411601983C70164E00E942A
:103880007B04C70164E00E94AA040023F9F48A8142
:103890008F770E944005E82E8B818F730E94400530
:1038A000182F8C8186FD03C080E00E9440051E8297
:1038B000EF82188719868A87DE011E96FE013696EA
:1038C00088E001900D928150E1F725C09E01225FB2
:1038D0003F4FAE014A5F5F4F0F3F89F49A819F7758
:1038E0008B818F731E829F83888719861A86D901E0
:1038F000FA0188E001900D928150E1F70CC01E8220
:103900001F82188619861A86D901FA0188E001906B
:103910000D928150E1F72E853F85488959896A8942
:103920007B898C899D8965960FB6F894DEBF0FBEA2
:10393000CDBFCF91DF911F910F91FF90EF90089530
:10394000EF92FF920F931F93DF93CF93CDB7DEB724
:1039500066970FB6F894DEBF0FBECDBF182F062FA7
:10396000898387E08A837E010894E11CF11CC701EA
:1039700062E00E947B0411601983C70165E00E9428
:103980007B04C70165E00E94AA04002321F58A8117
:103990008F770E944005082F8B818F770E9440050A
:1039A000E82E8C818F730E944005182F8D8186FD33
:1039B00003C080E00E9440050F83E88619871A86BD
:1039C0008B87DE011F96FE01379688E001900D92ED
:1039D0008150E1F727C0AE01415F5F4FBE01695FD3
:1039E0007F4F0F3F99F42B812F779C819F738A81A2
:1039F0008F778F83288799871A861B86DA01FB01C8
:103A000088E001900D928150E1F70CC01F8218866A
:103A100019861A861B86DA01FB0188E001900D9257
:103A20008150E1F72F85388949895A896B897C89CA
:103A30008D899E8966960FB6F894DEBF0FBECDBF06
:103A4000CF91DF911F910F91FF90EF900895CF924A
:103A5000DF92EF92FF920F931F93DF93CF93CDB737
:103A6000DEB761970FB6F894DEBF0FBECDBFF82E5C
:103A7000E62E89871A868E01075F1F4FC80162E014
:103A80000E947B0481E0F82AF986C80168E00E9460
:103A90007B04C80168E00E94AA04EE2029F58A850B
:103AA0000E944005C82E8B850E944005D82E8C852B
:103AB0000E944005182FED848E850E944005F82E47
:103AC0008F858F710E944005082F88890E944005CC
:103AD000282F30E0F901E053F84F8F8587FF19C098
:103AE000F901E459F84F15C08FEFE81691F4CA8434
:103AF000DB841C85ED84FE847F85888977FF04C084
:103B0000E82FF0E0F96103C0E82FF0E0F062072F42
:103B10000F71F887EF839601412F5E2D6F2D702F67
:103B20008E2F988561960FB6F894DEBF0FBECDBF7D
:103B3000CF91DF911F910F91FF90EF90DF90CF9089
:103B400008955093A2044093A1041092A0041092EF
:103B50009F0410929B0492E094BD67BD16BCA99A85
:103B6000EEE6F0E0908192609083877085BD0895C5
:103B700080919B048823E1F310929B0408951F9287
:103B80000F920FB60F9211242F933F934F935F9391
:103B90006F937F938F939F93AF93BF93EF93FF9315
:103BA00080919F049091A00401969093A00480932B
:103BB0009F0420919F043091A0048091A1049091D2
:103BC000A2048217930760F480919B048F5F809317
:103BD0009B041092A00410929F040E94450A16BCF8
:103BE000FF91EF91BF91AF919F918F917F916F91D5
:103BF0005F914F913F912F910F900FBE0F901F90AB
:103C00001895991B79E004C0991F961708F0961B28
:103C1000881F7A95C9F780950895AA1BBB1B51E1AF
:103C200007C0AA1FBB1FA617B70710F0A61BB70B2C
:103C3000881F991F5A95A9F780959095BC01CD01D1
:103C400008952F923F924F925F926F927F928F9240
:103C50009F92AF92BF92CF92DF92EF92FF920F931B
:103C60001F93CF93DF93CDB7DEB7CA1BDB0B0FB625
:103C7000F894DEBF0FBECDBF09942A8839884888E2
:103C80005F846E847D848C849B84AA84B984C88478
:103C9000DF80EE80FD800C811B81AA81B981CE0F6F
:103CA000D11D0FB6F894DEBF0FBECDBFED01089554
:043CB000F894FFCFB6
:103CB4004D41525445532020004C554E455320202D
:103CC40020004D494552434F4C45004A5545564501
:103CD40053202000564945524E455320005341423B
:103CE40041444F202000444F4D494E474F2000206F
:103CF40020202020202020000001020203030303CF
:103D04000404040404040404050505050505050567
:103D14000505050505050505060606060606060647
:103D2400060606060606060606060606060606062F
:103D34000606060606060606070707070707070717
:103D440007070707070707070707070707070707FF
:103D540007070707070707070707070707070707EF
:103D640007070707070707070707070707070707DF
:103D740007070707070707070808080808080808C7
:103D840008080808080808080808080808080808AF
:103D9400080808080808080808080808080808089F
:103DA400080808080808080808080808080808088F
:103DB400080808080808080808080808080808087F
:103DC400080808080808080808080808080808086F
:103DD400080808080808080808080808080808085F
:103DE400080808080808080808080808080808084F
:103DF4000808080808080808F820202020202020A7
:103E040020202020202020202020202020202020AE
:103E1400202020202020202020202020202020209E
:103E2400201F1C1F1E1F1E1F1F1E1F1E1F1F1D1FA6
:103E34001E1F1E1F1F1E1F1E1F000000060101D093
:103E4400070003020500030501040602040001053E
:103E5400040602030700080109020A030B040C0507
:103E64000D060E070F0003050104020D09070B06DA
:103E7400080C0A0F0E30313233343536202020201E
:103E84000200640D01001A1302006E0D02001A13E1
:103E94000100B90D03002F160100A90D07001A1324
:103EA4000100730D01001A130300A90D07000A167F
:103EB4000300B90D03002F160300BC0D01001E16EC
:103EC4000700640D05007D120700BC160600AE163F
:103ED40007006E0D07001A130600AF0D0600A915A2
:103EE4000600640D05007D120500640D05007D12B9
:103EF4000500A90D0A00E0110500AF0D0700FD152E
:103F04000A00640D0800E0110A00BC160900AE1690
:103F14000A006E0D0A001A130900AF0D09004815B6
:103F24000900640D0800E0110800640D0800E011A8
:103F34000800A90D0D0043110800AF0D0A009C15DF
:103F44000D00640D0B0043110D00BC160C00AE16E1
:103F54000D006E0D0D001A130C00AF0D0C00C914EA
:103F64000C00640D0B0043110B00640D0B00431196
:103F74000B00A90D1000A6100B00AF0D0D003B1592
:103F84001000640D0E00A6101000BC160F00AE1633
:103F940010006E0D10001A130F00AF0D0F006B14FC
:103FA4000F00640D0E00A6100E00640D0E00A61086
:103FB4000E00A90D130005100E00AF0D1000BC1467
:103FC4001300640D110005101300BC1612006014D8
:103FD40013006E0D1300EF131200AF0D1200F21355
:103FE4001200640D110005101100640D110005107C
:103FF4001100A90D020056161100AF0D1300531441
:08400400FFFF0000FFFF0000B8
:00000001FF
