:100000000C948C010C94A9010C94A9010C94A901E5
:100010000C94A9010C94A9010C94A9010C94A901B8
:100020000C94A9010C94A9010C94A9010C94A901A8
:100030000C94A9010C94A9010C9410180C94A9011A
:100040000C94A9010C94A9010C94A9010C94A90188
:100050000C94A9010C94A9010C94A9010C94A90178
:100060000C9439020C94A9016A0870087608760885
:100070007608760876087608760876087608760890
:1000800073086D08730876080D080A08100813082D
:100090001608790819081C081F087C0876087608D5
:1000A00076087608760876087608220825082B0850
:1000B0002E08340837083A087F088208460849089D
:1000C0004C08880888080D0855085B088B087908D3
:1000D0008B089108910867087F08940879087608CA
:1000E0007608760876087608760822082508280813
:1000F0002E08310837087C083D08400843084908A5
:100100008208850885085208550858085E0879084D
:1001100061088E088E0864087F08940879087608BC
:1001200076087608760876087608760876087608DF
:1001300076087608760876087608760876087608CF
:1001400076087608760876087608760876087608BF
:1001500076087608760876087608760876087608AF
:10016000760876087608760876087608760876089F
:100170004F084F084C0955097C098E098E098809DA
:100180008E09790994095E09610964095B094F09BF
:1001900058096A09AA08A708AD08B008B308910968
:1001A000B608B908BC08BF088E098E09730976091C
:1001B000700952098B09C508CB089409D408DA08DC
:1001C000E008E608EC08EF08F508FB08FE0804095B
:1001D0000709AA08130919091F09910928092E09F5
:1001E00034093A093D094309490994096D095E0931
:1001F0008E098E098209C208C808CE08D108D7081E
:10020000DD08E308E9089709F208F80897090109E9
:100210009A090D09100916091C09220925092B093B
:10022000310937093D09400946098E0997098E09A8
:100230004F098E098E098E098E098E098E098E0945
:100240008E098E098E098E098E098E098E098E09F6
:100250008E098E098E098E098E098E098E098E09E6
:100260008E098E098E098E098E098E098E098E09D6
:100270008E098E098E098E098E098E099A090A093E
:100280008E098E098E098E098E098E0985098E09BF
:100290008E098E098E098E098E098E097F098E09B5
:1002A0008E0958098E098E098E098E098E098E09CC
:1002B0008E098E098E098E098E098E098E098E0986
:1002C0008E098E098E098E098E098E098E098E0976
:1002D0008E098E098E098E098E098E098E098E0966
:1002E0008E098E098E098E098E098E098E098E0956
:1002F0008E098E098E098E098E098E098E098E0946
:100300008E098E098E098E098E098E098E098E0935
:100310008E098E098E09670911241FBECFEFD8E020
:10032000DEBFCDBF13E0A0E0B1E0E4ECF0E302C03B
:1003300005900D92AE34B107D9F713E0AEE4B3E007
:1003400001C01D92AC38B107E1F70E945E110C9418
:1003500060180C940000109266031092650385B734
:100360008F7E85BF84B184B987B1836087B98AB134
:10037000836F8AB985B1836385B988B1836088B991
:100380008BB1836F8BB9089586B129B190E08095C8
:10039000909583709070982F882730E02095309545
:1003A000237F3070822B932B909366038093650399
:1003B000089581E18093B8008FEF8093BB0084E0C3
:1003C0008093BC0008958091BC0081700895809155
:1003D000BC0080FDFCCF809148010895FC01809114
:1003E000BC0080FDFCCF6093640380818093500348
:1003F00080FD0DC04E2FA1E5B3E0CF01FC0102C08E
:1004000080818D9331968E2F841B8617C8F31092AE
:100410004E0388EF8093480185EA8093BC000895DD
:100420008091BC0080FDFCCF10924E0388EF80933A
:10043000480185EA8093BC000895AC018091BC001E
:1004400080FDFCCF80914E0380FF0FC020E030E0A4
:100450000AC0FA01E20FF31FD901A05BBC4F8C91D7
:1004600080832F5F3F4F2617A0F380914E0381704A
:1004700008951F920F920FB60F9211242F933F935E
:100480008F939F93EF93FF938091B9008832D1F0BF
:10049000893240F48031A1F08831A1F0883009F030
:1004A0004DC00EC0803459F1813420F4883309F0F6
:1004B00045C042C08035B9F0883509F03FC02DC035
:1004C00010924F0390914F0380916403981768F541
:1004D000E92FF0E0E05BFC4F80818093BB009F5FE1
:1004E00090934F0318C080914F039091BB00E82F69
:1004F000F0E0E05BFC4F90838F5F80934F0320918F
:100500004F0330E08091640390E00197281739078A
:1005100014F485EC18C085E816C08091BB00E0910A
:100520004F03F0E0E05BFC4F808380914E038160DD
:1005300080934E0384E907C085EA05C08091B90025
:100540008093480184E08093BC00FF91EF919F91DC
:100550008F913F912F910F900FBE0F901F90189584
:100560008F70805D0895282F30E0207F307043E049
:10057000359527954A95E1F7A901440F551F440F7A
:10058000551F420F531F8F70840F0895282F6AE064
:100590000E944018482F50E074E0440F551F7A9590
:1005A000E1F7822F0E944018892F8F70842B0895C5
:1005B000DF93CF93CDB7DEB728970FB6F894DEBFA1
:1005C0000FBECDBF8F8398872F813885C90160E921
:1005D00071E00E944C18892B71F0C90164E670E04B
:1005E0000E944C18892B11F480E006C080E0237033
:1005F0003070232B09F481E028960FB6F894DEBF03
:100600000FBECDBFCF91DF910895DF92EF92FF92A1
:100610000F931F93DF93CF93CDB7DEB760970FB6DD
:10062000F894DEBF0FBECDBF29873A874B878F87EF
:10063000988BEF84F888472FD62E80E090E07330B7
:1006400010F481E090E08701081B190B2D2D30E09C
:1006500021503040200F311FC801969587959695FF
:100660008795280F391FC80160E971E00E944C1876
:10067000260F371FE42FF0E0E059FE4F8081280F4E
:10068000311DC80164E670E00E944C18C901861B48
:10069000970B67E070E00E944C188F5F8C87F88A98
:1006A000EF864E87DD86DE011196FE01399688E0E1
:1006B00001900D928150E1F729813A814B815C8153
:1006C0006D817E818F81988560960FB6F894DEBF2C
:1006D0000FBECDBFCF91DF911F910F91FF90EF9093
:1006E000DF900895EF92FF920F931F93DF93CF93C4
:1006F000CDB7DEB768970FB6F894DEBF0FBECDBF9B
:10070000982F362F122F8C3308F090E03C3308F0EE
:1007100030E0802F81508C3008F001E0EF82F886C5
:1007200099833A830E83292F4B815C816D81702FD1
:10073000C7010E94D802882339F0112371F0E02FFD
:10074000F0E0E45AFE4F06C0112339F0E02FF0E04C
:10075000E05BFE4F8081811708F411E01D83298141
:100760003A814B815C81612F7E818F8198850E94C7
:100770000503298B3A8B4B8B5C8B6D8B7E8B8F8B20
:10078000988FDE011996FE01719688E001900D9216
:100790008150E1F729853A854B855C856D857E859D
:1007A0008F85988968960FB6F894DEBF0FBECDBFCF
:1007B000CF91DF911F910F91FF90EF900895DF93FC
:1007C000CF93CDB7DEB728970FB6F894DEBF0FBE34
:1007D000CDBF5430C9F0553038F4523061F0533049
:1007E00080F45130E9F40AC05630A1F0563078F068
:1007F0005730B1F412C020E031E014C029E031E0FC
:1008000011C022E131E00EC02BE131E00BC024E247
:1008100031E008C02DE231E005C026E331E002C03E
:100820002FE331E0C90128960FB6F894DEBF0FBE62
:10083000CDBFCF91DF910895DF92EF92FF920F939A
:100840001F93DF93CF93CDB7DEB760970FB6F894C1
:10085000DEBF0FBECDBF29873A878F87988BE72EE3
:100860000F8518894F5F483120F4C801D52EF62E28
:1008700030C0F62EF394573018F0DD24D39402C024
:10088000D52ED394188B0F8729853A8540E05D2DAE
:100890006F2D7E2D802F98890E94D802EE2DF0E0DA
:1008A000882319F0E45AFE4F02C0E05BFE4F8081BE
:1008B0008F1560F47E2D7F5F7D3020F0C80101969A
:1008C00071E001C0C801FF24F39402C0C8017E2D6D
:1008D00040E04B87FD86DC867E87988B8F87DE0124
:1008E0001196FE01399688E001900D928150E1F752
:1008F00029813A814B815C816D817E818F819885D0
:1009000060960FB6F894DEBF0FBECDBFCF91DF91DA
:100910001F910F91FF90EF90DF9008950F931F9319
:10092000DF93CF93CDB7DEB768970FB6F894DEBFED
:100930000FBECDBF29874B875C876D877E878F87EA
:10094000988B3F5F8E010F5F1F4F3C33A8F01A86D4
:1009500030E00E941C04298B3A8B4B8B5C8B6D8B97
:100960007E8B8F8B988FD801FE01719688E0019065
:100970000D928150E1F709C03A87D801FE013996FE
:1009800088E001900D928150E1F729813A814B81F5
:100990005C816D817E818F81988568960FB6F89411
:1009A000DEBF0FBECDBFCF91DF911F910F91089594
:1009B000EF92FF920F931F93DF93CF93CDB7DEB7E4
:1009C00060970FB6F894DEBF0FBECDBF29873A8778
:1009D0008F87988B2F853889F52E442309F052C0D4
:1009E0006230C0F5723030F48901015010407CE073
:1009F000E72E03C0E72EEA948901188B0F8729851B
:100A00003A8547E15F2D7E2D802F98890E94D8027C
:100A1000EE2DF0E0882319F0E45AFE4F02C0E05BAF
:100A2000FE4F908181E08F1510F057E002C05F2DDE
:100A3000515087E18B879D87EE86188B0F875C87E7
:100A4000DE011196FE01399688E001900D928150E9
:100A5000E1F728C081E0851710F057E001C0515040
:100A600087E18B8761506D877E87388B2F875C8706
:100A7000DE011196FE01399688E001900D928150B9
:100A8000E1F710C041504B876D877E87388B2F87E9
:100A90005C87DE011196FE01399688E001900D9287
:100AA0008150E1F729813A814B815C816D817E81A2
:100AB0008F81988560960FB6F894DEBF0FBECDBFCC
:100AC000CF91DF911F910F91FF90EF9008950F93B9
:100AD0001F93DF93CF93CDB7DEB768970FB6F89427
:100AE000DEBF0FBECDBF29874B875C876D877E87B2
:100AF0008F87988B8E010F5F1F4F3323B9F48BE3E1
:100B00008A873BE38F850E94D804298B3A8B4B8BD5
:100B10005C8B6D8B7E8B8F8B988FD801FE017196CD
:100B200088E001900D928150E1F70AC031503A8778
:100B3000D801FE01399688E001900D928150E1F7CD
:100B400029813A814B815C816D817E818F8198857D
:100B500068960FB6F894DEBF0FBECDBFCF91DF9180
:100B60001F910F910895AF92BF92CF92EF92FF9293
:100B7000DF93CF93CDB7DEB760970FB6F894DEBFA3
:100B80000FBECDBFF716A0F07F15A0F0E61680F0DF
:100B90006E1580F0C41660F04C1560F0B31640F08E
:100BA0003B1540F0A21620F02A1520F080E003C08B
:100BB00081E001C08FEF60960FB6F894DEBF0FBEE4
:100BC000CDBFCF91DF91FF90EF90CF90BF90AF90CE
:100BD0000895AF92BF92CF92EF92FF920F931F931F
:100BE000DF93CF93CDB7DEB760970FB6F894DEBF33
:100BF0000FBECDBF8F8398870F87188BEF81F88545
:100C00008F8598898E179F07C8F0E817F907C0F0FD
:100C1000F716A0F07F15A0F0E61680F06E1580F0B4
:100C2000C41660F04C1560F0B31640F03B1540F070
:100C3000A21620F02A1520F080E003C081E001C058
:100C40008FEF60960FB6F894DEBF0FBECDBFCF9189
:100C5000DF911F910F91FF90EF90CF90BF90AF90D9
:100C600008956F3008F06FE080936703606E6093C3
:100C7000680387E693E062E00E94EE0108958093A6
:100C8000670380E88093680387E693E062E00E9450
:100C9000EE010895623829F0643819F0663809F0D9
:100CA00060E88093670361686093680387E693E078
:100CB00062E00E94EE010895FF920F931F93F82EB9
:100CC00007E613E08093670381E280936803C8011D
:100CD00062E00E94EE01F092670381E8809368036E
:100CE000C80162E00E94EE011F910F91FF900895EC
:100CF0008093670310926803E9E6F3E0119283E0C2
:100D0000E937F807D9F7CF01429762E10E94EE0177
:100D100008951F93122F8093670310926803613028
:100D200021F489E693E06EE008C089E693E06EE086
:100D30000E94E90789E693E06FE0412F0E94E907EE
:100D400087E693E062E10E94EE011F9108950F9300
:100D50001F93122F8093670310926803613019F07C
:100D6000623051F41BC089E693E060E10E94B00755
:100D700089E693E06EE00EC089E693E060E10E94B0
:100D8000B00789E693E06EE0412F0E94E90789E60B
:100D900093E06FE0402F0E94E90705C089E693E0E9
:100DA00060E10E94BC0787E693E062E10E94EE01E9
:100DB0001F910F910895FC017183608353834283D7
:100DC0003583248308950F931F93CF93DF938C0172
:100DD000FC01C281D38119C0F80180819181821701
:100DE000930791F4EA81FB81C8010995882361F09A
:100DF0008C819D81F80191838083EE81FF81309702
:100E000041F0C801099505C028962881398137FF2E
:100E1000E3CFDF91CF911F910F9108952F923F92D1
:100E20004F925F926F927F928F929F92AF92BF92FA
:100E3000CF92DF92EF92FF920F931F93DF93CF93A6
:100E4000CDB7DEB769970FB6F894DEBF0FBECDBF42
:100E5000888F998F698B5B8B4A8B3D8B2C8B1F8B7B
:100E60000E8B6C01882499245BC0F6011082EA89FC
:100E7000FB89E80DF91D3080832D90E021E0622E82
:100E8000712C032C02C0660C771C0A94E2F77E01D9
:100E90000894E11CF11CAA24BB24A81AB90A00E09A
:100EA00010E02C01222061F4EE89FF89E00FF11F90
:100EB00080812C893D89F9010995F701918380830F
:100EC000F70120813181F6014081031560F426216C
:100ED0003721C201801B910B02C0369527958A9558
:100EE000E2F7422B0AC0262137210A2C02C0220F2A
:100EF000331F0A94E2F7422BF60140830F5F1F4F26
:100F000022E030E0E20EF31E0894A11CB11C083070
:100F1000110541F60894811C911C0894C11CD11C38
:100F2000282C3989831608F4A0CF888D998D69966D
:100F30000FB6F894DEBF0FBECDBFCF91DF911F91EA
:100F40000F91FF90EF90DF90CF90BF90AF909F9068
:100F50008F907F906F905F904F903F902F9008956B
:100F60000F931F938A014DE751E02BEF37E00E946A
:100F70000E071F910F9108950F931F938A014DE85B
:100F800051E028E938E00E940E071F910F91089563
:100F9000FC01DC01A60FB11D81E090E002C0880FCA
:100FA000991F4A95E2F72C91282B2C93CF01089595
:100FB000FC01DC01A60FB11D81E090E002C0880FAA
:100FC000991F4A95E2F780952C9128232C93CF0105
:100FD00008959C01FC01E60FF11D8081842B808324
:100FE000C90108959C01FC01E60FF11D8081842355
:100FF0008083C901089590E0FC01B097E638F105BF
:1010000008F074C0EC5CFF4FEE0FFF1F0590F491E9
:10101000E02D099426E030E089C02FE330E086C05F
:101020002BE530E083C02FE430E080C026E630E0DE
:101030007DC02DE730E07AC027E030E077C02FE7B1
:1010400030E074C027E730E071C02CE730E06EC0BC
:1010500028E530E06BC029E330E068C02EE530E0E1
:1010600065C02BE730E062C029E730E05FC021E7D0
:1010700030E05CC02DE330E059C024E730E056C0DA
:1010800020E130E053C02EE130E050C02FE130E0ED
:101090004DC020E730E04AC028E330E047C025E5F6
:1010A00030E044C02CE530E041C023E730E03EC0F2
:1010B0002CED30E03BC02FEB30E038C020E530E0D5
:1010C00035C028E730E032C02CE930E02FC02EEBED
:1010D00030E02CC020E030E029C020E430E026C021
:1010E00022E830E023C020E830E020C028E030E0F3
:1010F0001DC02DE630E01AC02FE630E017C026E70D
:1011000030E014C020E330E011C024E530E00EC030
:1011100027E330E00BC021E330E008C02CE130E0F1
:1011200005C02EE330E002C02EE630E0C90108958C
:1011300090E0FC01B097E23DF10508F0EFC0E65405
:10114000FF4FEE0FFF1F0590F491E02D099426E06C
:1011500031E0F2C02FE330E0EFC02BE132E2ECC02F
:101160002FE032E0E9C026E232E2E6C02DE332E2CF
:10117000E3C027E030E0E0C02FE332E2DDC02FE241
:1011800032E2DAC02FE132E2D7C027E332E2D4C044
:101190002CE332E2D1C02FE83AE0CEC028E132E2BF
:1011A000CBC02EE032E2C8C02FE838E0C5C02BE348
:1011B00032E2C2C029E330E2BFC021E330E2BCC06A
:1011C00021E332E2B9C027E236E2B6C02DE332E0D5
:1011D000B3C024E332E2B0C026E332E2ADC029E876
:1011E00038E0AAC026E034E0A7C02FE130E0A4C078
:1011F00020E83DE0A1C020E335E29EC028E330E0D6
:101200009BC024E13AE298C026E731E095C026E78A
:1012100034E092C027E734E08FC02CE132E28CC08A
:1012200023E83AE089C023E332E286C027E232E2D3
:1012300083C02FE334E080C020E130E27DC023E3AF
:1012400036E27AC02DE432E077C028E330E274C0A1
:1012500021E838E071C02CE130E06EC02EE330E0D0
:101260006BC020E130E168C020E331E165C024E1DA
:1012700034E162C026E334E15FC020E435E15CC0C4
:101280002EE832E059C020E439E056C029E033E1CD
:1012900053C029E031E150C020E030E04DC020E0F3
:1012A00032E24AC023E03AE847C022E030E844C0D6
:1012B00020E030E841C020E030E13EC02FE030E0E7
:1012C0003BC020EC3DE138C020E83AE235C028E8D8
:1012D0003AE232C020E031E12FC020E434E02CC0FB
:1012E00020E430E129C020E035E026C028E032E2E9
:1012F00023C020E830E020C022E830E01DC020E01C
:1013000031E01AC020E430E017C024E032E214C01B
:1013100020E637E311C02FE138E20EC028E030E0CC
:101320000BC02DE232E208C029E330E005C020E81E
:1013300038E002C024E132E2C901089580916503DA
:101340009091660320E0892B09F421E0822F089513
:101350008091650390916603892B19F480E090E0F9
:10136000089580918503882319F420E030E010C0AF
:1013700040E02091790330917A0380917B03909132
:101380007C032817390708F441E081E04827242F1F
:1013900090E0222309F491E081E09827892F0895B5
:1013A0008091650390916603089580916503909103
:1013B000660320E08F77892B09F421E0822F0895BE
:1013C000809165039091660385FD03C080E090E005
:1013D0000895809165039091660324E09695879522
:1013E0002A95E1F7817008958091650390916603D5
:1013F00085FD03C081E090E00895809165039091A0
:10140000660334E0969587953A95E1F78095909537
:101410008170907008958091650390916603807447
:101420000895809165039091660380780895809176
:10143000650390916603807408958091650390918F
:10144000660320E0892B09F021E0822F0895809126
:101450008703089590E080918703882309F491E041
:10146000892F089590937C0380937B0310927A03D5
:101470001092790381E0809385030895109285038B
:10148000089580918503882319F480E090E0089501
:1014900040E02091790330917A0380917B03909111
:1014A0007C032817390708F441E081E04827842F9E
:1014B000089580918503882369F080917903909144
:1014C0007A038F3F910550F4019690937A038093AD
:1014D0007903089510927A03109279030895ECE746
:1014E000F0E0808180668083EAE7F0E080818768B1
:1014F0008083089590917C008F70907F892B8093DA
:101500007C0080917A00806480937A0080917A00D8
:1015100086FDFCCF8091790008950F93109285038A
:1015200080917D0380FF3AC0809183039091840372
:1015300068EE73E00E944C18862F0E94B0028093E0
:101540004D01809183039091840368EE73E00E94C3
:101550004C1864E670E00E944C18862F0E94B0027E
:1015600080934E01809183039091840364E670E040
:101570000E944C186AE070E00E944C18862F0E946E
:10158000B00280934F0180918303909184036AE0BD
:1015900070E00E944C180E94B00207C080E2809365
:1015A0004D0180934E0180934F01809350018091B3
:1015B00081030E94C60282958F700E94B0028093C0
:1015C0004901809181030E94C6020E94B00280936B
:1015D0004A01809182030E94C60282958F700E9408
:1015E000B00280934B01809182030E94C6020E9448
:1015F000B00280934C0180EE60E049E451E02AE0C3
:1016000000E00E94A70680917F030E94C602829597
:101610008F700E94B0028093490180917F030E94E5
:10162000C6020E94B00280934A0180917E030E940C
:10163000C60282958F700E94B00280934B01809108
:101640007E030E94C6020E94B00280934C0100916A
:101650007D030170000F82EE61E049E451E020E07B
:101660000E94A7060F9108950F9310928503809111
:101670007D0380FF11C0809182030E94C602829583
:101680008F700E94B00280934B01809182030E9470
:10169000C6020E94B00203C080E280934B01809397
:1016A0004C01809181030E94C60282958F700E9436
:1016B000B00280934901809181030E94C6020E947A
:1016C000B00280934A01809183039091840368EE75
:1016D00073E00E944C18862F0E94B00280934D0147
:1016E000809183039091840368EE73E00E944C180C
:1016F00064E670E00E944C18862F0E94B00280932E
:101700004E01809183039091840364E670E00E940F
:101710004C186AE070E00E944C18862F0E94B002BC
:1017200080934F0180918303909184036AE070E07D
:101730000E944C180E94B0028093500180EE60E03D
:1017400049E451E02AE000E00E94A70680917F036F
:101750000E94C60282958F700E94B0028093490158
:1017600080917F030E94C6020E94B00280934A01CA
:1017700080917E030E94C60282958F700E94B00203
:1017800080934B0180917E030E94C6020E94B002AA
:1017900080934C0100917D030170000F82EE61E0A7
:1017A00049E451E020E00E94A7060F9108950F93AD
:1017B0001092850380917D0380FF11C08091810389
:1017C0000E94C60282958F700E94B00280934901E8
:1017D000809181030E94C6020E94B00203C080E291
:1017E0008093490180934A01809182030E94C6023E
:1017F00082958F700E94B00280934B01809182038A
:101800000E94C6020E94B00280934C018091830323
:101810009091840368EE73E00E944C18862F0E941A
:10182000B00280934D01809183039091840368EE10
:1018300073E00E944C1864E670E00E944C18862FFA
:101840000E94B00280934E018091830390918403A3
:1018500064E670E00E944C186AE070E00E944C1848
:10186000862F0E94B00280934F0180918303909154
:1018700084036AE070E00E944C180E94B0028093DA
:10188000500180EE60E049E451E02AE000E00E946F
:10189000A70680917F030E94C60282958F700E94E6
:1018A000B0028093490180917F030E94C6020E948A
:1018B000B00280934A0180917E030E94C602829505
:1018C0008F700E94B00280934B0180917E030E9432
:1018D000C6020E94B00280934C0100917D0301700A
:1018E000000F82EE61E049E451E020E00E94A7068B
:1018F0000F9108950F931092850380917D0380FFCF
:1019000011C080917E030E94C60282958F700E9452
:10191000B00280934B0180917E030E94C6020E9418
:10192000B00203C080E280934B0180934C01809110
:101930007F030E94C60282958F700E94B00280933E
:10194000490180917F030E94C6020E94B0028093E9
:101950004A0100917D030170000F82EE61E049E4CD
:1019600051E020E00E94A706809181030E94C602F8
:1019700082958F700E94B00280934901809181030B
:101980000E94C6020E94B00280934A0180918203A5
:101990000E94C60282958F700E94B00280934B0114
:1019A000809182030E94C6020E94B00280934C0183
:1019B000809183039091840368EE73E00E944C1839
:1019C000862F0E94B00280934D01809183039091F5
:1019D000840368EE73E00E944C1864E670E00E9495
:1019E0004C18862F0E94B00280934E018091830391
:1019F0009091840364E670E00E944C186AE070E005
:101A00000E944C18862F0E94B00280934F01809153
:101A10008303909184036AE070E00E944C180E9456
:101A2000B0028093500180EE60E049E451E02AE08A
:101A300000E00E94A7060F9108950F93109285036E
:101A400080917D0380FF11C080917F030E94C602B8
:101A500082958F700E94B0028093490180917F032C
:101A60000E94C6020E94B00203C080E28093490136
:101A700080934A0180917E030E94C60282958F70F6
:101A80000E94B00280934B0180917E030E94C602A7
:101A90000E94B00280934C0100917D030170000F01
:101AA00082EE61E049E451E020E00E94A7068091C7
:101AB00081030E94C60282958F700E94B0028093BB
:101AC0004901809181030E94C6020E94B002809366
:101AD0004A01809182030E94C60282958F700E9403
:101AE000B00280934B01809182030E94C6020E9443
:101AF000B00280934C01809183039091840368EE3F
:101B000073E00E944C18862F0E94B00280934D0112
:101B1000809183039091840368EE73E00E944C18D7
:101B200064E670E00E944C18862F0E94B0028093F9
:101B30004E01809183039091840364E670E00E94DB
:101B40004C186AE070E00E944C18862F0E94B00288
:101B500080934F0180918303909184036AE070E049
:101B60000E944C180E94B0028093500180EE60E009
:101B700049E451E02AE000E00E94A7060F91089591
:101B8000CF92DF92EF92FF920F931F9351E8E52ED1
:101B900053E0F52E809181030E94C60282958F70DA
:101BA0000E94B00249E4C42E41E0D42E8093490142
:101BB000809181030E94C6020E94B00280934A0174
:101BC000809182030E94C60282958F700E94B002AB
:101BD00080934B01809182030E94C6020E94B00252
:101BE00080934C01809183039091840368EE73E0AD
:101BF0000E944C18862F0E94B00280934D01809164
:101C000083039091840368EE73E00E944C1864E6AD
:101C100070E00E944C18862F0E94B00280934E0103
:101C2000809183039091840364E670E00E944C18D5
:101C30006AE070E00E944C18862F0E94B0028093E8
:101C40004F0180918303909184036AE070E00E94C9
:101C50004C180E94B0028093500180EE60E0A60113
:101C60002AE000E00E94A706870102501040F80118
:101C700080810E94C60282958F700E94B00280937C
:101C80004901F80180810E94C6020E94B00280933F
:101C90004A01870103501040F80180810E94C6026A
:101CA00082958F700E94B00280934B01F801808171
:101CB0000E94C6020E94B00280934C018CEF9FEFFD
:101CC000E80EF91EF70100810170000F82EE61E05D
:101CD000A60120E00E94A70620917D0330917E039B
:101CE00040917F0350918003609181037091820342
:101CF00080918303909184030E94DF03AC0184EE02
:101D000062E020E000E00E94A7061F910F91FF9083
:101D1000EF90DF90CF9008950E94C00D0895EF924C
:101D20000F931F93CF93DF93EC0180916503909104
:101D3000660385FF06C0809165039091660384FD6C
:101D400046C0809165039091660385FF13C0809122
:101D5000830390918403019690938403809383037B
:101D6000809183039091840384539840E0F08CE643
:101D700097E015C0809165039091660384FF13C0BE
:101D800080918303909184038D56974018F483E3E8
:101D900098E005C08091830390918403019790930C
:101DA00084038093830380ED00917D0310917E0373
:101DB00020917F03309180034091810350918203F1
:101DC0006091830370918403EE240E94F815CE0184
:101DD0000E94C00DDF91CF911F910F91EF90089558
:101DE00028EE33E030937C0320937B0310927A0338
:101DF0001092790321E0209385030E948F0E0895AD
:101E0000109285030E94C00D0895EF920F931F93C7
:101E1000CF93DF93EC01809165039091660385FF7A
:101E200006C0809165039091660384FD36C0809161
:101E300065039091660385FF0BC0809182038F5FDD
:101E400080938203809182038D3098F081E00FC0EF
:101E5000809165039091660384FF0BC0809182039B
:101E6000823010F48CE003C0809182038150809313
:101E7000820380ED00917D0310917E0320917F030A
:101E800030918003409181035091820360918303DC
:101E900070918403EE240E94F815CE010E94C00DBB
:101EA000DF91CF911F910F91EF90089528EE33E0CD
:101EB00030937C0320937B0310927A031092790372
:101EC00021E0209385030E94050F0895EF920F9360
:101ED0001F93CF93DF93EC0180916503909166038C
:101EE00085FF06C0809165039091660384FD57C00D
:101EF00020917D0330917E0340917F0350918003B8
:101F00006091810370918203809183039091840397
:101F10000E94D802882331F0E0918203F0E0E45A75
:101F2000FE4F05C0E0918203F0E0E05BFE4FE081F0
:101F3000809165039091660385FF0BC080918103BA
:101F40008F5F8093810380918103E817A0F481E083
:101F500010C0809165039091660384FF0CC080914E
:101F60008103823018F4E093810305C080918103DE
:101F700081508093810380ED00917D0310917E0359
:101F800020917F033091800340918103509182031F
:101F90006091830370918403EE240E94F815CE01B2
:101FA0000E94C00DDF91CF911F910F91EF90089586
:101FB00028EE33E030937C0320937B0310927A0366
:101FC0001092790321E0209385030E94660F089503
:101FD000EF920F931F93CF93DF93EC0180916503F2
:101FE0009091660385FF06C080916503909166031A
:101FF00084FD39C0809165039091660385FF0EC012
:1020000080917E038F5F80937E0380917E038C336B
:1020100010F010927E0310927D0311C08091650331
:102020009091660384FF0BC080917E03882311F496
:102030008BE303C080917E03815080937E0380ED0B
:1020400000917D0310917E0320917F0330918003E6
:1020500040918103509182036091830370918403C6
:10206000EE240E94F815CE010E94C00DDF91CF91A1
:102070001F910F91EF90089528EE33E030937C0389
:1020800020937B0310927A031092790321E020932E
:1020900085030E94E80F0895EF920F931F93CF934B
:1020A000DF93EC01809165039091660385FF06C084
:1020B000809165039091660384FD39C0809165032A
:1020C0009091660385FF0CC080917F038F5F8093A2
:1020D0007F0380917F038831A0F010927F0311C0AD
:1020E000809165039091660384FF0DC080917F030A
:1020F000882311F487E103C080917F03815080938E
:102100007F0310927D0380ED00917D0310917E038B
:1021100020917F033091800340918103509182038D
:102120006091830370918403EE240E94F815CE0120
:102130000E94C00DDF91CF911F910F91EF900895F4
:1021400028EE33E030937C0320937B0310927A03D4
:102150001092790321E0209385030E944C1008958A
:102160000F931F938C0180ED0E94691480EE60E84C
:102170000E944A0682EE60E80E944A06C8010E9458
:10218000C00D1F910F9108950F931F938C0180EE46
:1021900060E80E944A0682EE60E80E944A06C80192
:1021A0000E94C00D1F910F9108950F939C01809183
:1021B0007D0380FF04C0C9010E94C00D20C080E2E1
:1021C0008093490180934A0180934B0180934C0195
:1021D00080934D0180934E0180934F018093500175
:1021E00080EE60E049E451E020E000E00E94A706B4
:1021F00082EE61E049E451E020E00E94A7060F91E1
:102200000895CF92DF92EF920F931F93DF93CF93B6
:10221000CDB7DEB728970FB6F894DEBF0FBECDBF9F
:102220006C0120917D0330917E0340917F0350919A
:102230008003609181037091820380918303909168
:1022400084030E94050329833A834B835C836D8357
:102250007E838F839887ADE7B3E0FE01319688E0F7
:1022600001900D928150E1F780ED00917D03109176
:102270007E0320917F033091800340918103509130
:1022800082036091830370918403EE240E94F81509
:10229000C6010E94C00D28960FB6F894DEBF0FBE8F
:1022A000CDBFCF91DF911F910F91EF90DF90CF9035
:1022B0000895109285030E94C00D08952F923F92B9
:1022C0004F925F926F927F928F929F92AF92BF9246
:1022D000CF92DF92EF92FF920F931F93DF93CF93F2
:1022E000CDB7DEB7CF5BD1400FB6F894DEBF0FBEDF
:1022F000CDBF1982DE011896EDE9F1E080EB91E0A7
:1023000001900D920197E1F7CE01029661E070E035
:10231000AE01485F5F4F20E030E00E94DB060E9484
:10232000AB010E94D90180917C00806680937C0083
:1023300080917A00876880937A00789480EE0E947A
:102340005C0682EE0E945C0684EE0E945C0680EED3
:1023500060E049E451E020E000E00E94A70682EE40
:1023600060E049E451E020E00E94A70684EE62E0CC
:1023700049E451E020E00E94A70683E00E947A0A27
:1023800082958F708983698180EE0E943106698110
:1023900082EE0E943106698184EE0E94310684E05B
:1023A0006EE441E050E00E94F2178E0108541E4F87
:1023B0008AEB282E81E0382E2C0E3D1EBBEB4B2ED7
:1023C000B1E05B2E4C0E5D1EACEB6A2EA1E07A2EC6
:1023D0006C0E7D1EFDEB8F2EF1E09F2E8C0E9D1E50
:1023E000EEEBAE2EE1E0BE2EAC0EBD1E7FEBC72E97
:1023F00071E0D72ECC0EDD1E62E0E62EF12CEC0E45
:10240000FD1E80ED60E00E947817F8012083C7541C
:10241000DE4F3883C95BD140F1014083F201508324
:10242000F3016083F4017083F5018083F6019083EA
:10243000ADE7B3E0F80188E001900D928150E1F73B
:1024400080ED0E94A514809387030E94590A0E9480
:10245000C40183E00E947A0A82958F708983FFE02D
:10246000F983698180EE0E943106698182EE0E94C3
:102470003106698184EE0E943106C7010E94E3069D
:102480000E940918BECFEF92FF920F931F93DF9324
:10249000CF9300D000D0CDB7DEB7F82E89838EE081
:1024A000E82EEA828E010F5F1F4FC80162E00E9492
:1024B000EE018F2D81608983C80164E00E94EE01E6
:1024C000C80164E00E941D029A8195FD0BC08B81BA
:1024D00082FD08C0F98290629B83EA82C80163E0B2
:1024E0000E94EE010F900F900F900F90CF91DF910F
:1024F0001F910F91FF90EF900895FF920F931F93FC
:10250000DF93CF9300D000D0CDB7DEB7F82E89830C
:102510008EE08A838E010F5F1F4FC80162E00E9428
:10252000EE0181E0F82AF982C80164E00E94EE0120
:10253000C80164E00E941D028A8185FF02C08FEFFE
:1025400006C08B8182FD02C080E001C08FE00F9049
:102550000F900F900F90CF91DF911F910F91FF90EF
:102560000895FF920F931F93DF93CF9300D000D075
:10257000CDB7DEB7F82E898381E18A838E010F5FA4
:102580001F4FC80162E00E94EE0181E0F82AF98243
:10259000C80164E00E94EE01C80164E00E941D02CF
:1025A0009A8180E02B8130E0282B392BC9010F90D4
:1025B0000F900F900F90CF91DF911F910F91FF908F
:1025C0000895DF92EF92FF920F931F93DF93CF93C3
:1025D00000D00F92CDB7DEB7F82EE62E89839FE0AC
:1025E000D92EDA828E010F5F1F4FC80162E00E9470
:1025F000EE018F2D81608983C80163E00E94EE01A6
:10260000C80163E00E941D02F98283E0E8228A810A
:102610008C7F8E298B83DA82C80163E00E94EE01F1
:102620000F900F900F90CF91DF911F910F91FF901E
:10263000EF90DF900895FF920F931F93DF93CF9356
:1026400000D00F92CDB7DEB7F82E89838FE08A8352
:102650008E010F5F1F4FC80162E00E94EE0181E012
:10266000F82AF982C80163E00E94EE01C80163E024
:102670000E941D028A8183700F900F900F90CF915E
:10268000DF911F910F91FF900895DF92EF92FF92DB
:102690000F931F93DF93CF9300D00F92CDB7DEB788
:1026A000F82EE62ED42E89838EE08A838E010F5F6A
:1026B0001F4FC80162E00E94EE018F2D8160898367
:1026C000C80163E00E94EE01C80163E00E941D02A0
:1026D0002A81922F9C7F9B8381E0E81641F08FEF47
:1026E000E81639F4822F8170892B8B8302C09160A8
:1026F0009B8381E0D81639F08FEFD81639F4227019
:102700008B81822B02C08B8182608B838EE08A83D7
:10271000F982CE01019663E00E94EE010F900F90C6
:102720000F90CF91DF911F910F91FF90EF90DF906D
:102730000895FF920F931F93DF93CF9300D00F92D2
:10274000CDB7DEB7F82E89838EE08A838E010F5FC6
:102750001F4FC80162E00E94EE0181E0F82AF98271
:10276000C80163E00E94EE01C80163E00E941D02FF
:102770008A8183700F900F900F90CF91DF911F91FE
:102780000F91FF900895FF920F931F93DF93CF93C4
:1027900000D000D00F92CDB7DEB7F82E89838BE042
:1027A0008A838E010F5F1F4FC80162E00E94EE0115
:1027B00081E0F82AF982C80164E00E94EE01C801B4
:1027C00064E00E941D024C8150E08B8190E0807893
:1027D0009070E5E095958795EA95E1F72A8130E0DC
:1027E0002078307076E0359527957A95E1F7822B41
:1027F0009A012078307064E0359527956A95E1F765
:10280000822B407450705595479555954795842B6C
:102810000F900F900F900F900F90CF91DF911F911D
:102820000F91FF900895FF920F931F93DF93CF9323
:1028300000D000D000D0CDB7DEB7F82E898387E076
:102840008A838E010F5F1F4FC80162E00E94EE0174
:1028500081E0F82AF982C80165E00E94EE01C80112
:1028600065E00E941D024D8150E08B8190E08078F0
:10287000907016E0959587951A95E1F72C8130E0D8
:1028800020783070B5E035952795BA95E1F7822B21
:102890002A81221F2227221F822B9A012078307042
:1028A000A4E035952795AA95E1F7822B40745070E6
:1028B0005595479555954795842B26960FB6F894D0
:1028C000DEBF0FBECDBFCF91DF911F910F91FF9063
:1028D0000895DF92EF92FF920F931F93DF93CF93B0
:1028E00000D00F92CDB7DEB7F82E89830FE0D02E3F
:1028F000DA828E010F5F1F4FC80162E00E94EE0175
:102900008F2D81608983C80163E00E94EE01C801B8
:1029100063E00E941D02EA80F982DA828E2D8C70BB
:1029200083608B83C80163E00E94EE018E2D881FB7
:102930008827881F0F900F900F90CF91DF911F91E4
:102940000F91FF90EF90DF900895FF920F931F93E8
:10295000DF93CF9300D00F92CDB7DEB7F82E8983E7
:102960008FE08A838E010F5F1F4FC80162E00E94D3
:10297000EE0181E0F82AF982C80163E00E94EE01CD
:10298000C80163E00E941D0290E08A8187FD91E00A
:10299000892F0F900F900F90CF91DF911F910F9182
:1029A000FF900895BF92CF92DF92EF92FF920F9324
:1029B0001F93DF93CF93CDB7DEB72D970FB6F89463
:1029C000DEBF0FBECDBF0E83F12F1F83E22F2887FE
:1029D0003987942F4A875B876C877D874E2DFE2E23
:1029E000D32EB92E89838BE08A83EE2079F50C2DC6
:1029F00010E08F2F0E94C602980176E0220F331F4D
:102A00007A95E1F72078282B2B838F2D0E94C60220
:102A10008F7B980165E0220F331F6A95E1F72078DC
:102A2000822B8C83780154E0EE0CFF1C5A95E1F761
:102A3000C6FE04C020E4D22A8E2D22C08B2D0E9417
:102A4000C6029E2D9078982B9D8320C04F3F19F58C
:102A50002C2D30E0C90146E0880F991F4A95E1F717
:102A60008078812B8B838FE3F822FC82C90134E0CC
:102A7000880F991F3A95E1F7C6FE05C020E4D22AD7
:102A800080788D2902C080788B298D83CE010196B4
:102A900069E00E94EE012D960FB6F894DEBF0FBEDE
:102AA000CDBFCF91DF911F910F91FF90EF90DF90FD
:102AB000CF90BF900895BF92CF92DF92EF92FF9296
:102AC0000F931F93DF93CF93CDB7DEB72E970FB63B
:102AD000F894DEBF0FBECDBFA02F0F831887E22F63
:102AE00029873A87942F4B875C876D877E874E2D89
:102AF000E12EFE2ED32EB92E898387E08A834423CC
:102B0000D1F50C2D10E08A2F0E94C602980136954F
:102B1000322F222737952795822B8B838E2D0E946B
:102B2000C602980146E0220F331F4A95E1F720784C
:102B3000282B2C838F2D0E94C6028F7B980195E055
:102B4000220F331F9A95E1F72078822B8D8378012D
:102B500014E0EE0CFF1C1A95E1F7C6FE04C020E459
:102B6000D22A8E2D2AC08B2D0E94C6029E2D9078CF
:102B7000982B9E8328C04F3F59F52C2D30E0C9017A
:102B80009695982F882797958795A82BAB83C90191
:102B9000F6E0880F991FFA95E1F78078812B8C83F6
:102BA0008FE3F822FD82C901E4E0880F991FEA95BE
:102BB000E1F7C6FE05C020E4D22A80788D2902C044
:102BC00080788B298E83CE01019669E00E94EE0108
:102BD0002E960FB6F894DEBF0FBECDBFCF91DF911A
:102BE0001F910F91FF90EF90DF90CF90BF900895CD
:102BF000BF92CF92DF92EF92FF920F931F93DF93DA
:102C0000CF93CDB7DEB761970FB6F894DEBF0FBE96
:102C1000CDBFB02F0A87A12F1B87F22F2C87E32F60
:102C20003D874E875F87688B798B3E2DD12E1F2F76
:102C3000CE2EB42EE888F988052F89831A82332393
:102C400059F58B2F0E94C6028B838D2D0E94C602E0
:102C50008C83812F0E94C6028F738D83CE828B2D31
:102C60000E94C6028F8380EDE81687E0F80630F4F4
:102C7000802F0E94C6028F71806804C0802F0E943E
:102C8000C6028F718887C70164E670E00E944C1805
:102C90000E94C602898710C03F3F99F4BB83AC8372
:102CA0001F731D83EE834F83C701969587958078A8
:102CB0000F71802B8887E986CE01019669E00E941A
:102CC000EE0161960FB6F894DEBF0FBECDBFCF9177
:102CD000DF911F910F91FF90EF90DF90CF90BF9009
:102CE0000895EF92FF920F931F93DF93CF93CDB789
:102CF000DEB765970FB6F894DEBF0FBECDBF182FB5
:102D0000062F89838BE08A837E010894E11CF11CE5
:102D1000C70162E00E94EE0111601983C70164E0FF
:102D20000E94EE01C70164E00E941D020023F9F435
:102D30008A818F770E94B302E82E8B818F730E9465
:102D4000B302182F8C8186FD03C080E00E94B3027D
:102D50001E82EF82188719868A87DE011E96FE0181
:102D6000369688E001900D928150E1F725C09E01D2
:102D7000225F3F4FAE014A5F5F4F0F3F89F49A8158
:102D80009F778B818F731E829F83888719861A860F
:102D9000D901FA0188E001900D928150E1F70CC051
:102DA0001E821F82188619861A86D901FA0188E0C8
:102DB00001900D928150E1F72E853F854889598910
:102DC0006A897B898C899D8965960FB6F894DEBFE8
:102DD0000FBECDBFCF91DF911F910F91FF90EF906C
:102DE0000895EF92FF920F931F93DF93CF93CDB788
:102DF000DEB766970FB6F894DEBF0FBECDBF182FB3
:102E0000062F898387E08A837E010894E11CF11CE8
:102E1000C70162E00E94EE0111601983C70165E0FD
:102E20000E94EE01C70165E00E941D02002321F50A
:102E30008A818F770E94B302082F8B818F770E943F
:102E4000B302E82E8C818F730E94B302182F8D81FC
:102E500086FD03C080E00E94B3020F83E8861987D5
:102E60001A868B87DE011F96FE01379688E0019057
:102E70000D928150E1F727C0AE01415F5F4FBE0167
:102E8000695F7F4F0F3F99F42B812F779C819F7350
:102E90008A818F778F83288799871A861B86DA0124
:102EA000FB0188E001900D928150E1F70CC01F8278
:102EB000188619861A861B86DA01FB0188E00190C4
:102EC0000D928150E1F72F85388949895A896B899C
:102ED0007C898D899E8966960FB6F894DEBF0FBEF9
:102EE000CDBFCF91DF911F910F91FF90EF9008958B
:102EF000CF92DF92EF92FF920F931F93DF93CF93C6
:102F0000CDB7DEB761970FB6F894DEBF0FBECDBF69
:102F1000F82EE62E89871A868E01075F1F4FC8019B
:102F200062E00E94EE0181E0F82AF986C80168E0BB
:102F30000E94EE01C80168E00E941D02EE2029F502
:102F40008A850E94B302C82E8B850E94B302D82EB8
:102F50008C850E94B302182FED848E850E94B302E7
:102F6000F82E8F858F710E94B302082F88890E94E6
:102F7000B302282F30E0F901E053F84F8F8587FF27
:102F800019C0F901E459F84F15C08FEFE81691F414
:102F9000CA84DB841C85ED84FE847F85888977FF65
:102FA00004C0E82FF0E0F96103C0E82FF0E0F06220
:102FB000072F0F71F887EF839601412F5E2D6F2D3C
:102FC000702F8E2F988561960FB6F894DEBF0FBED6
:102FD000CDBFCF91DF911F910F91FF90EF90DF90C8
:102FE000CF90089550938B0340938A0310928903E6
:102FF000109288031092860392E094BD67BD16BCC0
:10300000A99AEEE6F0E0908192609083877085BD8A
:103010000895809186038823E1F310928603089532
:103020001F920F920FB60F9211242F933F938F93FD
:103030009F938091880390918903019690938903CF
:1030400080938803209188033091890380918A03BB
:1030500090918B038217930750F4809186038F5FC2
:1030600080938603109289031092880316BC9F9167
:103070008F913F912F910F900FBE0F901F90189539
:10308000991B79E004C0991F961708F0961B881FBA
:103090007A95C9F780950895AA1BBB1B51E107C01B
:1030A000AA1FBB1FA617B70710F0A61BB70B881FD8
:1030B000991F5A95A9F780959095BC01CD01089567
:0430C000F894FFCFB2
:1030C4004D41525445532020004C554E4553202029
:1030D40020004D494552434F4C45004A55455645FD
:1030E40053202000564945524E4553200053414237
:1030F40041444F202000444F4D494E474F2000206B
:103104002020202020202000F82020202020202003
:10311400201F1C1F1E1F1E1F1F1E1F1E1F1F1D1FC3
:103124001E1F1E1F1F1E1F1E1F000000060101D0B0
:103134000700030205000305010406020400080158
:1031440009020A030B040C050D060E070F00030504
:103154000104020D09070B06080C0A0F0E02009E5B
:10316400090100C00D0200D0090200C00D010027B2
:103174000A0300D51001000B0A0700C00D0100D599
:10318400090100C00D03000B0A0700B0100300275B
:103194000A0300D51003002A0A0100C41007009E88
:1031A4000905001D0D0700A809060059110700D0E4
:1031B400090700C00D06001D0A06004C1006009EFB
:1031C4000905001D0D05009E0905001D0D050017CC
:1031D4000A020001110500110A0A007A0C05001DFB
:1031E4000A0700A0100A009E0908007A0C0A00A829
:1031F40009090059110A00D0090A00C00D09001D6F
:103204000A0900E80F09009E0908007A0C08009ECC
:103214000908007A0C0800170A02000111080011BD
:103224000A0D00D70B08001D0A0A003C100D009E71
:10323400090B00D70B0D00A8090C0059110D00D083
:10324400090D00C00D0C001D0A0C00660F0C009E39
:10325400090B00D70B0B009E090B00D70B0B0017B3
:103264000A020001110B00110A1000340B0B001D9F
:103274000A0D00D80F10009E090E00340B1000A890
:10328400090F0059111000D0091000C00D0F001DC6
:103294000A0F00050F0F009E090E00340B0E009E4E
:1032A400090E00340B0E00170A020001110E001162
:1032B4000A13008D0A0E001D0A1000560F13009EFB
:1032C4000911008D0A1300A8091200000F1300D081
:1032D4000913008C0E12001D0A12008F0E12009E9C
:1032E4000911008D0A11009E0911008D0A110017A1
:1032F4000A020001111100110A0200011111001D3E
:0E3304000A1300F00EFFFF0000FFFF000000A4
:00000001FF
