:100000000C94A1010C94BE010C94BE010C94BE0191
:100010000C94BE010C94BE010C94BE010C94BE0164
:100020000C94BE010C94BE010C94BE010C94BE0154
:100030000C94BE010C94BE010C948F1D0C94BE0157
:100040000C94BE010C94BE010C94BE010C94BE0134
:100050000C94BE010C94BE010C94BE010C94BE0124
:100060000C94D1040C94BE018D0B930B9C0B9C0B38
:100070009C0B9C0B9C0B9C0B9C0B9C0B9C0B9C0B48
:10008000960B900B960B9C0B300B2D0B330B360BFA
:10009000390B9F0B3C0B3F0B420BA20B9C0B9C0B99
:1000A0009C0B9C0B9C0B9C0B9C0B450B480B4E0B11
:1000B000510B570B5A0B5D0BA50BA80B690B6C0B67
:1000C0006F0BAE0BAE0B300B780B7E0BB10B9F0B97
:1000D000B10BB70BB70B8A0BA50BBA0B9F0B9C0B85
:1000E0009C0B9C0B9C0B9C0B9C0B450B480B4B0BD4
:1000F000510B540B5A0BA20B600B630B660B6C0B72
:10010000A80BAB0BAB0B750B780B7B0B810B9F0B11
:10011000840BB40BB40B870BA50BBA0B9F0B9C0B7A
:100120009C0B9C0B9C0B9C0B9C0B9C0B9C0B9C0B97
:100130009C0B9C0B9C0B9C0B9C0B9C0B9C0B9C0B87
:100140009C0B9C0B9C0B9C0B9C0B9C0B9C0B9C0B77
:100150009C0B9C0B9C0B9C0B9C0B9C0B9C0B9C0B67
:100160009C0B9C0B9C0B9C0B9C0B9C0B9C0B9C0B57
:10017000720B720B9C0B9C0B9C0B9C0B9C0B9C0B9B
:100180009C0B9C0B9C0B9C0B9C0B9C0B9C0B9C0B37
:100190009C0B9C0B9C0B9C0B9C0B9C0B990B720C53
:1001A0007B0CA20CB40CB40CAE0CB40C9F0CBA0CAF
:1001B000840C870C8A0C810C750C7E0C900CD00B77
:1001C000CD0BD30BD60BD90BB70CDC0BDF0BE20B33
:1001D000E50BB40CB40C990C9C0C960C780CB10C7F
:1001E000EB0BF10BBA0CFA0B000C060C0C0C120CFE
:1001F000150C1B0C210C240C2A0C2D0CD00B390CCB
:100200003F0C450CB70C4E0C540C5A0C600C630C94
:10021000690C6F0CBA0C930C840CB40CB40CA80CC5
:10022000E80BEE0BF40BF70BFD0B030C090C0F0C9A
:10023000BD0C180C1E0CBD0C270CC00C330C360C5E
:100240003C0C420C480C4B0C510C570C5D0C630CD5
:10025000660C6C0CB40CBD0CB40C750CB40CB40C6A
:10026000B40CB40CB40CB40CB40CB40CB40CB40C8E
:10027000B40CB40CB40CB40CB40CB40CB40CB40C7E
:10028000B40CB40CB40CB40CB40CB40CB40CB40C6E
:10029000B40CB40CB40CB40CB40CB40CB40CB40C5E
:1002A000B40CB40CB40CC00C300CB40CB40CB40CC6
:1002B000B40CB40CB40CAB0CB40CB40CB40CB40C47
:1002C000B40CB40CB40CA50CB40CB40C7E0CB40C73
:1002D000B40CB40CB40CB40CB40CB40CB40CB40C1E
:1002E000B40CB40CB40CB40CB40CB40CB40CB40C0E
:1002F000B40CB40CB40CB40CB40CB40CB40CB40CFE
:10030000B40CB40CB40CB40CB40CB40CB40CB40CED
:10031000B40CB40CB40CB40CB40CB40CB40CB40CDD
:10032000B40CB40CB40CB40CB40CB40CB40CB40CCD
:10033000B40CB40CB40CB40CB40CB40CB40CB40CBD
:100340008D0C11241FBECFEFD8E0DEBFCDBF14E06F
:10035000A0E0B1E0E0E3FCE302C005900D92A0381C
:10036000B107D9F714E0A0E8B4E001C01D92AA3C9F
:10037000B107E1F70E94B9160C94161E0C94000008
:10038000A8E1B0E0E6ECF1E00C94EB1D69837A8320
:100390008B839C832D833E834F83588789E0E82E8F
:1003A000F12CEC0EFD1ECE010196B7010E947203E6
:1003B0008E010F5E1F4FCE010596B8010E94720399
:1003C0008985823040F08989823028F0C701B801E0
:1003D0000E94EA0301C081E06896E6E00C94071EE3
:1003E000A8E0B0E0E6EFF1E00C94E81D9B01AC0161
:1003F00083E08983DA01C9018827B7FD83959927AE
:10040000AA27BB27B82E211531054105510519F43E
:1004100082E089833AC08823A9F0203080E0380741
:1004200080E0480780E8580729F460E070E080E049
:100430009FEC30C0EE24FF248701E21AF30A040B7C
:10044000150B02C079018A018EE1C82ED12CDC8205
:10045000CB82ED82FE820F831887C801B7010E940C
:100460004E0201971816190684F4082E04C0EE0CEB
:10047000FF1C001F111F0A94D2F7ED82FE820F832A
:100480001887C81AD90ADC82CB82BA82CE010196BB
:100490000E949D022896E9E00C94041EEF92FF92C0
:1004A0000F931F937B018C0180E0E81680E0F80633
:1004B00081E0080780E0180788F48FEFE816F10460
:1004C0000105110531F028F088E090E0A0E0B0E0EF
:1004D00017C080E090E0A0E0B0E012C080E0E81635
:1004E00080E0F80680E0080781E0180728F088E13E
:1004F00090E0A0E0B0E004C080E190E0A0E0B0E0D7
:1005000020E230E040E050E0281B390B4A0B5B0B47
:1005100004C016950795F794E7948A95D2F7F701EA
:10052000E85BFE4F8081281B310941095109C9014F
:100530001F910F91FF90EF900895DF92EF92FF923D
:100540000F931F93FC01E480F58006811781D18011
:100550008081823048F480E090E0A0E1B0E0E82AB9
:10056000F92A0A2B1B2BA5C0843009F49FC08230C6
:1005700021F4EE24FF24870105C0E114F1040105F4
:10058000110519F4E0E0F0E096C0628173819FEFFD
:10059000623879070CF05BC022E83FEF261B370B6F
:1005A0002A3131052CF020E030E040E050E02AC054
:1005B000B801A701022E04C0769567955795479517
:1005C0000A94D2F781E090E0A0E0B0E004C0880F88
:1005D000991FAA1FBB1F2A95D2F70197A109B1093C
:1005E0008E219F21A023B1230097A105B10521F001
:1005F00081E090E0A0E0B0E09A01AB01282B392B1C
:100600004A2B5B2BDA01C9018F779070A070B07014
:1006100080349105A105B10539F427FF09C0205C9C
:100620003F4F4F4F5F4F04C0215C3F4F4F4F5F4FD5
:10063000E0E0F0E02030A0E03A07A0E04A07A0E4C4
:100640005A0710F0E1E0F0E079018A0127C0603834
:10065000710564F5FB01E158FF4FD801C7018F77A1
:100660009070A070B07080349105A105B10539F487
:10067000E7FE0DC080E490E0A0E0B0E004C08FE3AE
:1006800090E0A0E0B0E0E80EF91E0A1F1B1F17FF64
:1006900005C016950795F794E794319687E016956F
:1006A0000795F794E7948A95D1F705C0EE24FF24C7
:1006B0008701EFEFF0E06E2F679566276795902F23
:1006C0009F77D794DD24D7948E2F8695492F462B7C
:1006D000582F5D29B701CA011F910F91FF90EF902C
:1006E000DF900895FC01DB01408151812281622F5E
:1006F0006F7770E0221F2227221F9381892F880F96
:10070000822B282F30E0991F9927991F11969C93CF
:10071000119721153105A9F541155105610571059F
:1007200011F482E037C082E89FEF13969C938E937A
:1007300012979A01AB0167E0220F331F441F551F28
:100740006A95D1F783E08C930DC0220F331F441FAD
:10075000551F12968D919C911397019713969C9318
:100760008E931297203080E0380780E0480780E4BD
:10077000580758F314962D933D934D935C93179718
:1007800008952F3F310579F4411551056105710533
:1007900019F484E08C93089564FF03C081E08C9386
:1007A00012C01C9210C02F57304013963C932E93CA
:1007B000129783E08C9387E0440F551F661F771FC5
:1007C0008A95D1F7706414964D935D936D937C93E5
:1007D000179708951F93DC01FB019C91923008F458
:1007E00047C08081823008F443C0943051F41196A0
:1007F0001C91843099F58181682F70E0611B71092B
:100800003FC0843021F0923031F48230B9F18181DF
:10081000882389F12DC011961C9111978230F1F037
:1008200081811817D9F412962D913C9113978281EA
:1008300093818217930794F028173907BCF0149618
:100840008D919D910D90BC91A02D24813581468183
:100850005781281739074A075B0718F4112341F01D
:100860000AC082179307A407B50740F4112319F0B3
:1008700061E070E005C06FEF7FEF02C060E070E004
:10088000CB011F9108951092A00410929F0485B788
:100890008F7E85BF84B184B987B1836087B98AB1FF
:1008A000836F8AB985B1836385B988B1836088B95C
:1008B0008BB1836F8BB9089586B129B190E0809593
:1008C000909583709070982F882730E02095309510
:1008D000237F3070822B932B9093A00480939F04EE
:1008E000089581E18093B8008FEF8093BB0084E08E
:1008F0008093BC0008958091BC0081700895809120
:10090000BC0080FDFCCF809148020895FC018091DD
:10091000BC0080FDFCCF60939604808180938204AC
:1009200080FD0DC04E2FA3E8B4E0CF01FC0102C052
:1009300080818D9331968E2F841B8617C8F3109279
:10094000800488EF8093480285EA8093BC00089574
:100950008091BC0080FDFCCF1092800488EF8093D2
:10096000480285EA8093BC000895AC018091BC00E8
:1009700080FDFCCF8091800480FF0FC020E030E03C
:100980000AC0FA01E20FF31FD901AE57BB4F8C9199
:1009900080832F5F3F4F2617A0F3809180048170E2
:1009A00008951F920F920FB60F9211242F933F9329
:1009B0008F939F93EF93FF938091B9008832D1F08A
:1009C000893240F48031A1F08831A1F0883009F0FB
:1009D0004DC00EC0803459F1813420F4883309F0C1
:1009E00045C042C08035B9F0883509F03FC02DC000
:1009F000109281049091810480919604981768F573
:100A0000E92FF0E0EE57FB4F80818093BB009F5FA2
:100A10009093810418C0809181049091BB00E82FCD
:100A2000F0E0EE57FB4F90838F5F8093810420911D
:100A3000810430E08091960490E0019728173907EF
:100A400014F485EC18C085E816C08091BB00E091D5
:100A50008104F0E0EE57FB4F808380918004816039
:100A60008093800484E907C085EA05C08091B900BD
:100A70008093480284E08093BC00FF91EF919F91A6
:100A80008F913F912F910F900FBE0F901F9018954F
:100A90008F70805D0895282F30E0207F307043E014
:100AA000359527954A95E1F7A901440F551F440F45
:100AB000551F420F531F8F70840F0895282F6AE02F
:100AC0000E94BF1D482F50E074E0440F551F7A95D7
:100AD000E1F7822F0E94BF1D892F8F70842B08950C
:100AE000DF93CF93CDB7DEB728970FB6F894DEBF6C
:100AF0000FBECDBF8F8398872F813885C90160E9EC
:100B000071E00E94CB1D892B71F0C90164E670E091
:100B10000E94CB1D892B11F480E006C080E0237079
:100B20003070232B09F481E028960FB6F894DEBFCD
:100B30000FBECDBFCF91DF910895DF92EF92FF926C
:100B40000F931F93DF93CF93CDB7DEB760970FB6A8
:100B5000F894DEBF0FBECDBF29873A874B878F87BA
:100B6000988BEF84F888472FD62E80E090E0733082
:100B700010F481E090E08701081B190B2D2D30E067
:100B800021503040200F311FC801969587959695CA
:100B90008795280F391FC80160E971E00E94CB1DBD
:100BA000260F371FE42FF0E0E057FD4F8081280F1C
:100BB000311DC80164E670E00E94CB1DC901861B8F
:100BC000970B67E070E00E94CB1D8F5F8C87F88ADF
:100BD000EF864E87DD86DE011196FE01399688E0AC
:100BE00001900D928150E1F729813A814B815C811E
:100BF0006D817E818F81988560960FB6F894DEBFF7
:100C00000FBECDBFCF91DF911F910F91FF90EF905D
:100C1000DF900895EF92FF920F931F93DF93CF938E
:100C2000CDB7DEB768970FB6F894DEBF0FBECDBF65
:100C3000982F362F122F8C3308F090E03C3308F0B9
:100C400030E0802F81508C3008F001E0EF82F88690
:100C500099833A830E83292F4B815C816D81702F9C
:100C6000C7010E947005882339F0112371F0E02F2D
:100C7000F0E0E458FD4F06C0112339F0E02FF0E01A
:100C8000E059FD4F8081811708F411E01D8329810F
:100C90003A814B815C81612F7E818F8198850E9492
:100CA0009D05298B3A8B4B8B5C8B6D8B7E8B8F8B51
:100CB000988FDE011996FE01719688E001900D92E1
:100CC0008150E1F729853A854B855C856D857E8568
:100CD0008F85988968960FB6F894DEBF0FBECDBF9A
:100CE000CF91DF911F910F91FF90EF900895DF93C7
:100CF000CF93CDB7DEB728970FB6F894DEBF0FBEFF
:100D0000CDBF5430C9F0553038F4523061F0533013
:100D100080F45130E9F40AC05630A1F0563078F032
:100D20005730B1F412C020E031E014C029E031E0C6
:100D300011C022E131E00EC02BE131E00BC024E212
:100D400031E008C02DE231E005C026E331E002C009
:100D50002FE331E0C90128960FB6F894DEBF0FBE2D
:100D6000CDBFCF91DF910895DF92EF92FF920F9365
:100D70001F93DF93CF93CDB7DEB760970FB6F8948C
:100D8000DEBF0FBECDBF29873A878F87988BE72EAE
:100D90000F8518894F5F483120F4C801D52EF62EF3
:100DA00030C0F62EF394573018F0DD24D39402C0EF
:100DB000D52ED394188B0F8729853A8540E05D2D79
:100DC0006F2D7E2D802F98890E947005EE2DF0E00A
:100DD000882319F0E458FD4F02C0E059FD4F80818F
:100DE0008F1560F47E2D7F5F7D3020F0C801019665
:100DF00071E001C0C801FF24F39402C0C8017E2D38
:100E000040E04B87FD86DC867E87988B8F87DE01EE
:100E10001196FE01399688E001900D928150E1F71C
:100E200029813A814B815C816D817E818F8198859A
:100E300060960FB6F894DEBF0FBECDBFCF91DF91A5
:100E40001F910F91FF90EF90DF9008950F931F93E4
:100E5000DF93CF93CDB7DEB768970FB6F894DEBFB8
:100E60000FBECDBF29874B875C876D877E878F87B5
:100E7000988B3F5F8E010F5F1F4F3C33A8F01A869F
:100E800030E00E94B406298B3A8B4B8B5C8B6D8BC8
:100E90007E8B8F8B988FD801FE01719688E0019030
:100EA0000D928150E1F709C03A87D801FE013996C9
:100EB00088E001900D928150E1F729813A814B81C0
:100EC0005C816D817E818F81988568960FB6F894DC
:100ED000DEBF0FBECDBFCF91DF911F910F9108955F
:100EE000EF92FF920F931F93DF93CF93CDB7DEB7AF
:100EF00060970FB6F894DEBF0FBECDBF29873A8743
:100F00008F87988B2F853889F52E442309F052C09E
:100F10006230C0F5723030F48901015010407CE03D
:100F2000E72E03C0E72EEA948901188B0F872985E5
:100F30003A8547E15F2D7E2D802F98890E947005AC
:100F4000EE2DF0E0882319F0E458FD4F02C0E0597F
:100F5000FD4F908181E08F1510F057E002C05F2DAA
:100F6000515087E18B879D87EE86188B0F875C87B2
:100F7000DE011196FE01399688E001900D928150B4
:100F8000E1F728C081E0851710F057E001C051500B
:100F900087E18B8761506D877E87388B2F875C87D1
:100FA000DE011196FE01399688E001900D92815084
:100FB000E1F710C041504B876D877E87388B2F87B4
:100FC0005C87DE011196FE01399688E001900D9252
:100FD0008150E1F729813A814B815C816D817E816D
:100FE0008F81988560960FB6F894DEBF0FBECDBF97
:100FF000CF91DF911F910F91FF90EF9008950F9384
:101000001F93DF93CF93CDB7DEB768970FB6F894F1
:10101000DEBF0FBECDBF29874B875C876D877E877C
:101020008F87988B8E010F5F1F4F3323B9F48BE3AB
:101030008A873BE38F850E947007298B3A8B4B8B05
:101040005C8B6D8B7E8B8F8B988FD801FE01719698
:1010500088E001900D928150E1F70AC031503A8743
:10106000D801FE01399688E001900D928150E1F798
:1010700029813A814B815C816D817E818F81988548
:1010800068960FB6F894DEBF0FBECDBFCF91DF914B
:101090001F910F910895AF92BF92CF92EF92FF925E
:1010A000DF93CF93CDB7DEB760970FB6F894DEBF6E
:1010B0000FBECDBFF716A0F07F15A0F0E61680F0AA
:1010C0006E1580F0C41660F04C1560F0B31640F059
:1010D0003B1540F0A21620F02A1520F080E003C056
:1010E00081E001C08FEF60960FB6F894DEBF0FBEAF
:1010F000CDBFCF91DF91FF90EF90CF90BF90AF9099
:101100000895AF92BF92CF92EF92FF920F931F93E9
:10111000DF93CF93CDB7DEB760970FB6F894DEBFFD
:101120000FBECDBF8F8398870F87188BEF81F8850F
:101130008F8598898E179F07C8F0E817F907C0F0C8
:10114000F716A0F07F15A0F0E61680F06E1580F07F
:10115000C41660F04C1560F0B31640F03B1540F03B
:10116000A21620F02A1520F080E003C081E001C023
:101170008FEF60960FB6F894DEBF0FBECDBFCF9154
:10118000DF911F910F91FF90EF90CF90BF90AF90A4
:10119000089520E030E040E2FC01E20FF31F4083BD
:1011A0002F5F3F4F28303105B9F708956F3008F0B1
:1011B0006FE08093A104606E6093A20481EA94E0E2
:1011C00062E00E94860408958093A10480E88093E1
:1011D000A20481EA94E062E00E94860408956238E5
:1011E00029F0643819F0663809F060E88093A104AA
:1011F00061686093A20481EA94E062E00E94860440
:101200000895FF920F931F93F82E01EA14E0809344
:10121000A10481E28093A204C80162E00E948604D6
:10122000F092A10481E88093A204C80162E00E94C8
:1012300086041F910F91FF9008958093A10410924E
:10124000A204E3EAF4E0119284E0E33BF807D9F763
:10125000CF01429762E10E94860408951F93122FE6
:101260008093A1041092A204613021F483EA94E0F7
:101270006EE008C083EA94E06EE00E940C0B83EA03
:1012800094E06FE0412F0E940C0B81EA94E062E150
:101290000E9486041F910895DF92EF92FF920F93B0
:1012A0001F93CF93DF93FA01D22E8093A104109263
:1012B000A2046230F9F0633019F1613049F483EA35
:1012C00094E060E10E94C00A83EA94E06EE00EC000
:1012D00083EA94E060E10E94C00A83EA94E06EE051
:1012E0004D2D0E940C0B83EA94E06FE0402F0E948A
:1012F0000C0B64C083EA94E060E10E94CC0A5EC0FB
:1013000090818281808381818283918380E287833F
:1013100083EA94E060E10E94C00A83EA94E00E94BC
:10132000D80ACDE9D2E010E0E02EFF24C701088002
:1013300002C0959587950A94E2F780FF07C083EA7B
:1013400094E0612F41E00E94EB0A06C083EA94E03A
:10135000612F41E00E94FB0A21961E5F1E3031F78B
:10136000E7FE07C083EA94E06CE040E00E94EB0AED
:1013700006C083EA94E06CE040E00E94FB0A1D2D69
:10138000D0FE07C083EA94E063E041E00E94EB0AEC
:1013900006C083EA94E063E041E00E94FB0A11FF8B
:1013A00007C083EA94E065E041E00E94EB0A06C0D2
:1013B00083EA94E065E041E00E94FB0A81EA94E060
:1013C00062E10E948604DF91CF911F910F91FF90FF
:1013D000EF90DF900895FC01718360835383428313
:1013E0003583248308950F931F93CF93DF938C014C
:1013F000FC01C281D38119C0F801808191818217DB
:10140000930791F4EA81FB81C8010995882361F073
:101410008C819D81F80191838083EE81FF813097DB
:1014200041F0C801099505C028962881398137FF08
:10143000E3CFDF91CF911F910F9108952F923F92AB
:101440004F925F926F927F928F929F92AF92BF92D4
:10145000CF92DF92EF92FF920F931F93DF93CF9380
:10146000CDB7DEB769970FB6F894DEBF0FBECDBF1C
:10147000888F998F698B5B8B4A8B3D8B2C8B1F8B55
:101480000E8B6C01882499245BC0F6011082EA89D6
:10149000FB89E80DF91D3080832D90E021E0622E5C
:1014A000712C032C02C0660C771C0A94E2F77E01B3
:1014B0000894E11CF11CAA24BB24A81AB90A00E074
:1014C00010E02C01222061F4EE89FF89E00FF11F6A
:1014D00080812C893D89F9010995F70191838083E9
:1014E000F70120813181F6014081031560F4262146
:1014F0003721C201801B910B02C0369527958A9532
:10150000E2F7422B0AC0262137210A2C02C0220F03
:10151000331F0A94E2F7422BF60140830F5F1F4FFF
:1015200022E030E0E20EF31E0894A11CB11C08304A
:10153000110541F60894811C911C0894C11CD11C12
:10154000282C3989831608F4A0CF888D998D699647
:101550000FB6F894DEBF0FBECDBFCF91DF911F91C4
:101560000F91FF90EF90DF90CF90BF90AF909F9042
:101570008F907F906F905F904F903F902F90089545
:101580000F931F938A0145EA52E02EE13BE00E944F
:101590001E0A1F910F9108950F931F938A0145EB27
:1015A00052E02EEB3BE00E941E0A1F910F9108951E
:1015B000AC01FC0120E08081982F9295969596953C
:1015C00093709183880F880F80832F5F3296283025
:1015D00091F7CA010895FC01DC01A60FB11D81E05D
:1015E00090E002C0880F991F4A95E2F72C91282BB2
:1015F0002C93CF010895FC01DC01A60FB11D81E001
:1016000090E002C0880F991F4A95E2F780952C91CF
:1016100028232C93CF0108959C01FC01E60FF11DB6
:101620008081842B8083C90108959C01FC01E60F11
:10163000F11D808184238083C901089590E0FC011D
:10164000B097EB39F10508F077C0EC5CFF4FEE0F77
:10165000FF1F0590F491E02D099426E030E08CC046
:101660002FE330E089C02BE530E086C02FE430E086
:1016700083C026E630E080C02DE730E07DC027E063
:1016800030E07AC02FE730E077C027E730E074C061
:101690002CE730E071C028E530E06EC029E330E08F
:1016A0006BC02EE530E068C02BE730E065C029E76D
:1016B00030E062C021E730E05FC02DE330E05CC085
:1016C00024E730E059C020E130E056C02EE130E0A0
:1016D00053C02FE130E050C020E730E04DC028E398
:1016E00030E04AC025E530E047C02CE530E044C09A
:1016F00023E730E041C02CED30E03EC02FEB30E07E
:101700003BC020E530E038C028E730E035C02CE9A8
:1017100030E032C02EEB30E02FC020E030E02CC0B3
:1017200020E430E029C022E830E026C020E830E0A4
:1017300023C023E630E020C028E030E01DC02DE6C5
:1017400030E01AC02FE630E017C026E730E014C0C2
:1017500020E330E011C024E530E00EC027E330E0A4
:101760000BC021E330E008C02CE130E005C02EE3DF
:1017700030E002C02EE630E0C901089590E0FC019F
:10178000B097E23DF10508F0EFC0E153FF4FEE0FD7
:10179000FF1F0590F491E02D099426E031E0F2C09E
:1017A0002FE330E0EFC02BE132E2ECC02FE032E07B
:1017B000E9C026E232E2E6C02DE332E2E3C027E0F0
:1017C00030E0E0C02FE332E2DDC02FE232E2DAC0E7
:1017D0002FE132E2D7C027E332E2D4C02CE332E279
:1017E000D1C02FE83AE0CEC028E132E2CBC02EE0F3
:1017F00032E2C8C02FE838E0C5C02BE332E2C2C0F5
:1018000029E330E2BFC021E330E2BCC021E332E291
:10181000B9C027E236E2B6C02DE332E0B3C024E31C
:1018200032E2B0C026E332E2ADC029E838E0AAC017
:1018300026E034E0A7C02FE130E0A4C020E83DE07E
:10184000A1C020E335E29EC028E330E09BC024E144
:101850003AE298C026E731E095C026E734E092C02E
:1018600027E734E08FC02CE132E28CC023E83AE075
:1018700089C023E332E286C027E232E283C02FE34D
:1018800034E080C020E130E27DC023E336E27AC05C
:101890002DE432E077C028E330E274C021E838E07C
:1018A00071C02CE130E06EC02EE330E06BC020E16F
:1018B00030E168C020E331E165C024E134E162C079
:1018C00026E334E15FC020E435E15CC02EE832E07D
:1018D00059C020E439E056C029E033E153C029E083
:1018E00031E150C020E030E04DC020E032E24AC09B
:1018F00023E03AE847C022E030E844C020E030E886
:1019000041C020E030E13EC02FE030E03BC020ECA1
:101910003DE138C020E83AE235C028E83AE232C07A
:1019200020E031E12FC020E434E02CC020E430E19D
:1019300029C020E035E026C028E032E223C020E8BC
:1019400030E020C022E830E01DC020E031E01AC0C5
:1019500020E430E017C024E032E214C020E637E390
:1019600011C02FE138E20EC028E030E00BC02DE2BC
:1019700032E208C029E330E005C020E838E002C0C8
:1019800024E132E2C9010895FF920F931F93DF9380
:10199000CF9300D0CDB7DEB7F82E89831A828E019F
:1019A0000F5F1F4FC80162E00E94860481E0F82AA1
:1019B000F982C80163E00E948604C80163E00E94C6
:1019C000B5049A8180E02B8130E0282B392BC901A6
:1019D0000F900F90CF91DF911F910F91FF9008957D
:1019E00080919F049091A00420E0892B09F421E0CC
:1019F000822F089580919F049091A004892B19F45F
:101A000080E090E008958091C104882319F420E0DB
:101A100030E010C040E02091B3043091B4048091D4
:101A2000B7049091B8042817390708F441E081E021
:101A30004827242F90E0222309F491E081E09827A1
:101A4000892F089580919F049091A004089580911A
:101A50009F049091A00420E08F77892B09F421E066
:101A6000822F089580919F049091A00485FD03C06A
:101A700080E090E0089580919F049091A00424E07C
:101A8000969587952A95E1F78170089580919F0436
:101A90009091A00485FD03C081E090E008958091BD
:101AA0009F049091A00434E0969587953A95E1F7CC
:101AB0008095909581709070089580919F04909189
:101AC000A0048074089580919F049091A004807870
:101AD000089580919F049091A0048074089580914E
:101AE0009F049091A00420E0892B09F021E0822F2F
:101AF00008958091C504089590E08091C5048823DD
:101B000009F491E0892F08959093B8048093B70465
:101B10001092B4041092B30481E08093C10408953C
:101B20001092C10408958091C104882319F480E0C3
:101B300090E0089540E02091B3043091B404809186
:101B4000B7049091B8042817390708F441E081E000
:101B50004827842F08958091C104882369F08091DB
:101B6000B3049091B4048F3F910550F40196909383
:101B7000B4048093B30408951092B4041092B30493
:101B800008958091B9048093C40481E08093C204D5
:101B900008959091B9048091C404891759F09093E5
:101BA000C4048091C20487FF02C081E001C0880F95
:101BB0008093C2048091C2040895ECE7F0E0808134
:101BC00080668083EAE7F0E08081876880830895FB
:101BD00090917C008F70907F892B80937C00809106
:101BE0007A00806480937A0080917A0086FDFCCF31
:101BF0008091790008950F931F93CF93DF93EC01A9
:101C0000262F042F40E050E0FE01E40FF51FDA011B
:101C1000A759BD4F90818C91981711F01FEF06C006
:101C20004F5F5F4F4830510579F710E080919D0478
:101C3000281739F480919E04081719F41123D9F05C
:101C400001C01FEF40E050E0FA01E759FD4FDE010F
:101C5000A40FB51F8C9180834F5F5F4F48305105B3
:101C600099F720939D0400939E0486EE63E049E675
:101C700052E00E944C09812FDF91CF911F910F916B
:101C800008950F931F93CF93DF93EC01262F042F1A
:101C900040E050E0FE01E40FF51FDA01AF59BD4FFF
:101CA00090818C91981711F01FEF06C04F5F5F4F26
:101CB0004830510579F710E080919B04281739F4DA
:101CC00080919C04081719F41123D9F001C01FEF6B
:101CD00040E050E0FA01EF59FD4FDE01A40FB51FBF
:101CE0008C9180834F5F5F4F4830510599F7209367
:101CF0009B0400939C0484EE62E041E652E00E9463
:101D00004C09812FDF91CF911F910F9108950F936F
:101D10001F93CF93DF93EC01262F042F40E050E078
:101D2000FE01E40FF51FDA01A75ABD4F90818C9197
:101D3000981711F01FEF06C04F5F5F4F48305105F5
:101D400079F710E080919904281739F480919A046A
:101D5000081719F41123D9F001C01FEF40E050E03B
:101D6000FA01E75AFD4FDE01A40FB51F8C91808365
:101D70004F5F5F4F4830510599F7209399040093C6
:101D80009A0482EE61E049E552E00E944C09812FFD
:101D9000DF91CF911F910F9108950F931F93CF93D0
:101DA000DF93EC01262F042F40E050E0FE01E40F0A
:101DB000F51FDA01AF5ABD4F90818C91981711F041
:101DC0001FEF06C04F5F5F4F4830510579F710E0B5
:101DD00080919704281739F480919804081719F412
:101DE0001123D9F001C01FEF40E050E0FA01EF5A93
:101DF000FD4FDE01A40FB51F8C9180834F5F5F4FB5
:101E00004830510599F7209397040093980480EE89
:101E100060E041E552E00E944C09812FDF91CF91B3
:101E20001F910F91089580E90E94C40C0895EF92CC
:101E3000FF920F931F93CF93DF9380E90E94C40C0E
:101E4000EC019093B6048093B504BE01882777FD1A
:101E50008095982F0E94F00120E030E040E850EC9F
:101E60000E94C001882304F5882799278C1B9D0BAD
:101E7000092F112766E0959587956A95E1F783709C
:101E8000907029E130E0829F7001839FF00C929F57
:101E9000F00C11240A30110514F08DE222C080E20A
:101EA000809349028DE22DC00D2F112746E0D59574
:101EB000C7954A95E1F7C370D07089E190E0C89F5B
:101EC0007001C99FF00CD89FF00C11240436110545
:101ED0005CF0802F64E60E94BF1D0E945E050E9498
:101EE00048058093490206C080E2809349020A3087
:101EF00011053CF0802F0E945E0582958F700E9434
:101F0000480580934A02802F0E945E050E94480582
:101F100080934B028E2D0E945E0582958F700E94E9
:101F2000480580934C028E2D0E945E050E94480554
:101F300080934D028AEB80934E0283E480934F029C
:101F400080E28093500289E492E0DF91CF911F916B
:101F50000F91FF90EF900895CF93DF9380E90E9457
:101F6000C40C9C019093B6048093B5048FEF243E7B
:101F70003807ACF0C32FDD27C436D1054CF08C2FC9
:101F800064E60E94BF1D0E945E050E94480511C0C4
:101F900080E280934902CA30D105CCF00CC088277A
:101FA0009927821B930BC92FDD27CA30D1055CF01E
:101FB0008DE2809349028C2F0E945E0582958F707E
:101FC0000E94480504C080E2809349028DE280931C
:101FD0004A028C2F0E945E050E94480580934B02A6
:101FE0008AEB80934C0283E480934D0280E28093DD
:101FF0004E0280934F028093500289E492E0DF9179
:10200000CF9108951092C1048091B90480FF3AC025
:102010008091BF049091C00468EE73E00E94CB1DD4
:10202000862F0E94480580934D028091BF049091B5
:10203000C00468EE73E00E94CB1D64E670E00E946D
:10204000CB1D862F0E94480580934E028091BF04CD
:102050009091C00464E670E00E94CB1D6AE070E0DD
:102060000E94CB1D862F0E94480580934F028091CD
:10207000BF049091C0046AE070E00E94CB1D0E94F2
:10208000480507C080E280934D0280934E02809302
:102090004F02809350028091BD040E945E0582959C
:1020A0008F700E944805809349028091BD040E9470
:1020B0005E050E94480580934A028091BE040E94FA
:1020C0005E0582958F700E94480580934B02809137
:1020D000BE040E945E050E94480580934C0289E47C
:1020E00092E06AE040E00E94CD0E8091BB040E9425
:1020F0005E0582958F700E94480580934902809109
:10210000BB040E945E050E94480580934A028091AC
:10211000BA040E945E0582958F700E9448058093E4
:102120004B028091BA040E945E050E94480580938C
:102130004C024091B9044170440F89E492E060E0A0
:102140000E94870E08951092C1048091B90480FF07
:1021500011C08091BE040E945E0582958F700E941E
:10216000480580934B028091BE040E945E050E9448
:10217000480503C080E280934B0280934C0280911B
:10218000BD040E945E0582958F700E944805809371
:1021900049028091BD040E945E050E94480580931B
:1021A0004A028091BF049091C00468EE73E00E94DF
:1021B000CB1D862F0E94480580934D028091BF045D
:1021C0009091C00468EE73E00E94CB1D64E670E05D
:1021D0000E94CB1D862F0E94480580934E0280915D
:1021E000BF049091C00464E670E00E94CB1D6AE0D9
:1021F00070E00E94CB1D862F0E94480580934F02FD
:102200008091BF049091C0046AE070E00E94CB1DF1
:102210000E9448058093500289E492E06AE040E021
:102220000E94CD0E8091BB040E945E0582958F7046
:102230000E944805809349028091BB040E945E057C
:102240000E94480580934A028091BA040E945E056C
:1022500082958F700E94480580934B028091BA044A
:102260000E945E050E94480580934C024091B9048B
:102270004170440F89E492E060E00E94870E089567
:102280001092C1048091B90480FF11C08091BD04F7
:102290000E945E0582958F700E94480580934902D6
:1022A0008091BD040E945E050E94480503C080E243
:1022B0008093490280934A028091BE040E945E0589
:1022C00082958F700E94480580934B028091BE04D6
:1022D0000E945E050E94480580934C028091BF04D5
:1022E0009091C00468EE73E00E94CB1D862F0E947F
:1022F000480580934D028091BF049091C00468EE20
:1023000073E00E94CB1D64E670E00E94CB1D862F17
:102310000E94480580934E028091BF049091C004B2
:1023200064E670E00E94CB1D6AE070E00E94CB1D65
:10233000862F0E94480580934F028091BF049091A0
:10234000C0046AE070E00E94CB1D0E9448058093A3
:10235000500289E492E06AE040E00E94CD0E809154
:10236000BB040E945E0582958F700E944805809391
:1023700049028091BB040E945E050E94480580933B
:102380004A028091BA040E945E0582958F700E9475
:10239000480580934B028091BA040E945E050E941A
:1023A000480580934C024091B9044170440F89E480
:1023B00092E060E00E94870E08951092C10480911F
:1023C000B90480FF11C08091BA040E945E05829515
:1023D0008F700E94480580934B028091BA040E943E
:1023E0005E050E94480503C080E280934B02809303
:1023F0004C028091BB040E945E0582958F700E9402
:102400004805809349028091BB040E945E050E94AA
:10241000480580934A024091B9044170440F89E411
:1024200092E060E00E94870E8091BD040E945E05EC
:1024300082958F700E944805809349028091BD0467
:102440000E945E050E94480580934A028091BE0466
:102450000E945E0582958F700E94480580934B0212
:102460008091BE040E945E050E94480580934C0244
:102470008091BF049091C00468EE73E00E94CB1D70
:10248000862F0E94480580934D028091BF04909151
:10249000C00468EE73E00E94CB1D64E670E00E9409
:1024A000CB1D862F0E94480580934E028091BF0469
:1024B0009091C00464E670E00E94CB1D6AE070E079
:1024C0000E94CB1D862F0E94480580934F02809169
:1024D000BF049091C0046AE070E00E94CB1D0E948E
:1024E00048058093500289E492E06AE040E00E944F
:1024F000CD0E08951092C1048091B90480FF11C0DF
:102500008091BB040E945E0582958F700E944805F1
:10251000809349028091BB040E945E050E94480599
:1025200003C080E28093490280934A028091BA04FA
:102530000E945E0582958F700E94480580934B0231
:102540008091BA040E945E050E94480580934C0267
:102550004091B9044170440F89E492E060E00E9428
:10256000870E8091BD040E945E0582958F700E9447
:102570004805809349028091BD040E945E050E9437
:10258000480580934A028091BE040E945E058295B0
:102590008F700E94480580934B028091BE040E9478
:1025A0005E050E94480580934C028091BF04909183
:1025B000C00468EE73E00E94CB1D862F0E94480580
:1025C00080934D028091BF049091C00468EE73E047
:1025D0000E94CB1D64E670E00E94CB1D862F0E94F6
:1025E000480580934E028091BF049091C00464E638
:1025F00070E00E94CB1D6AE070E00E94CB1D862F28
:102600000E94480580934F028091BF049091C004BE
:102610006AE070E00E94CB1D0E9448058093500242
:1026200089E492E06AE040E00E94CD0E0895CF92E6
:10263000DF92EF92FF920F931F93BDEBEB2EB4E06E
:10264000FB2E8091BD040E945E0582958F700E94D2
:102650004805A9E4CA2EA2E0DA2E809349028091AF
:10266000BD040E945E050E94480580934A02809145
:10267000BE040E945E0582958F700E94480580937B
:102680004B028091BE040E945E050E944805809323
:102690004C028091BF049091C00468EE73E00E94E8
:1026A000CB1D862F0E94480580934D028091BF0468
:1026B0009091C00468EE73E00E94CB1D64E670E068
:1026C0000E94CB1D862F0E94480580934E02809168
:1026D000BF049091C00464E670E00E94CB1D6AE0E4
:1026E00070E00E94CB1D862F0E94480580934F0208
:1026F0008091BF049091C0046AE070E00E94CB1DFD
:102700000E94480580935002C6016AE040E00E94A2
:10271000CD0EC60168E00E94C90887010250104032
:10272000F80180810E945E0582958F700E944805A5
:1027300080934902F80180810E945E050E9448054D
:1027400080934A02870103501040F80180810E9463
:102750005E0582958F700E94480580934B02F801B8
:1027600080810E945E050E94480580934C028CEF98
:102770009FEFE80EF91EF70140814170440FC6013A
:1027800060E00E94870E2091B9043091BA04409114
:10279000BB045091BC046091BD047091BE04809153
:1027A000BF049091C0040E94770660E040E00E9460
:1027B000410E80E090E00E94AC0F8C010E94C90D98
:1027C000482FC80160E00E94FB0D1F910F91FF9000
:1027D000EF90DF90CF9008950E9417130895EF9225
:1027E0000F931F93CF93DF93EC0180919F049091FF
:1027F000A00485FF06C080919F049091A00484FDF1
:1028000046C080919F049091A00485FF13C08091E1
:10281000BF049091C00401969093C0048093BF04BC
:102820008091BF049091C00484539840E0F08CE6FE
:1028300097E015C080919F049091A00484FF13C07D
:102840008091BF049091C0048D56974018F483E3A3
:1028500098E005C08091BF049091C00401979093C7
:10286000C0048093BF0480ED0091B9041091BA04B4
:102870002091BB043091BC044091BD045091BE0432
:102880006091BF047091C004EE240E94771BCE01BA
:102890000E941713DF91CF911F910F91EF90089530
:1028A00028EE33E03093B8042093B7041092B404B8
:1028B0001092B30421E02093C1040E94EF13089505
:1028C0001092C1040E9417130895EF920F931F9363
:1028D000CF93DF93EC0180919F049091A00485FF3A
:1028E00006C080919F049091A00484FD36C0809121
:1028F0009F049091A00485FF0BC08091BE048F5F60
:102900008093BE048091BE048D3098F081E00FC0AA
:1029100080919F049091A00484FF0BC08091BE041D
:10292000823010F48CE003C08091BE04815080930B
:10293000BE0480ED0091B9041091BA042091BB044B
:102940003091BC044091BD045091BE046091BF041D
:102950007091C004EE240E94771BCE010E941713D1
:10296000DF91CF911F910F91EF90089528EE33E002
:102970003093B8042093B7041092B4041092B304B7
:1029800021E02093C1040E9465140895EF920F93F3
:102990001F93CF93DF93EC0180919F049091A0044B
:1029A00085FF06C080919F049091A00484FD57C0CC
:1029B0002091B9043091BA044091BB045091BC04F9
:1029C0006091BD047091BE048091BF049091C004D9
:1029D0000E947005882331F0E091BE04F0E0E458D5
:1029E000FD4F05C0E091BE04F0E0E059FD4FE081ED
:1029F00080919F049091A00485FF0BC08091BD043D
:102A00008F5F8093BD048091BD04E817A0F481E03E
:102A100010C080919F049091A00484FF0CC080910D
:102A2000BD04823018F4E093BD0405C08091BD045C
:102A300081508093BD0480ED0091B9041091BA04D7
:102A40002091BB043091BC044091BD045091BE0460
:102A50006091BF047091C004EE240E94771BCE01E8
:102A60000E941713DF91CF911F910F91EF9008955E
:102A700028EE33E03093B8042093B7041092B404E6
:102A80001092B30421E02093C1040E94C61408955B
:102A9000EF920F931F93CF93DF93EC0180919F04EC
:102AA0009091A00485FF06C080919F049091A0049E
:102AB00084FD39C080919F049091A00485FF0EC0D1
:102AC0008091BA048F5F8093BA048091BA048C33EA
:102AD00010F01092BA041092B90411C080919F04B2
:102AE0009091A00484FF0BC08091BA04882311F454
:102AF0008BE303C08091BA0481508093BA0480EDC7
:102B00000091B9041091BA042091BB043091BC0427
:102B10004091BD045091BE046091BF047091C00407
:102B2000EE240E94771BCE010E941713DF91CF91F4
:102B30001F910F91EF90089528EE33E03093B80481
:102B40002093B7041092B4041092B30421E02093B0
:102B5000C1040E9448150895EF920F931F93CF93DD
:102B6000DF93EC0180919F049091A00485FF06C043
:102B700080919F049091A00484FD39C080919F04AE
:102B80009091A00485FF0CC08091BB048F5F80935F
:102B9000BB048091BB048831A0F01092BB0411C02B
:102BA00080919F049091A00484FF0DC08091BB048C
:102BB000882311F487E103C08091BB048150809386
:102BC000BB041092B90480ED0091B9041091BA04CD
:102BD0002091BB043091BC044091BD045091BE04CF
:102BE0006091BF047091C004EE240E94771BCE0157
:102BF0000E941713DF91CF911F910F91EF900895CD
:102C000028EE33E03093B8042093B7041092B40454
:102C10001092B30421E02093C1040E94AC150895E2
:102C20000F931F938C0180ED0E94E81980EE60E8FD
:102C30000E94EF0882EE60E80E94EF08C8010E943F
:102C400017131F910F9108950F931F938C0180EE1E
:102C500060E80E94EF0882EE60E80E94EF08C80179
:102C60000E9417131F910F9108959C018091B90440
:102C700080FF04C0C9010E941713089589E492E0FF
:102C800068E00E94C90889E492E060E040E00E94A8
:102C9000CD0E89E492E060E040E00E94870E89E476
:102CA00092E060E040E00E94410E89E492E060E042
:102CB00040E00E94FB0D0895CF92DF92EF920F93B8
:102CC0001F93DF93CF93CDB7DEB728970FB6F89455
:102CD000DEBF0FBECDBF6C012091B9043091BA04A4
:102CE0004091BB045091BC046091BD047091BE043E
:102CF0008091BF049091C0040E949D0529833A836E
:102D00004B835C836D837E838F839887A9EBB4E0CC
:102D1000FE01319688E001900D928150E1F780ED3F
:102D20000091B9041091BA042091BB043091BC0405
:102D30004091BD045091BE046091BF047091C004E5
:102D4000EE240E94771BC6010E94171328960FB627
:102D5000F894DEBF0FBECDBFCF91DF911F910F91D1
:102D6000EF90DF90CF9008951092C1040E94171346
:102D700008952F923F924F925F926F927F928F921F
:102D80009F92AF92BF92CF92DF92EF92FF920F93FA
:102D90001F93DF93CF93CDB7DEB7CF5BD1400FB694
:102DA000F894DEBF0FBECDBF1982DE011896E0EDAC
:102DB000F2E080EB91E001900D920197E1F7CE01F6
:102DC000029661E070E0AE01485F5F4F20E030E0C6
:102DD0000E94EB090E9443040E94710480917C00D0
:102DE000806680937C0080917A00876880937A0067
:102DF000789480EE0E94010982EE0E94010984EE1F
:102E00000E94010986EE0E94010980EE60E041E522
:102E100052E020919704009198040E944C0982EEA0
:102E200060E049E552E02091990400919A040E94E3
:102E30004C0984EE62E041E652E020919B0400914F
:102E40009C040E944C0986EE63E049E652E0209122
:102E50009D0400919E040E944C0983E00E94E80DAD
:102E600082958F708983698180EE0E94D60869817E
:102E700082EE0E94D608698184EE0E94D60869819C
:102E800086EE0E94D60884E06EE441E050E00E94A5
:102E9000711D8091B9048093C40481E08093C204C1
:102EA0008E0108541E4F6AEB262E61E0362E2C0E42
:102EB0003D1E5BEB452E51E0552E4C0E5D1E4CEB3E
:102EC000642E41E0742E6C0E7D1E3DEB832E31E0AE
:102ED000932E8C0E9D1E2EEBA22E21E0B22EAC0E58
:102EE000BD1E9FEBC92E91E0D92ECC0EDD1E82E0D7
:102EF000E82EF12CEC0EFD1E80ED60E00E94F71C28
:102F0000F8012083C754DE4F3883C95BD140F101FB
:102F10004083F2015083F3016083F4017083F50173
:102F20008083F6019083A9EBB4E0F80188E001907A
:102F30000D928150E1F780ED0E94241A8093C50420
:102F40000E94AB0D0E945C0483E00E94E80D829514
:102F50008F708983FFE0F983698180EE0E94D60833
:102F6000698182EE0E94D608698184EE0E94D608AB
:102F7000698186EE0E94D608C7010E94F3090E946B
:102F8000881DBACFEF92FF920F931F93DF93CF93D9
:102F900000D000D0CDB7DEB7F82E89838EE0E82EC2
:102FA000EA828E010F5F1F4FC80162E00E94860413
:102FB0008F2D81608983C80164E00E948604C80166
:102FC00064E00E94B5049A8195FD0BC08B8182FD5F
:102FD00008C0F98290629B83EA82C80163E00E9484
:102FE00086040F900F900F900F90CF91DF911F915B
:102FF0000F91FF90EF900895FF920F931F93DF932F
:10300000CF9300D000D0CDB7DEB7F82E89838EE005
:103010008A838E010F5F1F4FC80162E00E94860401
:1030200081E0F82AF982C80164E00E948604C801A0
:1030300064E00E94B5048A8185FF02C08FEF06C05C
:103040008B8182FD02C080E001C08FE00F900F9065
:103050000F900F90CF91DF911F910F91FF900895E6
:10306000FF920F931F93DF93CF9300D000D0CDB783
:10307000DEB7F82E898381E18A838E010F5F1F4FAF
:10308000C80162E00E94860481E0F82AF982C80142
:1030900064E00E948604C80164E00E94B5049A813D
:1030A00080E02B8130E0282B392BC9010F900F9045
:1030B0000F900F90CF91DF911F910F91FF90089586
:1030C000DF92EF92FF920F931F93DF93CF9300D085
:1030D0000F92CDB7DEB7F82EE62E89839FE0D92E6A
:1030E000DA828E010F5F1F4FC80162E00E948604E2
:1030F0008F2D81608983C80163E00E948604C80126
:1031000063E00E94B504F98283E0E8228A818C7F23
:103110008E298B83DA82C80163E00E9486040F90B7
:103120000F900F90CF91DF911F910F91FF90EF9033
:10313000DF900895FF920F931F93DF93CF9300D0FA
:103140000F92CDB7DEB7F82E89838FE08A838E0188
:103150000F5F1F4FC80162E00E94860481E0F82AD9
:10316000F982C80163E00E948604C80163E00E94FE
:10317000B5048A8183700F900F900F90CF91DF91EB
:103180001F910F91FF900895DF92EF92FF920F939E
:103190001F93DF93CF9300D00F92CDB7DEB7F82EF9
:1031A000E62ED42E89838EE08A838E010F5F1F4F17
:1031B000C80162E00E9486048F2D81608983C80166
:1031C00063E00E948604C80163E00E94B5042A817E
:1031D000922F9C7F9B8381E0E81641F08FEFE816E9
:1031E00039F4822F8170892B8B8302C091609B837D
:1031F00081E0D81639F08FEFD81639F422708B8120
:10320000822B02C08B8182608B838EE08A83F9825D
:10321000CE01019663E00E9486040F900F900F90FC
:10322000CF91DF911F910F91FF90EF90DF90089564
:10323000FF920F931F93DF93CF9300D00F92CDB7E0
:10324000DEB7F82E89838EE08A838E010F5F1F4FD1
:10325000C80162E00E94860481E0F82AF982C80170
:1032600063E00E948604C80163E00E94B5048A817D
:1032700083700F900F900F90CF91DF911F910F915E
:10328000FF900895FF920F931F93DF93CF9300D089
:1032900000D00F92CDB7DEB7F82E89838BE08A83FA
:1032A0008E010F5F1F4FC80162E00E94860481E01B
:1032B000F82AF982C80164E00E948604C80164E02B
:1032C0000E94B5044C8150E08B8190E08078907032
:1032D000E5E095958795EA95E1F72A8130E0207839
:1032E000307076E0359527957A95E1F7822B9A0133
:1032F0002078307064E0359527956A95E1F7822B48
:10330000407450705595479555954795842B0F906F
:103310000F900F900F900F90CF91DF911F910F9111
:10332000FF900895FF920F931F93DF93CF9300D0E8
:1033300000D000D0CDB7DEB7F82E898387E08A832E
:103340008E010F5F1F4FC80162E00E94860481E07A
:10335000F82AF982C80165E00E948604C80165E088
:103360000E94B5044D8150E08B8190E08078907090
:1033700016E0959587951A95E1F72C8130E0207835
:103380003070B5E035952795BA95E1F7822B2A8103
:10339000221F2227221F822B9A0120783070A4E05E
:1033A00035952795AA95E1F7822B40745070559575
:1033B000479555954795842B26960FB6F894DEBF12
:1033C0000FBECDBFCF91DF911F910F91FF90089558
:1033D000DF92EF92FF920F931F93DF93CF9300D072
:1033E0000F92CDB7DEB7F82E89830FE0D02EDA82A8
:1033F0008E010F5F1F4FC80162E00E9486048F2D6F
:1034000081608983C80163E00E948604C80163E08B
:103410000E94B504EA80F982DA828E2D8C70836076
:103420008B83C80163E00E9486048E2D881F882745
:10343000881F0F900F900F90CF91DF911F910F91E8
:10344000FF90EF90DF900895FF920F931F93DF930B
:10345000CF9300D00F92CDB7DEB7F82E89838FE0DF
:103460008A838E010F5F1F4FC80162E00E948604AD
:1034700081E0F82AF982C80163E00E948604C8014D
:1034800063E00E94B50490E08A8187FD91E0892F76
:103490000F900F900F90CF91DF911F910F91FF90A0
:1034A0000895BF92CF92DF92EF92FF920F931F93F6
:1034B000DF93CF93CDB7DEB72D970FB6F894DEBF6D
:1034C0000FBECDBF0E83F12F1F83E22F28873987D0
:1034D000942F4A875B876C877D874E2DFE2ED32ED7
:1034E000B92E89838BE08A83EE2079F50C2D10E0CC
:1034F0008F2F0E945E05980176E0220F331F7A9588
:10350000E1F72078282B2B838F2D0E945E058F7B7F
:10351000980165E0220F331F6A95E1F72078822B2E
:103520008C83780154E0EE0CFF1C5A95E1F7C6FE3F
:1035300004C020E4D22A8E2D22C08B2D0E945E056D
:103540009E2D9078982B9D8320C04F3F19F52C2DF0
:1035500030E0C90146E0880F991F4A95E1F780786D
:10356000812B8B838FE3F822FC82C90134E0880F22
:10357000991F3A95E1F7C6FE05C020E4D22A80786B
:103580008D2902C080788B298D83CE01019669E058
:103590000E9486042D960FB6F894DEBF0FBECDBFF5
:1035A000CF91DF911F910F91FF90EF90DF90CF901F
:1035B000BF900895BF92CF92DF92EF92FF920F9348
:1035C0001F93DF93CF93CDB7DEB72E970FB6F89446
:1035D000DEBF0FBECDBFA02F0F831887E22F298734
:1035E0003A87942F4B875C876D877E874E2DE12E1F
:1035F000FE2ED32EB92E898387E08A834423D1F50A
:103600000C2D10E08A2F0E945E0598013695322F0E
:10361000222737952795822B8B838E2D0E945E055E
:10362000980146E0220F331F4A95E1F72078282BB6
:103630002C838F2D0E945E058F7B980195E0220FD1
:10364000331F9A95E1F72078822B8D83780114E05F
:10365000EE0CFF1C1A95E1F7C6FE04C020E4D22A46
:103660008E2D2AC08B2D0E945E059E2D9078982B62
:103670009E8328C04F3F59F52C2D30E0C901969507
:10368000982F882797958795A82BAB83C901F6E0DB
:10369000880F991FFA95E1F78078812B8C838FE34F
:1036A000F822FD82C901E4E0880F991FEA95E1F74D
:1036B000C6FE05C020E4D22A80788D2902C0807819
:1036C0008B298E83CE01019669E00E9486042E9696
:1036D0000FB6F894DEBF0FBECDBFCF91DF911F9123
:1036E0000F91FF90EF90DF90CF90BF900895BF9221
:1036F000CF92DF92EF92FF920F931F93DF93CF93BE
:10370000CDB7DEB761970FB6F894DEBF0FBECDBF61
:10371000B02F0A87A12F1B87F22F2C87E32F3D871D
:103720004E875F87688B798B3E2DD12E1F2FCE2E33
:10373000B42EE888F988052F89831A82332359F536
:103740008B2F0E945E058B838D2D0E945E058C83DE
:10375000812F0E945E058F738D83CE828B2D0E94F8
:103760005E058F8380EDE81687E0F80630F4802F41
:103770000E945E058F71806804C0802F0E945E05E4
:103780008F718887C70164E670E00E94CB1D0E949C
:103790005E05898710C03F3F99F4BB83AC831F73DC
:1037A0001D83EE834F83C7019695879580780F71AF
:1037B000802B8887E986CE01019669E00E94860405
:1037C00061960FB6F894DEBF0FBECDBFCF91DF91EB
:1037D0001F910F91FF90EF90DF90CF90BF900895D1
:1037E000EF92FF920F931F93DF93CF93CDB7DEB786
:1037F00065970FB6F894DEBF0FBECDBF182F062F0A
:1038000089838BE08A837E010894E11CF11CC70147
:1038100062E00E94860411601983C70164E00E947F
:103820008604C70164E00E94B5040023F9F48A818C
:103830008F770E944B05E82E8B818F730E944B057A
:10384000182F8C8186FD03C080E00E944B051E82EC
:10385000EF82188719868A87DE011E96FE0136964A
:1038600088E001900D928150E1F725C09E01225F12
:103870003F4FAE014A5F5F4F0F3F89F49A819F77B8
:103880008B818F731E829F83888719861A86D90140
:10389000FA0188E001900D928150E1F70CC01E8280
:1038A0001F82188619861A86D901FA0188E00190CC
:1038B0000D928150E1F72E853F85488959896A89A3
:1038C0007B898C899D8965960FB6F894DEBF0FBE03
:1038D000CDBFCF91DF911F910F91FF90EF90089591
:1038E000EF92FF920F931F93DF93CF93CDB7DEB785
:1038F00066970FB6F894DEBF0FBECDBF182F062F08
:10390000898387E08A837E010894E11CF11CC7014A
:1039100062E00E94860411601983C70165E00E947D
:103920008604C70165E00E94B504002321F58A8161
:103930008F770E944B05082F8B818F770E944B0554
:10394000E82E8C818F730E944B05182F8D8186FD88
:1039500003C080E00E944B050F83E88619871A8612
:103960008B87DE011F96FE01379688E001900D924D
:103970008150E1F727C0AE01415F5F4FBE01695F33
:103980007F4F0F3F99F42B812F779C819F738A8102
:103990008F778F83288799871A861B86DA01FB0128
:1039A00088E001900D928150E1F70CC01F821886CB
:1039B00019861A861B86DA01FB0188E001900D92B8
:1039C0008150E1F72F85388949895A896B897C892B
:1039D0008D899E8966960FB6F894DEBF0FBECDBF67
:1039E000CF91DF911F910F91FF90EF900895CF92AB
:1039F000DF92EF92FF920F931F93DF93CF93CDB798
:103A0000DEB761970FB6F894DEBF0FBECDBFF82EBC
:103A1000E62E89871A868E01075F1F4FC80162E074
:103A20000E94860481E0F82AF986C80168E00E94B5
:103A30008604C80168E00E94B504EE2029F58A8555
:103A40000E944B05C82E8B850E944B05D82E8C8575
:103A50000E944B05182FED848E850E944B05F82E91
:103A60008F858F710E944B05082F88890E944B0516
:103A7000282F30E0F901E053F84F8F8587FF19C0F8
:103A8000F901E459F84F15C08FEFE81691F4CA8494
:103A9000DB841C85ED84FE847F85888977FF04C0E4
:103AA000E82FF0E0F96103C0E82FF0E0F062072FA3
:103AB0000F71F887EF839601412F5E2D6F2D702FC8
:103AC0008E2F988561960FB6F894DEBF0FBECDBFDE
:103AD000CF91DF911F910F91FF90EF90DF90CF90EA
:103AE00008955093C9044093C8041092C7041092DB
:103AF000C6041092C30492E094BD67BD16BCA99A97
:103B0000EEE6F0E0908192609083877085BD089525
:103B10008091C3048823E1F31092C30408951F9297
:103B20000F920FB60F9211242F933F938F939F9371
:103B30008091C6049091C70401969093C704809326
:103B4000C6042091C6043091C7048091C8049091A6
:103B5000C9048217930750F48091C3048F5F809348
:103B6000C3041092C7041092C60416BC9F918F9193
:103B70003F912F910F900FBE0F901F901895991B9A
:103B800079E004C0991F961708F0961B881F7A9554
:103B9000C9F780950895AA1BBB1B51E107C0AA1F56
:103BA000BB1FA617B70710F0A61BB70B881F991FDE
:103BB0005A95A9F780959095BC01CD0108952F9253
:103BC0003F924F925F926F927F928F929F92AF92AD
:103BD000BF92CF92DF92EF92FF920F931F93CF93FA
:103BE000DF93CDB7DEB7CA1BDB0B0FB6F894DEBF91
:103BF0000FBECDBF09942A88398848885F846E84B7
:103C00007D848C849B84AA84B984C884DF80EE8000
:103C1000FD800C811B81AA81B981CE0FD11D0FB609
:103C2000F894DEBF0FBECDBFED010895F894FFCF2D
:103C30004D41525445532020004C554E45532020B1
:103C400020004D494552434F4C45004A5545564585
:103C500053202000564945524E45532000534142BF
:103C600041444F202000444F4D494E474F200020F3
:103C70002020202020202000000102020303030353
:103C800004040404040404040505050505050505EC
:103C900005050505050505050606060606060606CC
:103CA00006060606060606060606060606060606B4
:103CB000060606060606060607070707070707079C
:103CC0000707070707070707070707070707070784
:103CD0000707070707070707070707070707070774
:103CE0000707070707070707070707070707070764
:103CF000070707070707070708080808080808084C
:103D00000808080808080808080808080808080833
:103D10000808080808080808080808080808080823
:103D20000808080808080808080808080808080813
:103D30000808080808080808080808080808080803
:103D400008080808080808080808080808080808F3
:103D500008080808080808080808080808080808E3
:103D600008080808080808080808080808080808D3
:103D70000808080808080808F8202020202020202B
:103D80002020202020202020202020202020202033
:103D90002020202020202020202020202020202023
:103DA000201F1C1F1E1F1E1F1F1E1F1E1F1F1D1F2B
:103DB0001E1F1E1F1F1E1F1E1F000000060101D018
:103DC00007000302050003050104060204000105C3
:103DD000040602030700080109020A030B040C058C
:103DE0000D060E070F0003050104020D09070B065F
:103DF000080C0A0F0E3031323334353620202020A3
:103E00000200F00C010017130200220D020017132C
:103E10000100790D0300351601005D0D0700171331
:103E20000100270D0100171303005D0D0700101698
:103E30000300790D0300351603007C0D01002416E4
:103E40000700F00C05007A120700FA0C0600B41601
:103E50000700220D0700171306006F0D0600AC15B2
:103E60000600F00C05007A120500F00C05007A122D
:103E70000500690D02005C160500630D0A00DD11E6
:103E800005006F0D070000160A00F00C0800DD1198
:103E90000A00FA0C0900B4160A00220D0A001713D2
:103EA00009006F0D090048150900F00C0800DD112C
:103EB0000800F00C0800DD110800690D02005C1616
:103EC0000800630D0D00401108006F0D0A009C15DD
:103ED0000D00F00C0B0040110D00FA0C0C00B41694
:103EE0000D00220D0D0017130C006F0D0C00C614F1
:103EF0000C00F00C0B0040110B00F00C0B004011FB
:103F00000B00690D02005C160B00630D1000A3107E
:103F10000B006F0D0D0038151000F00C0E00A310F3
:103F20001000FA0C0F00B4161000220D1000171329
:103F30000F006F0D0F0065140F00F00C0E00A310A2
:103F40000E00F00C0E00A3100E00690D02005C16AE
:103F50000E00630D130002100E006F0D1000B6145A
:103F60001300F00C110002101300FA0C1200601480
:103F70001300220D1300EC1312006F0D1200EF134B
:103F80001200F00C110002101100F00C11000210D0
:103F90001100690D02005C161100630D02005C1631
:103FA00011006F0D13005014FFFF0000FFFF000011
:00000001FF
