:100000000C94A1010C94BE010C94BE010C94BE0191
:100010000C94BE010C94BE010C94BE010C94BE0164
:100020000C94BE010C94BE010C94BE010C94BE0154
:100030000C94BE010C94BE010C949A1C0C94BE014D
:100040000C94BE010C94BE010C94BE010C94BE0134
:100050000C94BE010C94BE010C94BE010C94BE0124
:100060000C94D1040C94BE018D0B930B9C0B9C0B38
:100070009C0B9C0B9C0B9C0B9C0B9C0B9C0B9C0B48
:10008000960B900B960B9C0B300B2D0B330B360BFA
:10009000390B9F0B3C0B3F0B420BA20B9C0B9C0B99
:1000A0009C0B9C0B9C0B9C0B9C0B450B480B4E0B11
:1000B000510B570B5A0B5D0BA50BA80B690B6C0B67
:1000C0006F0BAE0BAE0B300B780B7E0BB10B9F0B97
:1000D000B10BB70BB70B8A0BA50BBA0B9F0B9C0B85
:1000E0009C0B9C0B9C0B9C0B9C0B450B480B4B0BD4
:1000F000510B540B5A0BA20B600B630B660B6C0B72
:10010000A80BAB0BAB0B750B780B7B0B810B9F0B11
:10011000840BB40BB40B870BA50BBA0B9F0B9C0B7A
:100120009C0B9C0B9C0B9C0B9C0B9C0B9C0B9C0B97
:100130009C0B9C0B9C0B9C0B9C0B9C0B9C0B9C0B87
:100140009C0B9C0B9C0B9C0B9C0B9C0B9C0B9C0B77
:100150009C0B9C0B9C0B9C0B9C0B9C0B9C0B9C0B67
:100160009C0B9C0B9C0B9C0B9C0B9C0B9C0B9C0B57
:10017000720B720B9C0B9C0B9C0B9C0B9C0B9C0B9B
:100180009C0B9C0B9C0B9C0B9C0B9C0B9C0B9C0B37
:100190009C0B9C0B9C0B9C0B9C0B9C0B990B720C53
:1001A0007B0CA20CB40CB40CAE0CB40C9F0CBA0CAF
:1001B000840C870C8A0C810C750C7E0C900CD00B77
:1001C000CD0BD30BD60BD90BB70CDC0BDF0BE20B33
:1001D000E50BB40CB40C990C9C0C960C780CB10C7F
:1001E000EB0BF10BBA0CFA0B000C060C0C0C120CFE
:1001F000150C1B0C210C240C2A0C2D0CD00B390CCB
:100200003F0C450CB70C4E0C540C5A0C600C630C94
:10021000690C6F0CBA0C930C840CB40CB40CA80CC5
:10022000E80BEE0BF40BF70BFD0B030C090C0F0C9A
:10023000BD0C180C1E0CBD0C270CC00C330C360C5E
:100240003C0C420C480C4B0C510C570C5D0C630CD5
:10025000660C6C0CB40CBD0CB40C750CB40CB40C6A
:10026000B40CB40CB40CB40CB40CB40CB40CB40C8E
:10027000B40CB40CB40CB40CB40CB40CB40CB40C7E
:10028000B40CB40CB40CB40CB40CB40CB40CB40C6E
:10029000B40CB40CB40CB40CB40CB40CB40CB40C5E
:1002A000B40CB40CB40CC00C300CB40CB40CB40CC6
:1002B000B40CB40CB40CAB0CB40CB40CB40CB40C47
:1002C000B40CB40CB40CA50CB40CB40C7E0CB40C73
:1002D000B40CB40CB40CB40CB40CB40CB40CB40C1E
:1002E000B40CB40CB40CB40CB40CB40CB40CB40C0E
:1002F000B40CB40CB40CB40CB40CB40CB40CB40CFE
:10030000B40CB40CB40CB40CB40CB40CB40CB40CED
:10031000B40CB40CB40CB40CB40CB40CB40CB40CDD
:10032000B40CB40CB40CB40CB40CB40CB40CB40CCD
:10033000B40CB40CB40CB40CB40CB40CB40CB40CBD
:100340008D0C11241FBECFEFD8E0DEBFCDBF14E06F
:10035000A0E0B1E0E6E4FAE302C005900D92A03619
:10036000B107D9F714E0A0E6B4E001C01D92A23AAB
:10037000B107E1F70E94CF150C94211D0C940000E9
:10038000A8E1B0E0E6ECF1E00C94F61C69837A8316
:100390008B839C832D833E834F83588789E0E82E8F
:1003A000F12CEC0EFD1ECE010196B7010E947203E6
:1003B0008E010F5E1F4FCE010596B8010E94720399
:1003C0008985823040F08989823028F0C701B801E0
:1003D0000E94EA0301C081E06896E6E00C94121DD9
:1003E000A8E0B0E0E6EFF1E00C94F31C9B01AC0157
:1003F00083E08983DA01C9018827B7FD83959927AE
:10040000AA27BB27B82E211531054105510519F43E
:1004100082E089833AC08823A9F0203080E0380741
:1004200080E0480780E8580729F460E070E080E049
:100430009FEC30C0EE24FF248701E21AF30A040B7C
:10044000150B02C079018A018EE1C82ED12CDC8205
:10045000CB82ED82FE820F831887C801B7010E940C
:100460004E0201971816190684F4082E04C0EE0CEB
:10047000FF1C001F111F0A94D2F7ED82FE820F832A
:100480001887C81AD90ADC82CB82BA82CE010196BB
:100490000E949D022896E9E00C940F1DEF92FF92B6
:1004A0000F931F937B018C0180E0E81680E0F80633
:1004B00081E0080780E0180788F48FEFE816F10460
:1004C0000105110531F028F088E090E0A0E0B0E0EF
:1004D00017C080E090E0A0E0B0E012C080E0E81635
:1004E00080E0F80680E0080781E0180728F088E13E
:1004F00090E0A0E0B0E004C080E190E0A0E0B0E0D7
:1005000020E230E040E050E0281B390B4A0B5B0B47
:1005100004C016950795F794E7948A95D2F7F701EA
:10052000E85BFE4F8081281B310941095109C9014F
:100530001F910F91FF90EF900895DF92EF92FF923D
:100540000F931F93FC01E480F58006811781D18011
:100550008081823048F480E090E0A0E1B0E0E82AB9
:10056000F92A0A2B1B2BA5C0843009F49FC08230C6
:1005700021F4EE24FF24870105C0E114F1040105F4
:10058000110519F4E0E0F0E096C0628173819FEFFD
:10059000623879070CF05BC022E83FEF261B370B6F
:1005A0002A3131052CF020E030E040E050E02AC054
:1005B000B801A701022E04C0769567955795479517
:1005C0000A94D2F781E090E0A0E0B0E004C0880F88
:1005D000991FAA1FBB1F2A95D2F70197A109B1093C
:1005E0008E219F21A023B1230097A105B10521F001
:1005F00081E090E0A0E0B0E09A01AB01282B392B1C
:100600004A2B5B2BDA01C9018F779070A070B07014
:1006100080349105A105B10539F427FF09C0205C9C
:100620003F4F4F4F5F4F04C0215C3F4F4F4F5F4FD5
:10063000E0E0F0E02030A0E03A07A0E04A07A0E4C4
:100640005A0710F0E1E0F0E079018A0127C0603834
:10065000710564F5FB01E158FF4FD801C7018F77A1
:100660009070A070B07080349105A105B10539F487
:10067000E7FE0DC080E490E0A0E0B0E004C08FE3AE
:1006800090E0A0E0B0E0E80EF91E0A1F1B1F17FF64
:1006900005C016950795F794E794319687E016956F
:1006A0000795F794E7948A95D1F705C0EE24FF24C7
:1006B0008701EFEFF0E06E2F679566276795902F23
:1006C0009F77D794DD24D7948E2F8695492F462B7C
:1006D000582F5D29B701CA011F910F91FF90EF902C
:1006E000DF900895FC01DB01408151812281622F5E
:1006F0006F7770E0221F2227221F9381892F880F96
:10070000822B282F30E0991F9927991F11969C93CF
:10071000119721153105A9F541155105610571059F
:1007200011F482E037C082E89FEF13969C938E937A
:1007300012979A01AB0167E0220F331F441F551F28
:100740006A95D1F783E08C930DC0220F331F441FAD
:10075000551F12968D919C911397019713969C9318
:100760008E931297203080E0380780E0480780E4BD
:10077000580758F314962D933D934D935C93179718
:1007800008952F3F310579F4411551056105710533
:1007900019F484E08C93089564FF03C081E08C9386
:1007A00012C01C9210C02F57304013963C932E93CA
:1007B000129783E08C9387E0440F551F661F771FC5
:1007C0008A95D1F7706414964D935D936D937C93E5
:1007D000179708951F93DC01FB019C91923008F458
:1007E00047C08081823008F443C0943051F41196A0
:1007F0001C91843099F58181682F70E0611B71092B
:100800003FC0843021F0923031F48230B9F18181DF
:10081000882389F12DC011961C9111978230F1F037
:1008200081811817D9F412962D913C9113978281EA
:1008300093818217930794F028173907BCF0149618
:100840008D919D910D90BC91A02D24813581468183
:100850005781281739074A075B0718F4112341F01D
:100860000AC082179307A407B50740F4112319F0B3
:1008700061E070E005C06FEF7FEF02C060E070E004
:10088000CB011F910895109278041092770485B7D8
:100890008F7E85BF84B184B987B1836087B98AB1FF
:1008A000836F8AB985B1836385B988B1836088B95C
:1008B0008BB1836F8BB9089586B129B190E0809593
:1008C000909583709070982F882730E02095309510
:1008D000237F3070822B932B90937804809377043E
:1008E000089581E18093B8008FEF8093BB0084E08E
:1008F0008093BC0008958091BC0081700895809120
:10090000BC0080FDFCCF809148020895FC018091DD
:10091000BC0080FDFCCF60937604808180936204EC
:1009200080FD0DC04E2FA3E6B4E0CF01FC0102C054
:1009300080818D9331968E2F841B8617C8F3109279
:10094000600488EF8093480285EA8093BC00089594
:100950008091BC0080FDFCCF1092600488EF8093F2
:10096000480285EA8093BC000895AC018091BC00E8
:1009700080FDFCCF8091600480FF0FC020E030E05C
:100980000AC0FA01E20FF31FD901AE59BB4F8C9197
:1009900080832F5F3F4F2617A0F380916004817002
:1009A00008951F920F920FB60F9211242F933F9329
:1009B0008F939F93EF93FF938091B9008832D1F08A
:1009C000893240F48031A1F08831A1F0883009F0FB
:1009D0004DC00EC0803459F1813420F4883309F0C1
:1009E00045C042C08035B9F0883509F03FC02DC000
:1009F000109261049091610480917604981768F5D3
:100A0000E92FF0E0EE59FB4F80818093BB009F5FA0
:100A10009093610418C0809161049091BB00E82F0D
:100A2000F0E0EE59FB4F90838F5F8093610420913B
:100A3000610430E08091760490E00197281739072F
:100A400014F485EC18C085E816C08091BB00E091D5
:100A50006104F0E0EE59FB4F808380916004816077
:100A60008093600484E907C085EA05C08091B900DD
:100A70008093480284E08093BC00FF91EF919F91A6
:100A80008F913F912F910F900FBE0F901F9018954F
:100A90008F70805D0895282F30E0207F307043E014
:100AA000359527954A95E1F7A901440F551F440F45
:100AB000551F420F531F8F70840F0895282F6AE02F
:100AC0000E94CA1C482F50E074E0440F551F7A95CD
:100AD000E1F7822F0E94CA1C892F8F70842B089502
:100AE000DF93CF93CDB7DEB728970FB6F894DEBF6C
:100AF0000FBECDBF8F8398872F813885C90160E9EC
:100B000071E00E94D61C892B71F0C90164E670E087
:100B10000E94D61C892B11F480E006C080E023706F
:100B20003070232B09F481E028960FB6F894DEBFCD
:100B30000FBECDBFCF91DF910895DF92EF92FF926C
:100B40000F931F93DF93CF93CDB7DEB760970FB6A8
:100B5000F894DEBF0FBECDBF29873A874B878F87BA
:100B6000988BEF84F888472FD62E80E090E0733082
:100B700010F481E090E08701081B190B2D2D30E067
:100B800021503040200F311FC801969587959695CA
:100B90008795280F391FC80160E971E00E94D61CB3
:100BA000260F371FE42FF0E0E059FD4F8081280F1A
:100BB000311DC80164E670E00E94D61CC901861B85
:100BC000970B67E070E00E94D61C8F5F8C87F88AD5
:100BD000EF864E87DD86DE011196FE01399688E0AC
:100BE00001900D928150E1F729813A814B815C811E
:100BF0006D817E818F81988560960FB6F894DEBFF7
:100C00000FBECDBFCF91DF911F910F91FF90EF905D
:100C1000DF900895EF92FF920F931F93DF93CF938E
:100C2000CDB7DEB768970FB6F894DEBF0FBECDBF65
:100C3000982F362F122F8C3308F090E03C3308F0B9
:100C400030E0802F81508C3008F001E0EF82F88690
:100C500099833A830E83292F4B815C816D81702F9C
:100C6000C7010E947005882339F0112371F0E02F2D
:100C7000F0E0E45AFD4F06C0112339F0E02FF0E018
:100C8000E05BFD4F8081811708F411E01D8329810D
:100C90003A814B815C81612F7E818F8198850E9492
:100CA0009D05298B3A8B4B8B5C8B6D8B7E8B8F8B51
:100CB000988FDE011996FE01719688E001900D92E1
:100CC0008150E1F729853A854B855C856D857E8568
:100CD0008F85988968960FB6F894DEBF0FBECDBF9A
:100CE000CF91DF911F910F91FF90EF900895DF93C7
:100CF000CF93CDB7DEB728970FB6F894DEBF0FBEFF
:100D0000CDBF5430C9F0553038F4523061F0533013
:100D100080F45130E9F40AC05630A1F0563078F032
:100D20005730B1F412C020E031E014C029E031E0C6
:100D300011C022E131E00EC02BE131E00BC024E212
:100D400031E008C02DE231E005C026E331E002C009
:100D50002FE331E0C90128960FB6F894DEBF0FBE2D
:100D6000CDBFCF91DF910895DF92EF92FF920F9365
:100D70001F93DF93CF93CDB7DEB760970FB6F8948C
:100D8000DEBF0FBECDBF29873A878F87988BE72EAE
:100D90000F8518894F5F483120F4C801D52EF62EF3
:100DA00030C0F62EF394573018F0DD24D39402C0EF
:100DB000D52ED394188B0F8729853A8540E05D2D79
:100DC0006F2D7E2D802F98890E947005EE2DF0E00A
:100DD000882319F0E45AFD4F02C0E05BFD4F80818B
:100DE0008F1560F47E2D7F5F7D3020F0C801019665
:100DF00071E001C0C801FF24F39402C0C8017E2D38
:100E000040E04B87FD86DC867E87988B8F87DE01EE
:100E10001196FE01399688E001900D928150E1F71C
:100E200029813A814B815C816D817E818F8198859A
:100E300060960FB6F894DEBF0FBECDBFCF91DF91A5
:100E40001F910F91FF90EF90DF9008950F931F93E4
:100E5000DF93CF93CDB7DEB768970FB6F894DEBFB8
:100E60000FBECDBF29874B875C876D877E878F87B5
:100E7000988B3F5F8E010F5F1F4F3C33A8F01A869F
:100E800030E00E94B406298B3A8B4B8B5C8B6D8BC8
:100E90007E8B8F8B988FD801FE01719688E0019030
:100EA0000D928150E1F709C03A87D801FE013996C9
:100EB00088E001900D928150E1F729813A814B81C0
:100EC0005C816D817E818F81988568960FB6F894DC
:100ED000DEBF0FBECDBFCF91DF911F910F9108955F
:100EE000EF92FF920F931F93DF93CF93CDB7DEB7AF
:100EF00060970FB6F894DEBF0FBECDBF29873A8743
:100F00008F87988B2F853889F52E442309F052C09E
:100F10006230C0F5723030F48901015010407CE03D
:100F2000E72E03C0E72EEA948901188B0F872985E5
:100F30003A8547E15F2D7E2D802F98890E947005AC
:100F4000EE2DF0E0882319F0E45AFD4F02C0E05B7B
:100F5000FD4F908181E08F1510F057E002C05F2DAA
:100F6000515087E18B879D87EE86188B0F875C87B2
:100F7000DE011196FE01399688E001900D928150B4
:100F8000E1F728C081E0851710F057E001C051500B
:100F900087E18B8761506D877E87388B2F875C87D1
:100FA000DE011196FE01399688E001900D92815084
:100FB000E1F710C041504B876D877E87388B2F87B4
:100FC0005C87DE011196FE01399688E001900D9252
:100FD0008150E1F729813A814B815C816D817E816D
:100FE0008F81988560960FB6F894DEBF0FBECDBF97
:100FF000CF91DF911F910F91FF90EF9008950F9384
:101000001F93DF93CF93CDB7DEB768970FB6F894F1
:10101000DEBF0FBECDBF29874B875C876D877E877C
:101020008F87988B8E010F5F1F4F3323B9F48BE3AB
:101030008A873BE38F850E947007298B3A8B4B8B05
:101040005C8B6D8B7E8B8F8B988FD801FE01719698
:1010500088E001900D928150E1F70AC031503A8743
:10106000D801FE01399688E001900D928150E1F798
:1010700029813A814B815C816D817E818F81988548
:1010800068960FB6F894DEBF0FBECDBFCF91DF914B
:101090001F910F910895AF92BF92CF92EF92FF925E
:1010A000DF93CF93CDB7DEB760970FB6F894DEBF6E
:1010B0000FBECDBFF716A0F07F15A0F0E61680F0AA
:1010C0006E1580F0C41660F04C1560F0B31640F059
:1010D0003B1540F0A21620F02A1520F080E003C056
:1010E00081E001C08FEF60960FB6F894DEBF0FBEAF
:1010F000CDBFCF91DF91FF90EF90CF90BF90AF9099
:101100000895AF92BF92CF92EF92FF920F931F93E9
:10111000DF93CF93CDB7DEB760970FB6F894DEBFFD
:101120000FBECDBF8F8398870F87188BEF81F8850F
:101130008F8598898E179F07C8F0E817F907C0F0C8
:10114000F716A0F07F15A0F0E61680F06E1580F07F
:10115000C41660F04C1560F0B31640F03B1540F03B
:10116000A21620F02A1520F080E003C081E001C023
:101170008FEF60960FB6F894DEBF0FBECDBFCF9154
:10118000DF911F910F91FF90EF90CF90BF90AF90A4
:10119000089520E030E040E2FC01E20FF31F4083BD
:1011A0002F5F3F4F28303105B9F708956F3008F0B1
:1011B0006FE080937904606E60937A0489E794E02D
:1011C00062E00E94860408958093790480E8809309
:1011D0007A0489E794E062E00E9486040895623808
:1011E00029F0643819F0663809F060E880937904D2
:1011F000616860937A0489E794E062E00E94860463
:101200000895FF920F931F93F82E09E714E080933F
:10121000790481E280937A04C80162E00E94860426
:10122000F092790481E880937A04C80162E00E9418
:1012300086041F910F91FF90089580937904109276
:101240007A04EBE7F4E0119284E0EB38F807D9F781
:10125000CF01429762E10E94860408951F93122FE6
:101260008093790410927A04613021F48BE794E042
:101270006EE008C08BE794E06EE00E940C0B8BE7F9
:1012800094E06FE0412F0E940C0B89E794E062E14B
:101290000E9486041F910895DF92EF92FF920F93B0
:1012A0001F93CF93DF93FA01D22E8093790410928B
:1012B0007A046230F9F0633019F1613049F48BE758
:1012C00094E060E10E94C00A8BE794E06EE00EC0FB
:1012D0008BE794E060E10E94C00A8BE794E06EE047
:1012E0004D2D0E940C0B8BE794E06FE0402F0E9485
:1012F0000C0B64C08BE794E060E10E94CC0A5EC0F6
:1013000090818281808381818283918380E287833F
:101310008BE794E060E10E94C00A8BE794E00E94B2
:10132000D80ACDE7D2E010E0E02EFF24C701088004
:1013300002C0959587950A94E2F780FF07C08BE776
:1013400094E0612F41E00E94EB0A06C08BE794E035
:10135000612F41E00E94FB0A21961E5F1E3031F78B
:10136000E7FE07C08BE794E06CE040E00E94EB0AE8
:1013700006C08BE794E06CE040E00E94FB0A1D2D64
:10138000D0FE07C08BE794E063E041E00E94EB0AE7
:1013900006C08BE794E063E041E00E94FB0A11FF86
:1013A00007C08BE794E065E041E00E94EB0A06C0CD
:1013B0008BE794E065E041E00E94FB0A89E794E056
:1013C00062E10E948604DF91CF911F910F91FF90FF
:1013D000EF90DF900895FC01718360835383428313
:1013E0003583248308950F931F93CF93DF938C014C
:1013F000FC01C281D38119C0F801808191818217DB
:10140000930791F4EA81FB81C8010995882361F073
:101410008C819D81F80191838083EE81FF813097DB
:1014200041F0C801099505C028962881398137FF08
:10143000E3CFDF91CF911F910F9108952F923F92AB
:101440004F925F926F927F928F929F92AF92BF92D4
:10145000CF92DF92EF92FF920F931F93DF93CF9380
:10146000CDB7DEB769970FB6F894DEBF0FBECDBF1C
:10147000888F998F698B5B8B4A8B3D8B2C8B1F8B55
:101480000E8B6C01882499245BC0F6011082EA89D6
:10149000FB89E80DF91D3080832D90E021E0622E5C
:1014A000712C032C02C0660C771C0A94E2F77E01B3
:1014B0000894E11CF11CAA24BB24A81AB90A00E074
:1014C00010E02C01222061F4EE89FF89E00FF11F6A
:1014D00080812C893D89F9010995F70191838083E9
:1014E000F70120813181F6014081031560F4262146
:1014F0003721C201801B910B02C0369527958A9532
:10150000E2F7422B0AC0262137210A2C02C0220F03
:10151000331F0A94E2F7422BF60140830F5F1F4FFF
:1015200022E030E0E20EF31E0894A11CB11C08304A
:10153000110541F60894811C911C0894C11CD11C12
:10154000282C3989831608F4A0CF888D998D699647
:101550000FB6F894DEBF0FBECDBFCF91DF911F91C4
:101560000F91FF90EF90DF90CF90BF90AF909F9042
:101570008F907F906F905F904F903F902F90089545
:101580000F931F938A0145E852E02EE13BE00E9451
:101590001E0A1F910F9108950F931F938A0145E929
:1015A00052E02EEB3BE00E941E0A1F910F9108951E
:1015B000AC01FC0120E08081982F9295969596953C
:1015C00093709183880F880F80832F5F3296283025
:1015D00091F7CA010895FC01DC01A60FB11D81E05D
:1015E00090E002C0880F991F4A95E2F72C91282BB2
:1015F0002C93CF010895FC01DC01A60FB11D81E001
:1016000090E002C0880F991F4A95E2F780952C91CF
:1016100028232C93CF0108959C01FC01E60FF11DB6
:101620008081842B8083C90108959C01FC01E60F11
:10163000F11D808184238083C901089590E0FC011D
:10164000B097EB39F10508F077C0EC5CFF4FEE0F77
:10165000FF1F0590F491E02D099426E030E08CC046
:101660002FE330E089C02BE530E086C02FE430E086
:1016700083C026E630E080C02DE730E07DC027E063
:1016800030E07AC02FE730E077C027E730E074C061
:101690002CE730E071C028E530E06EC029E330E08F
:1016A0006BC02EE530E068C02BE730E065C029E76D
:1016B00030E062C021E730E05FC02DE330E05CC085
:1016C00024E730E059C020E130E056C02EE130E0A0
:1016D00053C02FE130E050C020E730E04DC028E398
:1016E00030E04AC025E530E047C02CE530E044C09A
:1016F00023E730E041C02CED30E03EC02FEB30E07E
:101700003BC020E530E038C028E730E035C02CE9A8
:1017100030E032C02EEB30E02FC020E030E02CC0B3
:1017200020E430E029C022E830E026C020E830E0A4
:1017300023C023E630E020C028E030E01DC02DE6C5
:1017400030E01AC02FE630E017C026E730E014C0C2
:1017500020E330E011C024E530E00EC027E330E0A4
:101760000BC021E330E008C02CE130E005C02EE3DF
:1017700030E002C02EE630E0C901089590E0FC019F
:10178000B097E23DF10508F0EFC0E153FF4FEE0FD7
:10179000FF1F0590F491E02D099426E031E0F2C09E
:1017A0002FE330E0EFC02BE132E2ECC02FE032E07B
:1017B000E9C026E232E2E6C02DE332E2E3C027E0F0
:1017C00030E0E0C02FE332E2DDC02FE232E2DAC0E7
:1017D0002FE132E2D7C027E332E2D4C02CE332E279
:1017E000D1C02FE83AE0CEC028E132E2CBC02EE0F3
:1017F00032E2C8C02FE838E0C5C02BE332E2C2C0F5
:1018000029E330E2BFC021E330E2BCC021E332E291
:10181000B9C027E236E2B6C02DE332E0B3C024E31C
:1018200032E2B0C026E332E2ADC029E838E0AAC017
:1018300026E034E0A7C02FE130E0A4C020E83DE07E
:10184000A1C020E335E29EC028E330E09BC024E144
:101850003AE298C026E731E095C026E734E092C02E
:1018600027E734E08FC02CE132E28CC023E83AE075
:1018700089C023E332E286C027E232E283C02FE34D
:1018800034E080C020E130E27DC023E336E27AC05C
:101890002DE432E077C028E330E274C021E838E07C
:1018A00071C02CE130E06EC02EE330E06BC020E16F
:1018B00030E168C020E331E165C024E134E162C079
:1018C00026E334E15FC020E435E15CC02EE832E07D
:1018D00059C020E439E056C029E033E153C029E083
:1018E00031E150C020E030E04DC020E032E24AC09B
:1018F00023E03AE847C022E030E844C020E030E886
:1019000041C020E030E13EC02FE030E03BC020ECA1
:101910003DE138C020E83AE235C028E83AE232C07A
:1019200020E031E12FC020E434E02CC020E430E19D
:1019300029C020E035E026C028E032E223C020E8BC
:1019400030E020C022E830E01DC020E031E01AC0C5
:1019500020E430E017C024E032E214C020E637E390
:1019600011C02FE138E20EC028E030E00BC02DE2BC
:1019700032E208C029E330E005C020E838E002C0C8
:1019800024E132E2C9010895FF920F931F93DF9380
:10199000CF9300D0CDB7DEB7F82E89831A828E019F
:1019A0000F5F1F4FC80162E00E94860481E0F82AA1
:1019B000F982C80163E00E948604C80163E00E94C6
:1019C000B5049A8180E02B8130E0282B392BC901A6
:1019D0000F900F90CF91DF911F910F91FF9008957D
:1019E000809177049091780420E0892B09F421E01C
:1019F000822F08958091770490917804892B19F4AF
:101A000080E090E0089580919904882319F420E003
:101A100030E010C040E020918B0430918C04809124
:101A20008F04909190042817390708F441E081E071
:101A30004827242F90E0222309F491E081E09827A1
:101A4000892F08958091770490917804089580916A
:101A500077049091780420E08F77892B09F421E0B6
:101A6000822F0895809177049091780485FD03C0BA
:101A700080E090E00895809177049091780424E0CC
:101A8000969587952A95E1F781700895809177045E
:101A90009091780485FD03C081E090E008958091E5
:101AA00077049091780434E0969587953A95E1F71C
:101AB00080959095817090700895809177049091B1
:101AC00078048074089580917704909178048078E8
:101AD000089580917704909178048074089580919E
:101AE00077049091780420E0892B09F021E0822F7F
:101AF000089580919D04089590E080919D0488232D
:101B000009F491E0892F08959093900480938F04B5
:101B100010928C0410928B0481E0809399040895B4
:101B200010929904089580919904882319F480E013
:101B300090E0089540E020918B0430918C048091D6
:101B40008F04909190042817390708F441E081E050
:101B50004827842F089580919904882369F0809103
:101B60008B0490918C048F3F910550F401969093D3
:101B70008C0480938B04089510928C0410928B0433
:101B800008958091910480939C0481E080939A044D
:101B900008959091910480919C04891759F0909335
:101BA0009C0480919A0487FF02C081E001C0880FE5
:101BB00080939A0480919A040895ECE7F0E0808184
:101BC00080668083EAE7F0E08081876880830895FB
:101BD00090917C008F70907F892B80937C00809106
:101BE0007A00806480937A0080917A0086FDFCCF31
:101BF00080917900089580E90E94C40C0895EF92C5
:101C0000FF920F931F93CF93DF9380E90E94C40C40
:101C1000EC0190938E0480938D04BE01882777FD9C
:101C20008095982F0E94F00120E030E040E850ECD1
:101C30000E94C001882304F5882799278C1B9D0BDF
:101C4000092F112766E0959587956A95E1F78370CE
:101C5000907029E130E0829F7001839FF00C929F89
:101C6000F00C11240A30110514F08DE222C080E23C
:101C7000809349028DE22DC00D2F112746E0D595A6
:101C8000C7954A95E1F7C370D07089E190E0C89F8D
:101C90007001C99FF00CD89FF00C11240436110577
:101CA0005CF0802F64E60E94CA1C0E945E050E94C0
:101CB00048058093490206C080E2809349020A30B9
:101CC00011053CF0802F0E945E0582958F700E9466
:101CD000480580934A02802F0E945E050E944805B5
:101CE00080934B028E2D0E945E0582958F700E941C
:101CF000480580934C028E2D0E945E050E94480587
:101D000080934D028AEB80934E0283E480934F02CE
:101D100080E28093500289E492E0DF91CF911F919D
:101D20000F91FF90EF900895CF93DF9380E90E9489
:101D3000C40C9C0190938E0480938D048FEF243EFD
:101D40003807ACF0C32FDD27C436D1054CF08C2FFB
:101D500064E60E94CA1C0E945E050E94480511C0EC
:101D600080E280934902CA30D105CCF00CC08827AC
:101D70009927821B930BC92FDD27CA30D1055CF050
:101D80008DE2809349028C2F0E945E0582958F70B0
:101D90000E94480504C080E2809349028DE280934E
:101DA0004A028C2F0E945E050E94480580934B02D8
:101DB0008AEB80934C0283E480934D0280E280930F
:101DC0004E0280934F028093500289E492E0DF91AB
:101DD000CF9108950F93109299048091910480FF00
:101DE0003AC0809197049091980468EE73E00E9445
:101DF000D61C862F0E94480580934D02809197043F
:101E00009091980468EE73E00E94D61C64E670E03E
:101E10000E94D61C862F0E94480580934E02809116
:101E200097049091980464E670E00E94D61C6AE0E2
:101E300070E00E94D61C862F0E94480580934F02B6
:101E400080919704909198046AE070E00E94D61CFB
:101E50000E94480507C080E280934D0280934E02A5
:101E600080934F0280935002809195040E945E05FA
:101E700082958F700E944805809349028091950455
:101E80000E945E050E94480580934A028091960454
:101E90000E945E0582958F700E94480580934B02D8
:101EA000809196040E945E050E94480580934C0232
:101EB00080EE60E049E452E02AE000E00E944C0934
:101EC000809193040E945E0582958F700E94480560
:101ED00080934902809193040E945E050E94480508
:101EE00080934A02809192040E945E0582958F70D1
:101EF0000E94480580934B02809192040E945E05E7
:101F00000E94480580934C02009191040170000FDB
:101F100082EE61E049E452E020E00E944C090F911A
:101F200008950F93109299048091910480FF11C03D
:101F3000809196040E945E0582958F700E944805EC
:101F400080934B02809196040E945E050E94480592
:101F500003C080E280934B0280934C0280919504F1
:101F60000E945E0582958F700E9448058093490209
:101F7000809195040E945E050E94480580934A0264
:101F8000809197049091980468EE73E00E94D61CAB
:101F9000862F0E94480580934D028091970490916E
:101FA000980468EE73E00E94D61C64E670E00E941C
:101FB000D61C862F0E94480580934E02809197047C
:101FC0009091980464E670E00E94D61C6AE070E08C
:101FD0000E94D61C862F0E94480580934F02809154
:101FE0009704909198046AE070E00E94D61C0E94C9
:101FF00048058093500280EE60E049E452E02AE018
:1020000000E00E944C09809193040E945E05829535
:102010008F700E94480580934902809193040E942A
:102020005E050E94480580934A02809192040E94B6
:102030005E0582958F700E94480580934B028091C7
:1020400092040E945E050E94480580934C02009114
:1020500091040170000F82EE61E049E452E020E05B
:102060000E944C090F9108950F931092990480914A
:10207000910480FF11C0809195040E945E058295B5
:102080008F700E94480580934902809195040E94B8
:102090005E050E94480503C080E280934902809358
:1020A0004A02809196040E945E0582958F700E947C
:1020B000480580934B02809196040E945E050E9421
:1020C000480580934C02809197049091980468EEA3
:1020D00073E00E94D61C862F0E94480580934D0213
:1020E000809197049091980468EE73E00E94D61C4A
:1020F00064E670E00E94D61C862F0E9448058093FB
:102100004E02809197049091980464E670E00E94DA
:10211000D61C6AE070E00E94D61C862F0E944805FB
:1021200080934F0280919704909198046AE070E048
:102130000E94D61C0E9448058093500280EE60E009
:1021400049E452E02AE000E00E944C0980919304A7
:102150000E945E0582958F700E9448058093490217
:10216000809193040E945E050E94480580934A0274
:10217000809192040E945E0582958F700E944805AE
:1021800080934B02809192040E945E050E94480554
:1021900080934C02009191040170000F82EE61E087
:1021A00049E452E020E00E944C090F9108950F93FA
:1021B000109299048091910480FF11C08091920443
:1021C0000E945E0582958F700E94480580934B02A5
:1021D000809192040E945E050E94480503C080E23F
:1021E00080934B0280934C02809193040E945E0581
:1021F00082958F700E9448058093490280919304D4
:102200000E945E050E94480580934A020091910455
:102210000170000F82EE61E049E452E020E00E948C
:102220004C09809195040E945E0582958F700E94F2
:10223000480580934902809195040E945E050E94A2
:10224000480580934A02809196040E945E0582951B
:102250008F700E94480580934B02809196040E94E3
:102260005E050E94480580934C02809197049091EE
:10227000980468EE73E00E94D61C862F0E944805E1
:1022800080934D02809197049091980468EE73E0DA
:102290000E94D61C64E670E00E94D61C862F0E9425
:1022A000480580934E02809197049091980464E6CB
:1022B00070E00E94D61C6AE070E00E94D61C862F57
:1022C0000E94480580934F02809197049091980452
:1022D0006AE070E00E94D61C0E944805809350027C
:1022E00080EE60E049E452E02AE000E00E944C0900
:1022F0000F9108950F93109299048091910480FF9B
:1023000011C0809193040E945E0582958F700E9497
:10231000480580934902809193040E945E050E94C3
:10232000480503C080E28093490280934A0280916D
:1023300092040E945E0582958F700E9448058093EA
:102340004B02809192040E945E050E944805809392
:102350004C02009191040170000F82EE61E049E4AB
:1023600052E020E00E944C09809195040E945E0595
:1023700082958F700E944805809349028091950450
:102380000E945E050E94480580934A02809196044F
:102390000E945E0582958F700E94480580934B02D3
:1023A000809196040E945E050E94480580934C022D
:1023B000809197049091980468EE73E00E94D61C77
:1023C000862F0E94480580934D028091970490913A
:1023D000980468EE73E00E94D61C64E670E00E94E8
:1023E000D61C862F0E94480580934E028091970448
:1023F0009091980464E670E00E94D61C6AE070E058
:102400000E94D61C862F0E94480580934F0280911F
:102410009704909198046AE070E00E94D61C0E9494
:1024200048058093500280EE60E049E452E02AE0E3
:1024300000E00E944C090F910895CF92DF92EF9235
:10244000FF920F931F93B5E9EB2EB4E0FB2E809122
:1024500095040E945E0582958F700E944805A9E44C
:10246000CA2EA2E0DA2E80934902809195040E9440
:102470005E050E94480580934A02809196040E945E
:102480005E0582958F700E94480580934B02809173
:1024900096040E945E050E94480580934C0280913C
:1024A00097049091980468EE73E00E94D61C862FE2
:1024B0000E94480580934D02809197049091980462
:1024C00068EE73E00E94D61C64E670E00E94D61CA1
:1024D000862F0E94480580934E0280919704909128
:1024E000980464E670E00E94D61C6AE070E00E94E6
:1024F000D61C862F0E94480580934F028091970436
:10250000909198046AE070E00E94D61C0E944805F1
:102510008093500280EE60E0A6012AE000E00E9475
:102520004C09C60168E00E94C908870102501040AA
:10253000F80180810E945E0582958F700E94480597
:1025400080934902F80180810E945E050E9448053F
:1025500080934A02870103501040F80180810E9455
:102560005E0582958F700E94480580934B02F801AA
:1025700080810E945E050E94480580934C028CEF8A
:102580009FEFE80EF91EF70100810170000F82EE47
:1025900061E0A60120E00E944C0920919104309155
:1025A0009204409193045091940460919504709129
:1025B000960480919704909198040E947706AC014C
:1025C00084EE62E020E000E00E944C0980E090E0B0
:1025D0000E94940E7C010E94C90D082F86EE63E0D4
:1025E000A70120E00E944C091F910F91FF90EF90EE
:1025F000DF90CF9008950E941D120895EF920F93DF
:102600001F93CF93DF93EC0180917704909178042E
:1026100085FF06C0809177049091780484FD46C0C0
:10262000809177049091780485FF13C0809197047E
:1026300090919804019690939804809397048091C8
:1026400097049091980484539840E0F08CE697E0CA
:1026500015C0809177049091780484FF13C0809115
:102660009704909198048D56974018F483E398E06E
:1026700005C08091970490919804019790939804D5
:102680008093970480ED0091910410919204209121
:102690009304309194044091950450919604609174
:1026A000970470919804EE240E94821ACE010E9431
:1026B0001D12DF91CF911F910F91EF90089528EE99
:1026C00033E03093900420938F0410928C04109286
:1026D0008B0421E0209399040E94FE120895109229
:1026E00099040E941D120895EF920F931F93CF93A8
:1026F000DF93EC01809177049091780485FF06C008
:10270000809177049091780484FD36C0809177049D
:102710009091780485FF0BC0809196048F5F809321
:102720009604809196048D3098F081E00FC08091DE
:1027300077049091780484FF0BC0809196048230D6
:1027400010F48CE003C0809196048150809396042D
:1027500080ED0091910410919204209193043091A6
:10276000940440919504509196046091970470915F
:102770009804EE240E94821ACE010E941D12DF915D
:10278000CF911F910F91EF90089528EE33E0309391
:10279000900420938F0410928C0410928B0421E0FB
:1027A000209399040E9474130895EF920F931F933E
:1027B000CF93DF93EC01809177049091780485FFAB
:1027C00006C0809177049091780484FD57C02091D1
:1027D000910430919204409193045091940460913B
:1027E00095047091960480919704909198040E94AA
:1027F0007005882331F0E0919604F0E0E45AFD4F33
:1028000005C0E0919604F0E0E05BFD4FE08180912F
:1028100077049091780485FF0BC0809195048F5FB9
:102820008093950480919504E817A0F481E010C08E
:10283000809177049091780484FF0CC08091950476
:10284000823018F4E093950405C08091950481507E
:102850008093950480ED0091910410919204209151
:1028600093043091940440919504509196046091A2
:10287000970470919804EE240E94821ACE010E945F
:102880001D12DF91CF911F910F91EF90089528EEC7
:1028900033E03093900420938F0410928C041092B4
:1028A0008B0421E0209399040E94D5130895EF92A0
:1028B0000F931F93CF93DF93EC0180917704909156
:1028C000780485FF06C0809177049091780484FD98
:1028D00039C0809177049091780485FF0EC0809173
:1028E00092048F5F80939204809192048C3310F055
:1028F000109292041092910411C0809177049091EB
:10290000780484FF0BC080919204882311F48BE338
:1029100003C08091920481508093920480ED0091D5
:102920009104109192042091930430919404409169
:102930009504509196046091970470919804EE2448
:102940000E94821ACE010E941D12DF91CF911F9129
:102950000F91EF90089528EE33E030939004209388
:102960008F0410928C0410928B0421E02093990420
:102970000E9457140895EF920F931F93CF93DF9304
:10298000EC01809177049091780485FF06C08091D6
:1029900077049091780484FD39C0809177049091F8
:1029A000780485FF0CC0809193048F5F809393041B
:1029B000809193048831A0F01092930411C080910B
:1029C00077049091780484FF0DC08091930488234C
:1029D00011F487E103C080919304815080939304A4
:1029E0001092910480ED0091910410919204209135
:1029F0009304309194044091950450919604609111
:102A0000970470919804EE240E94821ACE010E94CD
:102A10001D12DF91CF911F910F91EF90089528EE35
:102A200033E03093900420938F0410928C04109222
:102A30008B0421E0209399040E94BB1408950F9306
:102A40001F938C0180ED0E94F31880EE60E80E94D5
:102A5000EF0882EE60E80E94EF08C8010E941D1294
:102A60001F910F9108950F931F938C0180EE60E8E2
:102A70000E94EF0882EE60E80E94EF08C8010E9401
:102A80001D121F910F9108950F939C018091910445
:102A900080FF04C0C9010E941D1222C089E492E097
:102AA00068E00E94C90880EE60E049E452E020E05E
:102AB00000E00E944C0982EE61E049E452E020E02F
:102AC0000E944C0984EE62E049E452E020E00E945A
:102AD0004C0986EE63E049E452E020E00E944C0994
:102AE0000F910895CF92DF92EF920F931F93DF9390
:102AF000CF93CDB7DEB728970FB6F894DEBF0FBEE1
:102B0000CDBF6C01209191043091920440919304C7
:102B1000509194046091950470919604809197046B
:102B2000909198040E949D0529833A834B835C838E
:102B30006D837E838F839887A1E9B4E0FE0131968F
:102B400088E001900D928150E1F780ED00919104B1
:102B50001091920420919304309194044091950433
:102B6000509196046091970470919804EE240E940D
:102B7000821AC6010E941D1228960FB6F894DEBF75
:102B80000FBECDBFCF91DF911F910F91EF90DF90DE
:102B9000CF900895109299040E941D1208952F92CB
:102BA0003F924F925F926F927F928F929F92AF92DD
:102BB000BF92CF92DF92EF92FF920F931F93DF931A
:102BC000CF93CDB7DEB7CF5BD1400FB6F894DEBF61
:102BD0000FBECDBF1982DE011896E0EBF2E080EB6C
:102BE00091E001900D920197E1F7CE01029661E02C
:102BF00070E0AE01485F5F4F20E030E00E94EB09DB
:102C00000E9443040E94710480917C00806680933E
:102C10007C0080917A00876880937A00789480EEB7
:102C20000E94010982EE0E94010984EE0E940109BE
:102C300086EE0E94010980EE60E049E452E020E067
:102C400000E00E944C0982EE60E049E452E020E09E
:102C50000E944C0984EE62E049E452E020E00E94C8
:102C60004C0986EE63E049E452E020E00E944C0902
:102C700083E00E94E80D82958F708983698180EEE0
:102C80000E94D608698182EE0E94D608698184EE8E
:102C90000E94D608698186EE0E94D60884E06EE420
:102CA00041E050E00E947C1C8091910480939C0440
:102CB00081E080939A048E0108541E4F6AEB262E01
:102CC00061E0362E2C0E3D1E5BEB452E51E0552E5D
:102CD0004C0E5D1E4CEB642E41E0742E6C0E7D1E7E
:102CE0003DEB832E31E0932E8C0E9D1E2EEBA22EFB
:102CF00021E0B22EAC0EBD1E9FEBC92E91E0D92E65
:102D0000CC0EDD1E82E0E82EF12CEC0EFD1E80EDD7
:102D100060E00E94021CF8012083C754DE4F388314
:102D2000C95BD140F1014083F2015083F30160831C
:102D3000F4017083F5018083F6019083A1E9B4E08A
:102D4000F80188E001900D928150E1F780ED0E943A
:102D50002F1980939D040E94AB0D0E945C0483E0B8
:102D60000E94E80D82958F708983FFE0F983698165
:102D700080EE0E94D608698182EE0E94D6086981A1
:102D800084EE0E94D608698186EE0E94D608C701AB
:102D90000E94F3090E94931CBACFEF92FF920F9307
:102DA0001F93DF93CF9300D000D0CDB7DEB7F82EBE
:102DB00089838EE0E82EEA828E010F5F1F4FC801E3
:102DC00062E00E9486048F2D81608983C80164E0DF
:102DD0000E948604C80164E00E94B5049A8195FDB2
:102DE0000BC08B8182FD08C0F98290629B83EA82CE
:102DF000C80163E00E9486040F900F900F900F901F
:102E0000CF91DF911F910F91FF90EF900895FF9266
:102E10000F931F93DF93CF9300D000D0CDB7DEB7D1
:102E2000F82E89838EE08A838E010F5F1F4FC801C1
:102E300062E00E94860481E0F82AF982C80164E019
:102E40000E948604C80164E00E94B5048A8185FF5F
:102E500002C08FEF06C08B8182FD02C080E001C0FE
:102E60008FE00F900F900F900F90CF91DF911F91F7
:102E70000F91FF900895FF920F931F93DF93CF93CD
:102E800000D000D0CDB7DEB7F82E898381E18A83E8
:102E90008E010F5F1F4FC80162E00E94860481E02F
:102EA000F82AF982C80164E00E948604C80164E03F
:102EB0000E94B5049A8180E02B8130E0282B392BC9
:102EC000C9010F900F900F900F90CF91DF911F913C
:102ED0000F91FF900895DF92EF92FF920F931F934F
:102EE000DF93CF9300D00F92CDB7DEB7F82EE62E4A
:102EF00089839FE0D92EDA828E010F5F1F4FC801B0
:102F000062E00E9486048F2D81608983C80163E09E
:102F10000E948604C80163E00E94B504F98283E040
:102F2000E8228A818C7F8E298B83DA82C80163E054
:102F30000E9486040F900F900F90CF91DF911F9108
:102F40000F91FF90EF90DF900895FF920F931F93E2
:102F5000DF93CF9300D00F92CDB7DEB7F82E8983E1
:102F60008FE08A838E010F5F1F4FC80162E00E94CD
:102F7000860481E0F82AF982C80163E00E94860491
:102F8000C80163E00E94B5048A8183700F900F909E
:102F90000F90CF91DF911F910F91FF900895DF92D5
:102FA000EF92FF920F931F93DF93CF9300D00F9276
:102FB000CDB7DEB7F82EE62ED42E89838EE08A8335
:102FC0008E010F5F1F4FC80162E00E9486048F2DA3
:102FD00081608983C80163E00E948604C80163E0C0
:102FE0000E94B5042A81922F9C7F9B8381E0E81682
:102FF00041F08FEFE81639F4822F8170892B8B8393
:1030000002C091609B8381E0D81639F08FEFD8160B
:1030100039F422708B81822B02C08B8182608B837A
:103020008EE08A83F982CE01019663E00E948604D5
:103030000F900F900F90CF91DF911F910F91FF9004
:10304000EF90DF900895FF920F931F93DF93CF933C
:1030500000D00F92CDB7DEB7F82E89838EE08A8339
:103060008E010F5F1F4FC80162E00E94860481E05D
:10307000F82AF982C80163E00E948604C80163E06F
:103080000E94B5048A8183700F900F900F90CF91AA
:10309000DF911F910F91FF900895FF920F931F935F
:1030A000DF93CF9300D000D00F92CDB7DEB7F82ECC
:1030B00089838BE08A838E010F5F1F4FC80162E016
:1030C0000E94860481E0F82AF982C80164E00E9427
:1030D0008604C80164E00E94B5044C8150E08B81F5
:1030E00090E080789070E5E095958795EA95E1F716
:1030F0002A8130E02078307076E0359527957A95F2
:10310000E1F7822B9A012078307064E0359527959D
:103110006A95E1F7822B4074507055954795559507
:103120004795842B0F900F900F900F900F90CF9199
:10313000DF911F910F91FF900895FF920F931F93BE
:10314000DF93CF9300D000D000D0CDB7DEB7F82EFC
:10315000898387E08A838E010F5F1F4FC80162E079
:103160000E94860481E0F82AF982C80165E00E9485
:103170008604C80165E00E94B5044D8150E08B8152
:1031800090E08078907016E0959587951A95E1F714
:103190002C8130E020783070B5E035952795BA95D0
:1031A000E1F7822B2A81221F2227221F822B9A01DC
:1031B00020783070A4E035952795AA95E1F7822B09
:1031C000407450705595479555954795842B269694
:1031D0000FB6F894DEBF0FBECDBFCF91DF911F9128
:1031E0000F91FF900895DF92EF92FF920F931F933C
:1031F000DF93CF9300D00F92CDB7DEB7F82E89833F
:103200000FE0D02EDA828E010F5F1F4FC80162E0FF
:103210000E9486048F2D81608983C80163E00E942B
:103220008604C80163E00E94B504EA80F982DA826C
:103230008E2D8C7083608B83C80163E00E948604AE
:103240008E2D881F8827881F0F900F900F90CF9189
:10325000DF911F910F91FF90EF90DF900895FF9203
:103260000F931F93DF93CF9300D00F92CDB7DEB7AC
:10327000F82E89838FE08A838E010F5F1F4FC8016C
:1032800062E00E94860481E0F82AF982C80163E0C6
:103290000E948604C80163E00E94B50490E08A8120
:1032A00087FD91E0892F0F900F900F90CF91DF91C4
:1032B0001F910F91FF900895BF92CF92DF92EF92EE
:1032C000FF920F931F93DF93CF93CDB7DEB72D9768
:1032D0000FB6F894DEBF0FBECDBF0E83F12F1F8354
:1032E000E22F28873987942F4A875B876C877D87F1
:1032F0004E2DFE2ED32EB92E89838BE08A83EE20AD
:1033000079F50C2D10E08F2F0E945E05980176E074
:10331000220F331F7A95E1F72078282B2B838F2DEE
:103320000E945E058F7B980165E0220F331F6A952E
:10333000E1F72078822B8C83780154E0EE0CFF1C9F
:103340005A95E1F7C6FE04C020E4D22A8E2D22C091
:103350008B2D0E945E059E2D9078982B9D8320C01A
:103360004F3F19F52C2D30E0C90146E0880F991F19
:103370004A95E1F78078812B8B838FE3F822FC82DA
:10338000C90134E0880F991F3A95E1F7C6FE05C0E0
:1033900020E4D22A80788D2902C080788B298D8301
:1033A000CE01019669E00E9486042D960FB6F8942E
:1033B000DEBF0FBECDBFCF91DF911F910F91FF9068
:1033C000EF90DF90CF90BF900895BF92CF92DF92A1
:1033D000EF92FF920F931F93DF93CF93CDB7DEB79A
:1033E0002E970FB6F894DEBF0FBECDBFA02F0F8370
:1033F0001887E22F29873A87942F4B875C876D8740
:103400007E874E2DE12EFE2ED32EB92E898387E0A6
:103410008A834423D1F50C2D10E08A2F0E945E058B
:1034200098013695322F222737952795822B8B834B
:103430008E2D0E945E05980146E0220F331F4A95AB
:10344000E1F72078282B2C838F2D0E945E058F7B3F
:10345000980195E0220F331F9A95E1F72078822B8F
:103460008D83780114E0EE0CFF1C1A95E1F7C6FE7F
:1034700004C020E4D22A8E2D2AC08B2D0E945E0526
:103480009E2D9078982B9E8328C04F3F59F52C2D68
:1034900030E0C9019695982F882797958795A82B96
:1034A000AB83C901F6E0880F991FFA95E1F78078A0
:1034B000812B8C838FE3F822FD82C901E4E0880F21
:1034C000991FEA95E1F7C6FE05C020E4D22A80786C
:1034D0008D2902C080788B298E83CE01019669E008
:1034E0000E9486042E960FB6F894DEBF0FBECDBFA5
:1034F000CF91DF911F910F91FF90EF90DF90CF90D0
:10350000BF900895BF92CF92DF92EF92FF920F93F8
:103510001F93DF93CF93CDB7DEB761970FB6F894C3
:10352000DEBF0FBECDBFB02F0A87A12F1B87F22FA2
:103530002C87E32F3D874E875F87688B798B3E2DE5
:10354000D12E1F2FCE2EB42EE888F988052F89831F
:103550001A82332359F58B2F0E945E058B838D2DA4
:103560000E945E058C83812F0E945E058F738D8380
:10357000CE828B2D0E945E058F8380EDE81687E05A
:10358000F80630F4802F0E945E058F71806804C0B9
:10359000802F0E945E058F718887C70164E670E006
:1035A0000E94D61C0E945E05898710C03F3F99F497
:1035B000BB83AC831F731D83EE834F83C701969536
:1035C000879580780F71802B8887E986CE010196D8
:1035D00069E00E94860461960FB6F894DEBF0FBEC4
:1035E000CDBFCF91DF911F910F91FF90EF90DF90B2
:1035F000CF90BF900895EF92FF920F931F93DF93A8
:10360000CF93CDB7DEB765970FB6F894DEBF0FBE88
:10361000CDBF182F062F89838BE08A837E01089403
:10362000E11CF11CC70162E00E948604116019834D
:10363000C70164E00E948604C70164E00E94B504EB
:103640000023F9F48A818F770E944B05E82E8B8145
:103650008F730E944B05182F8C8186FD03C080E07C
:103660000E944B051E82EF82188719868A87DE0129
:103670001E96FE01369688E001900D928150E1F78A
:1036800025C09E01225F3F4FAE014A5F5F4F0F3F53
:1036900089F49A819F778B818F731E829F8388879D
:1036A00019861A86D901FA0188E001900D9281509D
:1036B000E1F70CC01E821F82188619861A86D9016E
:1036C000FA0188E001900D928150E1F72E853F8547
:1036D000488959896A897B898C899D8965960FB645
:1036E000F894DEBF0FBECDBFCF91DF911F910F9138
:1036F000FF90EF900895EF92FF920F931F93DF9347
:10370000CF93CDB7DEB766970FB6F894DEBF0FBE86
:10371000CDBF182F062F898387E08A837E01089406
:10372000E11CF11CC70162E00E948604116019834C
:10373000C70165E00E948604C70165E00E94B504E8
:10374000002321F58A818F770E944B05082F8B81FA
:103750008F770E944B05E82E8C818F730E944B055A
:10376000182F8D8186FD03C080E00E944B050F83DA
:10377000E88619871A868B87DE011F96FE01379629
:1037800088E001900D928150E1F727C0AE01415FC2
:103790005F4FBE01695F7F4F0F3F99F42B812F77F9
:1037A0009C819F738A818F778F83288799871A8658
:1037B0001B86DA01FB0188E001900D928150E1F750
:1037C0000CC01F82188619861A861B86DA01FB0137
:1037D00088E001900D928150E1F72F853889498961
:1037E0005A896B897C898D899E8966960FB6F89473
:1037F000DEBF0FBECDBFCF91DF911F910F91FF9024
:10380000EF900895CF92DF92EF92FF920F931F9364
:10381000DF93CF93CDB7DEB761970FB6F894DEBFD5
:103820000FBECDBFF82EE62E89871A868E01075F60
:103830001F4FC80162E00E94860481E0F82AF986E1
:10384000C80168E00E948604C80168E00E94B504CF
:10385000EE2029F58A850E944B05C82E8B850E9493
:103860004B05D82E8C850E944B05182FED848E8534
:103870000E944B05F82E8F858F710E944B05082FF3
:1038800088890E944B05282F30E0F901E053F84F5A
:103890008F8587FF19C0F901E459F84F15C08FEFE4
:1038A000E81691F4CA84DB841C85ED84FE847F8550
:1038B000888977FF04C0E82FF0E0F96103C0E82FA2
:1038C000F0E0F062072F0F71F887EF839601412F28
:1038D0005E2D6F2D702F8E2F988561960FB6F89400
:1038E000DEBF0FBECDBFCF91DF911F910F91FF9033
:1038F000EF90DF90CF9008955093A1044093A004DF
:1039000010929F0410929E0410929B0492E094BD2A
:1039100067BD16BCA99AEEE6F0E0908192609083B4
:10392000877085BD089580919B048823E1F31092F0
:103930009B0408951F920F920FB60F9211242F939C
:103940003F938F939F9380919E0490919F04019643
:1039500090939F0480939E0420919E0430919F0435
:103960008091A0049091A1048217930750F4809154
:103970009B048F5F80939B0410929F0410929E047F
:1039800016BC9F918F913F912F910F900FBE0F907A
:103990001F901895991B79E004C0991F961708F09D
:1039A000961B881F7A95C9F780950895AA1BBB1BA3
:1039B00051E107C0AA1FBB1FA617B70710F0A61B2F
:1039C000B70B881F991F5A95A9F780959095BC0150
:1039D000CD0108952F923F924F925F926F927F9206
:1039E0008F929F92AF92BF92CF92DF92EF92FF920F
:1039F0000F931F93CF93DF93CDB7DEB7CA1BDB0BBB
:103A00000FB6F894DEBF0FBECDBF09942A8839885F
:103A100048885F846E847D848C849B84AA84B98466
:103A2000C884DF80EE80FD800C811B81AA81B98172
:103A3000CE0FD11D0FB6F894DEBF0FBECDBFED0186
:063A40000895F894FFCF89
:103A46004D41525445532020004C554E455320209D
:103A560020004D494552434F4C45004A5545564571
:103A660053202000564945524E45532000534142AB
:103A760041444F202000444F4D494E474F200020DF
:103A8600202020202020200000010202030303033F
:103A960004040404040404040505050505050505D8
:103AA60005050505050505050606060606060606B8
:103AB60006060606060606060606060606060606A0
:103AC6000606060606060606070707070707070788
:103AD6000707070707070707070707070707070770
:103AE6000707070707070707070707070707070760
:103AF6000707070707070707070707070707070750
:103B06000707070707070707080808080808080837
:103B1600080808080808080808080808080808081F
:103B2600080808080808080808080808080808080F
:103B360008080808080808080808080808080808FF
:103B460008080808080808080808080808080808EF
:103B560008080808080808080808080808080808DF
:103B660008080808080808080808080808080808CF
:103B760008080808080808080808080808080808BF
:103B86000808080808080808F82020202020202017
:103B9600201F1C1F1E1F1E1F1F1E1F1E1F1F1D1F37
:103BA6001E1F1E1F1F1E1F1E1F000000060101D024
:103BB60007000302050003050104060204000105CF
:103BC600040602030700080109020A030B040C0598
:103BD6000D060E070F0003050104020D09070B066B
:103BE600080C0A0F0E3031323334353620202020AF
:103BF6000200F00C01001D120200220D02001D122F
:103C06000100790D0300441501005D0D07001D122A
:103C16000100270D01001D1203005D0D07001F1591
:103C26000300790D0300441503007C0D01003315D4
:103C36000700F00C05007A110700FA0C0600CA15F9
:103C46000700220D07001D1206006F0D0600BB14AB
:103C56000600F00C05007A110500F00C05007A113B
:103C66000500690D020072150500630D0A00D710E4
:103C760005006F0D07000F150A00F00C0800D7109D
:103C86000A00FA0C0900CA150A00220D0A001D12C4
:103C960009006F0D090057140900F00C0800D71031
:103CA6000800F00C0800D7100800690D0200721514
:103CB6000800630D0D00341008006F0D0A00AB14E8
:103CC6000D00F00C0B0034100D00FA0C0C00CA1598
:103CD6000D00220D0D001D120C006F0D0C00D513EA
:103CE6000C00F00C0B0034100B00F00C0B00341021
:103CF6000B00690D020072150B00630D1000910F89
:103D06000B006F0D0D0047141000F00C0E00910F04
:103D16001000FA0C0F00CA151000220D10001D121B
:103D26000F006F0D0F0074130F00F00C0E00910FB3
:103D36000E00F00C0E00910F0E00690D02007215B8
:103D46000E00630D1300EA0E0E006F0D1000C51372
:103D56001300F00C1100EA0E1300FA0C12006F1398
:103D66001300220D1300FB1212006F0D1200FE123B
:103D76001200F00C1100EA0E1100F00C1100EA0E10
:103D86001100690D020072151100630D0200721513
:103D960011006F0D13005F13FFFF0000FFFF00000F
:00000001FF
